:020000040800F2
:1000000000000220E1050008DD050008454B00085E
:10001000DD050008DD050008DD0500080000000022
:10002000000000000000000000000000DD050008E6
:10003000DD05000800000000DD050008C94A0008D1
:10004000DD050008DD050008DD050008DD05000808
:10005000DD050008DD050008DD050008DD050008F8
:10006000DD050008DD050008DD050008D1460008B3
:10007000DD46000839310008E9460008F546000869
:10008000DDF30008013C0008DD050008DD0500087F
:10009000DD050008DD050008DD050008DD050008B8
:1000A000DD050008DD050008DD050008DD050008A8
:1000B000F5E7000801E800080DE80008353C0008F5
:1000C000DD050008413C0008DD05000865E000088A
:1000D00071E0000811F200083DF2000871F200081A
:1000E000DD050008DD05000800000000DD05000852
:1000F000DD050008DD050008DD050008DD05000858
:10010000DD050008DD05000819E800087DE00008AD
:10011000A5F20008D9F2000805340008DD05000842
:10012000ED330008F9330008A1E00008D5E000082D
:1001300011F40008DD050008DD050008DD050008F4
:1001400000000000000000000000000000000000AF
:10015000DD050008DD050008DD0500080DF30008D9
:100160004D3C0008DD050008D94A0008FD4A00089A
:10017000DD050008214B0008DD050008DD0500084D
:10018000DD050008DD05000841F3000875F30008EF
:1001900089E0000895E00008DD050008DD0500089D
:1001A000DD050008DD050008DD050008DD050008A7
:1001B000F1430008DD050008DD050008DD05000845
:1001C000DD050008DD050008592B0008652B000837
:1001D000DD050008712B0008DD050008DD050008BD
:1001E000DD050008DD050008DD050008DD05000867
:1001F000DD050008DD050008DD050008DD05000857
:10020000DD050008DD050008DD050008DD05000846
:10021000DD050008DD050008DD050008DD05000836
:10022000DD050008DD050008DD0500080000000010
:10023000DD050008DD05000800000000DD05000800
:10024000DD050008DD050008DD050008DD05000806
:10025000DD050008DD050008DD050008DD050008F6
:10026000DD050008DD050008DD050008DD050008E6
:10027000DD050008DD050008A9F300080000000006
:10028000DD050008DD050008DD05000800000000B0
:0802900000000000DD0500087C
:1002980010B5054C237833B9044B13B10448AFF3B8
:1002A80000800123237010BDE80300240000000033
:1002B800502D010808B5034B1BB103490348AFF3A0
:1002C800008008BD00000000EC030024502D010848
:1002D80053B94AB9002908BF00281CBF4FF0FF31A5
:1002E8004FF0FF3000F074B9ADF1080C6DE904CEA1
:1002F80000F006F8DDF804E0DDE9022304B07047F9
:100308002DE9F047089D04468E46002B4DD18A42C0
:10031800944669D9B2FA82F252B101FA02F3C2F1F3
:10032800200120FA01F10CFA02FC41EA030E944084
:100338004FEA1C48210CBEFBF8F61FFA8CF708FBA5
:1003480016E341EA034306FB07F199420AD91CEB7D
:10035800030306F1FF3080F01F81994240F21C81AF
:10036800023E63445B1AA4B2B3FBF8F008FB1033F7
:1003780044EA034400FB07F7A7420AD91CEB04042C
:1003880000F1FF3380F00A81A74240F207816444FC
:10039800023840EA0640E41B00261DB1D440002381
:1003A800C5E900433146BDE8F0878B4209D9002DE5
:1003B80000F0EF800026C5E9000130463146BDE86F
:1003C800F087B3FA83F6002E4AD18B4202D38242D9
:1003D80000F2F980841A61EB030301209E46002D88
:1003E800E0D0C5E9004EDDE702B9FFDEB2FA82F2DD
:1003F800002A40F09280A1EB0C014FEA1C471FFA3B
:100408008CFE0126200CB1FBF7F307FB131140EA21
:1004180001410EFB03F0884208D91CEB010103F1EE
:10042800FF3802D2884200F2CB804346091AA4B2B0
:10043800B1FBF7F007FB101144EA01440EFB00FE84
:10044800A64508D91CEB040400F1FF3102D2A645E9
:1004580000F2BB800846A4EB0E0440EA03409CE788
:10046800C6F12007B34022FA07FC4CEA030C20FA35
:1004780007F401FA06F31C43F9404FEA1C4900FA55
:1004880006F3B1FBF9F8200C1FFA8CFE09FB1811D2
:1004980040EA014108FB0EF0884202FA06F20BD945
:1004A8001CEB010108F1FF3A80F08880884240F295
:1004B8008580A8F102086144091AA4B2B1FBF9F0D9
:1004C80009FB101144EA014100FB0EFE8E4508D9D4
:1004D8001CEB010100F1FF346CD28E456AD9023859
:1004E800614440EA0840A0FB0294A1EB0E01A1423E
:1004F800C846A64656D353D05DB1B3EB080261EBAC
:100508000E0101FA07F722FA06F3F1401F43C5E985
:10051800007100263146BDE8F087C2F12003D840BB
:100528000CFA02FC21FA03F3914001434FEA1C47FD
:100538001FFA8CFEB3FBF7F007FB10360B0C43EAEF
:10054800064300FB0EF69E4204FA02F408D91CEB9F
:10055800030300F1FF382FD29E422DD9023863449D
:100568009B1B89B2B3FBF7F607FB163341EA03413D
:1005780006FB0EF38B4208D91CEB010106F1FF388C
:1005880016D28B4214D9023E6144C91A46EA004683
:1005980038E72E46284605E70646E3E61846F8E615
:1005A8004B45A9D2B9EB020864EB0C0E0138A3E75E
:1005B8004646EAE7204694E74046D1E7D0467BE73F
:1005C800023B614432E7304609E76444023842E7B7
:1005D800704700BFFEE700BF0B480C4A904203D0AB
:1005E800121A0B4912F0B0F80A480B4A904203D08D
:1005F800121A002112F0B6F804F0FAFC12F080F892
:1006080000F054F8FEE700BF00000024E8030024CF
:10061800842D0108E8030024EC380024704700BF4B
:10062800704700BFDAB32DE9F04781468A46904605
:1006380000241B4F2DED028B1948A60000F0CCFEBC
:10064800D9F8003087ED0E0A03EB8403154801340E
:1006580093ED008A20EE088A00F0BEFED9F8043037
:10066800A045DAF8005003EB0602DAF8043087ED0B
:100678001D0A05EB060C92ED007A3344DFED0A7A89
:1006880020EE070A28EE278A20EE270A8CED008A3A
:1006980083ED000AD0D1BDEC028BBDE8F08770472E
:1006A800D00500240C06002452B89E3F38B500221D
:1006B80001217A4800F0A8FA01220221774800F0C7
:1006C800A3FA032275481146754D00F09DFA0222DF
:1006D8000421724800F098FA052270481146714CBE
:1006E80000F092FA06226D48114600F08DFA0422B5
:1006F80007216A4800F088FA07220821674800F0B5
:1007080083FA08220921654800F070F909220A21B4
:10071800624800F06BF901226048114600F0F6F9D2
:10072800052202215D4800F0F1F995ED000A204606
:1007380000F04EFE95ED000A04F13C0000F048FE82
:100748000021564800F012FE574B5848196800F02F
:100758004DFF0421554800F02DFF5549534800F03E
:1007680025FF26E0534803F0E5F80921002800F0AA
:1007780082804A4800F078FB0A21484800F074FB60
:1007880094ED0E0A0921454800F01AFB0A2194ED60
:100798001D0A424800F014FB0121404800F0C4FA49
:1007A800034602213D4884F8303000F0BDFA84F851
:1007B8006C0004F033FA01463C48C1F30901B1F575
:1007C800FF7F8CBF0021012100F02CFF012133485D
:1007D80000F096FA334800F06DFE02212F4800F031
:1007E8008FFA304800F08AFE04212C4800F088FA7D
:1007F8002C4800F0BBFE0321284800F081FA294864
:1008080000F09CFE0521254800F07AFA2A4800F0FD
:1008180051FE0621214800F073FA274800F06EFEC9
:1008280008211E4800F06CFA234800F09FFE0721BB
:100838001A4800F065FA204800F080FE1F4803F0CF
:1008480079F880B90123636323671D4803F072F8C0
:10085800002887D10921114800F02EFB0A210F48F2
:1008680000F02AFB98E7174803F064F888B10223E0
:1008780063632367E9E7094800F01EFB0A2107487C
:1008880000F0F2FA0A2194ED0E0A044800F098FAF2
:1008980082E7032363632367D7E700BF04040024C8
:1008A80008000024D005002404000024FC040024CF
:1008B8002D060008D40400240C060024D8040024C3
:1008C800D0040024DC04002442484FF60B720121B6
:1008D8004FF0FF3310B50024C0E90124C0E9062415
:1008E800C0E90B24C0E91024C0E91524C0E91A2482
:1008F800C0E91F24C0E92424C0E90344C0E908442E
:10090800C0E90D44C0E91244C0E91744C0E91C44D9
:10091800C0E92144C0E92644C0E92924C0E92E24BD
:10092800C0F8F01006220221C0F80C41C0F81841A6
:10093800C0E94D43C0E92B44C0E93044C0E93D4417
:10094800C0E94F33C0E95133C0E95333C0E95533E7
:10095800C0E95733C0E95933C0E95B33C0E95D33B7
:10096800C0E95F34C0E96142C0E96923C0E9632294
:10097800C0E96522C0E96722C0E96B33164AC0F8AE
:10098800C431C0F8C8111549C0E96D33C0E96F33E7
:1009980011F0B8FB124B00201249DC621860586055
:1009A8009960D860196159619961D8611862586273
:1009B800D863186459649864D96419655965986549
:1009C800D865186620469C66034A0749BDE810406A
:1009D80011F098BB04040024000000242506000838
:1009E800D0050024000080BF2906000810B472B9A1
:1009F800D0F8C8310524C0F858115A1CC0F8A831DD
:100A0800C0F89041C0F8C8215DF8044B7047012A2E
:100A18000ED1D0F8C8310524C0F85C115A1CC0F8B2
:100A28009441C0F8AC315DF8044BC0F8C821704758
:100A3800022A0ED1D0F8C8310524C0F860115A1C1A
:100A4800C0F89841C0F8B0315DF8044BC0F8C8212F
:100A58007047032A0ED1D0F8C8310524C0F86411B4
:100A68005A1CC0F88841C0F8B4315DF8044BC0F88E
:100A7800C8217047042A0CD1D0F8C8310524C0F821
:100A880068115A1CC0F8B831C0F89C41C0F8C82198
:100A9800BAE7052A0BD1D0F8C831C0F8A0215A1CF2
:100AA800C0F86C11C0F8BC31C0F8C821ACE7062A00
:100AB8000CD1D0F8C8310524C0F870115A1CC0F800
:100AC800C031C0F8A441C0F8C8219DE7072A0CD15D
:100AD800D0F8C8310524C0F874115A1CC0F8C431C4
:100AE800C0F88C41C0F8C8218EE7082A05D1012337
:100AF800C0F87811C0F8803186E7092A84D101232B
:100B0800C0F87C11C0F884317EE700BF10B472B918
:100B1800D0F8C8310524C0F858115A1CC0F89041C3
:100B2800C0F8A831C0F8C8215DF8044B7047012A05
:100B38000ED1D0F8C8310524C0F85C115A1CC0F891
:100B48009441C0F8AC315DF8044BC0F8C821704737
:100B5800022A0ED1D0F8C8310524C0F860115A1CF9
:100B6800C0F89841C0F8B0315DF8044BC0F8C8210E
:100B78007047032A0ED1D0F8C8310524C0F8641193
:100B88005A1CC0F88841C0F8B4315DF8044BC0F86D
:100B9800C8217047042A0CD1D0F8C8310524C0F800
:100BA80068115A1CC0F89C41C0F8B831C0F8C82177
:100BB800BAE7052A0BD1D0F8C831C0F8A0215A1CD1
:100BC800C0F86C11C0F8BC31C0F8C821ACE7062ADF
:100BD8000CD1D0F8C8310524C0F870115A1CC0F8DF
:100BE800A441C0F8C031C0F8C8219DE7072A9BD1AD
:100BF800D0F8C8310524C0F874115A1CC0F88C41CB
:100C0800C0E9713290E700BF12B9C0F838117047D7
:100C1800012A02D1C0F83C117047022A02D1C0F85B
:100C280040117047032A02D1C0F844117047042AC2
:100C380002D1C0F848117047052A02D1C0F84C11FA
:100C48007047062A02D1C0F850117047072A02D10E
:100C5800C0F8541170477047D0F838318B421FD014
:100C6800D0F840318B421BD0D0F844318B4217D09A
:100C7800D0F848318B4213D0D0F83C318B4211D098
:100C8800D0F84C318B420DD0D0F85031994209D070
:100C9800D0F8540181420CBF01204FF0FF3070475B
:100CA8000020704701207047D0F838318B421FD0A0
:100CB800D0F840318B421FD0D0F844318B421DD040
:100CC800D0F848318B4215D0D0F83C318B420FD048
:100CD800D0F84C318B420DD0D0F8503199420DD01C
:100CE800D0F8540181420CBF01204FF0FF3070470B
:100CF800002070470220704701207047032070478A
:100D080038B50446FFF7A8FF05462046FFF7CCFF95
:100D18000246E9B204F58870D2B202F0ADF9F7EEF6
:100D2800007A37EEC00A38BDD0F85821914208B58C
:100D3800034600F588701FD0D3F85C21914233D068
:100D4800D3F86021914229D0D3F8642191422ED062
:100D5800D3F8682191422DD0D3F86C2191422CD040
:100D6800D3F8702191421CD0D3F8742191420CBF62
:100D780093F8C411FF2101E093F8A81102F06CF96F
:100D8800F7EE007AB6EE087A37EEC00AB4EEC70A74
:100D9800F1EE10FACCBF0120002008BD93F8B01185
:100DA800ECE793F8C011E9E793F8AC11E6E793F89C
:100DB800B411E3E793F8B811E0E793F8BC11DDE765
:100DC800F7EE007A9FED267A30B577EEC07A0446C2
:100DD8000D46FEEECA7A2DED028BB8EEE78A83B097
:100DE800B4EEC78AF1EE10FA10DCB5EEC08AF1EE67
:100DF80010FA31D4D4F87831AB420DD0D4F87C3124
:100E0800AB4219D003B0BDEC028B30BDD4F87831B9
:100E1800B0EE478AAB42F1D1FCEEC87AD4F8F010B4
:100E280004F58C70CDED017ABDF8042002F072FB58
:100E3800D4F87C31AB42E5D1BCEEC88AD4F8F410C2
:100E480004F58C7018EE103A9AB203B0BDEC028B20
:100E5800BDE8304002F05EBB9FED028ACAE700BFE2
:100E680000F07F450000000038B5D0F8783104461E
:100E78000D468B4212D0D4F87C31AB4200D038BD3D
:100E8800002104F1180002F06FFC012104F1400078
:100E980002F06AFC0123C4F8843138BD0021043013
:100EA80002F062FC012104F12C0002F05DFC012338
:100EB800C4F88031DFE700BF38B5D0F87831044690
:100EC8000D468B4212D0D4F87C31AB4200D038BDED
:100ED800012104F1180002F047FC002104F1400050
:100EE80002F042FC0023C4F8843138BD01210430EB
:100EF80002F03AFC002104F12C0002F035FC00233A
:100F0800C4F88031DFE700BF2DE9F04F62490025C2
:100F1800044600F1040800F1180600F12C074030DF
:100F280001222B46096804F1540A04F17C0B04F1F0
:100F380090092DED028B85B002904046009502F095
:100F480021FB564A2B46304611680122009502F0D3
:100F580019FB534A2B46384611680122009502F0C6
:100F680011FB504A2B46029811680122009502F0A5
:100F780009FB4D4A2B46504611680122009502F0A4
:100F880001FB04F16803494A184608EE103A116853
:100F98002B460122009502F0F5FA454A2B465846A1
:100FA80011680122009502F0EDFA424A2B464846A4
:100FB80011680122009502F0E5FAD4F88021CAB13F
:100FC800012A5CD0D4F8847117B3012F5BD0D4F810
:100FD80088311A1F012A28D9032B41D0D4F88C3123
:100FE8001A1F012A2ED9032B43D005B0BDEC028B62
:100FF800BDE8F08F40460121039202F0B5FB039A49
:101008003846114602F0B0FBD4F88471002FDCD1C9
:101018003046012102F0A8FB3946029802F0A4FBF1
:10102800D4F888311A1F012AD6D85846012102F06F
:101038009BFB0021504602F097FBD4F88C311A1F15
:10104800012AD0D80121484602F08EFB002118EE73
:10105800100A05B0BDEC028BBDE8F04F02F084BB6E
:101068005846002102F080FB0121504602F07CFB2B
:10107800B4E70021484602F077FB0121E7E729465B
:1010880040460392B9E73046002102F06DFB39462D
:10109800029802F069FB9AE7B4270108BC27010807
:1010A800B0270108B8270108C4270108CC27010880
:1010B800C0270108C8270108F8B5044601250026FD
:1010C8000423CC3084F8CC5084F8CD30062784F83B
:1010D800CE6084F8CF5002F051FB0B2304F1D0000E
:1010E80084F8D07084F8D13084F8D26084F8D35072
:1010F80002F044FB072304F1D40084F8D45084F8A8
:10110800D66084F8D53084F8D75002F037FB04F164
:10111800D80084F8D85084F8D97084F8DA6084F854
:10112800DB50BDE8F84002F029BB00BF2DE9F04FC5
:1011380097B000264FF00B024FF0060BD0F8C831DD
:1011480004AF4FF00A0A03EBC303022587F84020D7
:101158004FF00C095B0087F8416087F810B004462F
:10116800073387F811A03E72042223F007037D722B
:101178003D73ADEB030DB7F8403087F80D90ADF82F
:1011880004300DF110083B8AB9684046ADF80030CC
:101198000295FB6801F002FD4FF00B0287F81CB0C6
:1011A8000DF1220087F81DA087F84420BB8B87F833
:1011B8004560B7F8442087F819903E757E753D76EE
:1011C800ADF804200422ADF800307969BB690295B6
:1011D80001F0E4FCD4F89031052B2DD0D4F89431EB
:1011E800052B3BD0D4F89831052B4BD0D4F8883157
:1011F800052B5BD0D4F89C31052B6AD0D4F8A031EC
:10120800052B7AD0D4F8A431052B00F08A80D4F8C5
:101218008C31052B00F0998004F588700423D4F8EC
:10122800C8214146786001F0F3FC786801F0FEFEC1
:101238004C37BD46BDE8F08FD4F8A8012A4687F898
:10124800205000EBC00087F82160396A08EB4000A5
:1012580001F090FCD4F89431052BC3D1D4F8AC013B
:1012680006230021022200EBC00087F8253087F80A
:101278002410796A08EB400001F07CFCD4F898311E
:10128800052BB3D1D4F8B00101230021022200EBD1
:10129800C00087F8293087F82810B96A08EB4000A1
:1012A80001F068FCD4F88831052BA3D1D4F8B40137
:1012B8000423022200EBC00087F82D3087F82C2089
:1012C800F96A08EB400001F055FCD4F89C31052B75
:1012D80094D1D4F8B80103230021022200EBC00006
:1012E80087F8313087F83010396B08EB400001F08F
:1012F80041FCD4F8A031052B84D1D4F8BC010123DA
:10130800022200EBC00087F8353087F83420796B6B
:1013180008EB400001F02EFCD4F8A431052B7FF433
:1013280076AFD4F8C0010123022200EBC00087F891
:10133800383087F83930B96B08EB400001F01AFCF7
:10134800D4F88C31052B7FF467AFD4F8C4010021A1
:101358000723022200EBC00087F83C1087F83D30D5
:10136800F96B08EB400001F005FC55E7F0B500F11A
:10137800F80687B0044600253046012700F012FA27
:10138800022301A904F58C70CDE90235CDE9047575
:1013980002F042F82046FFF7B7FD2046FFF78CFE23
:1013A80005238DF8047004F1DC008DF805300199EF
:1013B8009FED060A01F0B2FB2046FFF7B7FE29466B
:1013C800304607B0BDE8F04000F02CB9000000003E
:1013D800012110F029BD00BF10B5044682B090F875
:1013E800301010F037FE636B022B44D0012B0DD167
:1013F8009FED297AF7EE006AF0EE477AE0EE007A80
:1014080087FE870A80FE660A02B010BD9FED237A28
:1014180001A830EE070A9FED1E6BB7EEC07A87EE83
:10142800060BB7EEC00BB0EEC00A10F0E3FEDFED1E
:101438001C5ADFED1C7ADFED1C6AE0EE257A9FED81
:101448001B7AF7EE005ADFED1A4A9FED135AB0EEF9
:10145800676ADDED017AF8EEE77AE0EE066AA0EE5B
:10146800267A37EE870A20EE240A80FE050A80FED7
:10147800650A02B010BDF7EE007A9FED077A30EEEC
:10148800070A80FE070A80FE670A02B010BD00BF87
:10149800295C8FC2F528BC3F00000000CDCCCC3DB4
:1014A800A8A19D3FF5CA83C0FBB3C040E09248C0E5
:1014B8009B209A3E00B583B0DFED0C0A019010F036
:1014C80027FFF2EE047ADFED0A6A9FED0A7ADFED74
:1014D8000A0A20EE260A019880FE070A80FE670A9B
:1014E80003B05DF804EB10F00FBD00BF3333534079
:1014F800CFF71F416F12033B0000000000B583B017
:10150800DFED0B0A019010F003FFF2EE047ADFED35
:10151800096A9FED097A019820EE260A80FE070ADB
:1015280080FE670A03B05DF804EB10F043BD00BF0E
:1015380033335340CFF71F416F12033BB5EEC00A58
:10154800F1EE10FA0AD9F7EE007AB4EE670AF1EE76
:1015580010FA37FE800A80ED000A70479FED020AF4
:1015680080ED000A704700BF0AD723BC00B583B0DE
:10157800DFED0B0A019010F0CBFEF2EE047ADFEDFE
:10158800096A9FED097A019820EE260A80FE070A6B
:1015980080FE670A03B05DF804EB10F033BD00BFAE
:1015A80033335340CFF71F416F12033B143001F020
:1015B80069BA00BF38B500F1140504462DED028B59
:1015C800284601F01BFA284601F014FA2846B0EE26
:1015D800408A01F0FDF9D0ED007AF8EE677A88EEDE
:1015E800277ABDEC028B84ED0E7A38BD38B500F150
:1015F800140504462DED028B284601F0EDF9284626
:1016080001F0F8F92846B0EE408A01F0E1F9D0ED92
:10161800007AF8EE677A88EE277ABDEC028B84EDC3
:101628000E7A38BD253002F093B900BF10B540F2EC
:1016380003338EB000244FF60B7240F20341ADF82D
:10164800083009A80123ADF81020ADF8242022465F
:10165800ADF80C100094029907940C94CDE9054458
:10166800CDE90A4401F08EFF04A80123224603991C
:10167800009401F087FF09A802F06AF810B9012068
:101688000EB010BD04A802F063F8A0420CBF0220FF
:1016980020460EB010BD00BF2DE9F04103239AB0DB
:1016A800012700240646CDE914373B4BCDE910430A
:1016B80040F20453CDE91647ADF84830FFF7B6FFBE
:1016C800B842054625D0022845D040F60132334BB2
:1016D8000DF12C081894ADF82C200B981997CDF81B
:1016E8004A3000F0E3F810A906F13C0003F078F85E
:1016F800302003224FF07E5341460D930E93CDE9DF
:101708000B02F26B06F1140001F02AF91AB0BDE8D9
:10171800F0811023214A06A906908DF828300DF192
:101728002C081F4BCDF84A2007930294CDE91804E2
:10173800CDE9080402A802F08BFA0823029A03A94B
:101748004046ADF80C508DF80E40049505930B9467
:1017580000F0ECF8C7E700200121104B0DF12C0830
:101768003A460094CDF84A304FF60B730C94ADF816
:101778002C302346CDE9180140F601314046ADF83A
:1017880018100699CDE90D4401F0FCFE21464046AB
:1017980001F0EAFFA7E700BF0402040404060403FB
:1017A8000704010B2DE9F04704462DED028B82B0AA
:1017B80000294DD0012140F2011200230091ADF81B
:1017C80004208DF80630364A0127364B04F1040907
:1017D800354904F12908626040F20272A36040F6BC
:1017E8000663E16004F1250AA4F82520A4F829304D
:1017F800278284F8277084F82B7003F0AFFB054626
:1018080003F010FA6946064650BB4DB304F13000A8
:101818008DF8067003F028FB072D3CD104F1140560
:101828002046FFF739FF284601F0E4F82846B0EED5
:10183800408A01F0CDF8D0ED007AF8EE677A88EEAC
:10184800277A84ED0E7A02B0BDEC028BBDE8F087F2
:1018580040F2011300918DF80610ADF80430B2E79C
:1018680004F1300003F000FB072D11D04946204653
:1018780002F036FC0EB9002DD0D1504601F07EFFA3
:10188800404601F07BFF04F1120000F079F9C5E74A
:10189800002EF2D1C2E74946204602F021FCBDE7FE
:1018A8000508050905070506050A060610B584B0EA
:1018B80003460124ADF8040003A8ADF80C30ADF8D8
:1018C8000E4001F05BFF214603A802F041F82046D4
:1018D80003F0A6F9002103A802F03AF8204603F025
:1018E8009FF9214603A802F033F804B010BD00BFE9
:1018F80010B5C2F3002384B00C46017C8DF80D208E
:1019080043EA4402FA2402238DF80C2003AA009427
:1019180002F034FA18B10124204604B010BD044680
:101928000A2003F07DF9204604B010BD034670B5C7
:1019380043F8042B044684B007C983E80700A37959
:1019480083B91A210B461E22FA2523742046ADF8C6
:101958000C20022303AA009502F010FA28B10120F6
:1019680004B070BD1B210B46EDE70A2003F058F9BF
:101978004FF4B85200950223ADF80C20204603AA74
:10198800217C02F0FBF90028E9D10A2003F048F98C
:1019980041F2027200950223ADF80C20204603AAFA
:1019A800217C02F0EBF90028D9D10A2003F038F99C
:1019B800042200950223ADF80C20204603AA217CBE
:1019C80002F0DCF90028CAD10A2003F029F906221E
:1019D80000950223ADF80C20204603AA217C02F0D2
:1019E800CDF90028BBD10A2003F01AF941F20822E8
:1019F80000950223ADF80C20204603AA217C02F0B2
:101A0800BDF90028ABD10A20064603F009F9009574
:101A1800022303AA217C2046ADF80C6002F0AEF93F
:101A280000289CD1304603F0FBF8009522790C235E
:101A38002046002A8DF80C3003AA4FF0020314BF89
:101A4800622142218DF80D10217C02F097F90028BF
:101A580085D1304603F0E4F82279D4E902310B430A
:101A6800DBB20AB943F0400362790AB143F02003BC
:101A78000E22FA258DF80D302046009502238DF8A8
:101A88000C2003AA217C02F079F900287FF467AFC3
:101A98000A2003F0C5F8102200950223ADF80C20A7
:101AA800204603AA217C02F069F900287FF457AF89
:101AB8000A2003F0B5F8122100950223ADF80C10A6
:101AC80003AA217C204602F059F900287FF447AF89
:101AD8000A2003F0A5F8012209212046FFF708FF94
:101AE800003818BF01203BE7F0B5102387B0234C1E
:101AF800012200250126002702A920460195CDE9EB
:101B080002234FF48052CDE904670AF00BF96420F0
:101B180003F0CAFC02A94FF480522046CDE90467BD
:101B280002261027CDE902670AF0FCF803221023E9
:101B380002A92046CDE9022300230422CDE904238B
:101B48004FF480520AF0EEF840F23223042202A940
:101B5800019310232046CDE90223019A012305921F
:101B68004FF4805204930AF0DDF840F6060120464F
:101B78000AF0F8F8284607B0F0BD00BF5006002468
:101B88001C4B00221C494FF0400C30B5054689B06B
:101B98000220596007219A601A620124DA620A2237
:101BA8004FF4006EDC6006922022CDE9000104208B
:101BB8000821CDE9020103201021CDE90401082004
:101BC8006946C3E904024FF4C072181DC3E906C28E
:101BD8004FF48052C3E909E20AF07AF838B9284686
:101BE800FFF782FF003818BF012009B030BD20463A
:101BF80009B030BD4C06002440410052614A002122
:101C0800D0B513688EB00A91002B40F0B9805E4BB6
:101C180001214FF683700C2411600221D3F8D420DF
:101C28000026032742F48052C3F8D420D3F8D420E6
:101C380002F480520092009AD3F8E02042F0100299
:101C4800C3F8E020D3F8E02002F010020192019AD4
:101C5800D3F8E02042F04002C3F8E020D3F8E020B7
:101C680002F040020292029AD3F8E02042F0080201
:101C7800C3F8E020D3F8E02002F008020392039AA8
:101C8800D3F8E02042F48072C3F8E020D3F8E020D3
:101C980002F480720492049AD3F8E02042F08002A1
:101CA800C3F8E020D3F8E02002F080020592059AFC
:101CB800D3F8E02042F02002C3F8E020D3F8E02077
:101CC80002F020020692069AD3F8E02042F00402BD
:101CD800C3F8E020D3F8E0300C9403F00403079332
:101CE8000323079A0B93CDE9080108A9274805F0B3
:101CF8008DFB48F23712022308A925480C94CDE938
:101D08000823CDE90A6705F081FB4CF20372022330
:101D180008A920480C94CDE90823CDE90A6705F005
:101D280075FB40F2FF62022308A91B480C94CDE919
:101D38000823CDE90A6705F069FB4FF60C72022308
:101D480008A916480C94CDE90823CDE90A6705F0DF
:101D58005DFB4FF63F02022308A911480C94CDE918
:101D68000823CDE90A6705F051FB2022022308A9C0
:101D78000A480C94CDE90A67CDE9082305F046FB2B
:101D88000EB0D0BD48060024004402580010025886
:101D980000180258000C025800200258001C025873
:101DA800001402582DE9F04FDFF8108406460D465E
:101DB800144608F118002DED028B89B000AF02F02F
:101DC80007FED8F8183073B3D8F81C30D8F8049048
:101DD800002B43690BBF4FF0080A4FF0100A4FF071
:101DE800020B4FF0040BB9F1000F2AD0A200EA460B
:101DF800012B02F1070222F00702ADEB020D684643
:101E0800ADEB020D694600F03F81022B00F0D68051
:101E1800002B6FD02246C847D5462437BD46BDECB7
:101E2800028BBDE8F08FD8F81C30002BF5D0D8F81D
:101E380004904FF0080A4FF0020B4369B9F1000F04
:101E4800D4D1FB61D8F80030BB61002BE5D0D54870
:101E580002F030FE6B46BBF1020F786108EE103AD3
:101E6800FB6900F083816A465146A2EBC40295469D
:101E78006200EA46B2FBFBF2AAEBC40085460AEB15
:101E88008200EE46F861ADEB010DF8690EEB820CAD
:101E9800C7F810C0EC46ADEB010D00EB8201CCF8A1
:101EA8000400CCF8081001EB82013869E946CCF847
:101EB8000C1000EB8201CCF800A001EB8202C9E90A
:101EC80000E0C9E90212012B00F06483022B00F044
:101ED8006C82002B00F08081620849466046BB692D
:101EE800984718EE103A24379D46BD46BDEC028B44
:101EF800BDE8F08F002C8DD01A46D8ED0C6A9FED06
:101F0800B27A8446331D36F922E00CF1080C07EE4C
:101F180090EA33F922E00232F8EEE77A944267EE6B
:101F2800877A67EEA67A4CED027A07EE90EAF8EE29
:101F3800E77A67EE877A67EEA67A4CED017AE2D8FF
:101F4800F9612246C847984ED8ED0D6A0020F96914
:101F58002B1D9FED9E7A9FED9E6ADFED9E5A22E033
:101F6800F4EEC67AF1EE10FAC0F2C88447F6FE72B3
:101F7800D1ED017A45F8202066EEA77AF4EEC77A0B
:101F8800F1EE10FA40F2F080F4EEC67AF1EE10FAB3
:101F9800C0F2D58447F6FE7243F82020023008319B
:101FA80084427FF639AFD1ED007A66EEA77AF4EE77
:101FB800C77AF1EE10FAD3D83246D9E7002C3FF4AD
:101FC80029AFD8ED0C6A84469FED787A0022331D3C
:101FD8008E4656F822100CF1080C07EE901A53F8AA
:101FE80022100232F8EEE77A944267EE877A67EEBB
:101FF800A67A4CED027A07EE901AF8EEE77A67EEC9
:10200800877A67EEA67A4CED017AE2D871462246C5
:10201800C7F81CE0C847664ED8ED0D6A0020F9697C
:102028002B1D9FED6A7A9FED6A6ADFF894C120E064
:10203800F4EEC67AF1EE10FAC0F279843246D1EDA8
:10204800017A45F8202066EEA77AF4EEC77AF1EE19
:1020580010FA40F28780F4EEC67AF1EE10FAC0F278
:102068005E84324643F820200230083184427FF6ED
:10207800D3AED1ED007A66EEA77AF4EEC77AF1EE28
:1020880010FAD5D86246DAE7002C3FF4C3AED8ED93
:102098000C6A86469FED477A4FF0000C331D56F8C0
:1020A8002C200EF1080E82F40002A2F5000207EEC1
:1020B800902A53F82C200CF1020CF8EEE77A82F4FF
:1020C80000026445A2F5000267EE877A67EEA67AF9
:1020D8004EED027A07EE902AF8EEE77A67EE877AF5
:1020E80067EEA67A4EED017AD9D8F9612246C8473B
:1020F800314ED8ED0D6A0020F9692B1D9FED337A1A
:102108009FED336ADFF8BCC01FE0F4EEC67AF1EE4B
:1021180010FAC0F2FC833246D1ED017A45F820204E
:1021280066EEA77AF4EEC77AF1EE10FA18D9F4EE53
:10213800C67AF1EE10FAC0F2DA83324643F820206C
:102148000230083184427FF667AED1ED007A66EE40
:10215800A77AF4EEC77AF1EE10FAD6D86246DBE732
:102168006246EBE762467DE7324615E7A100D646B0
:102178006208073121F00701ADEB010DEA46ADEB2E
:10218800010D6946ADEB0E0D0AEB8200EC46ADEB96
:102198000E0D01EB8202F861E946CCE900A0C9E91D
:1021A800001290E6A00600240280FFFF0000003025
:1021B8000082FF7F0000003482FF7F008406002435
:1021C800007E00807E0080FF0000003804FF7FBF93
:1021D80004FF7F3F00FEFF46002C00F0C982BBF1E0
:1021E800020FD8F8242000F0FA827969C7F8049021
:1021F80002EB810E5FED0C5A8A00DCF808100EF134
:1022080004007A611A46DCF80C303B61331DD7F8BC
:1022180010903D61FD69C7E902CB8C46834636F9CB
:102228002210D8ED0C7A06EE101A33F9221006EEB9
:10223800901A3EF92210B8EEC66A07EE101AF8EEA8
:10224800E66A3BF92210B8EEC77A26EE256A66EEF2
:10225800A56A27EE257A26EE276A66EEA76A27EE94
:10226800277A07EE901A51080232F8EEE77A0AEB5D
:102278008100944280ED006A05EB810067EEA57A43
:10228800C0ED006A0CEB810009EB810180ED007A5A
:1022980098ED0C7A67EE877AC1ED007ABFD8D7F847
:1022A80004903D69D7E902CB60466208BB6949469C
:1022B8009847D8F82C307A69D8ED0D6A1A441FED82
:1022C8003D7A1FED3D6A2B1D904602F1040A5FED31
:1022D8003F5A0022A84ED9E900EC51E0F4EEC67A44
:1022E800F1EE10FAC0F2C78247F6FE7045F82200F8
:1022F8000CEB0100D0ED007A66EEA77AF4EEC77A0F
:10230800F1EE10FA4BD9F4EEC67AF1EE10FAC0F2FB
:10231800BA8247F6FE70BBF1020F43F822002BD0B9
:10232800D9F808000844D0ED007A66EEA77AF4EEF2
:10233800C77AF1EE10FA36D9F4EEC67AF1EE10FA51
:10234800C0F2CD8247F6FE7048F82200D9F80C009A
:102358000144D1ED007A66EEA77AF4EEC77AF1EE81
:1023680010FA1ED9F4EEC67AF1EE10FAC0F2AF8276
:1023780047F6FE714AF82210023294427FF6B1AD58
:1023880051080EEB81008900D0ED007A66EEA77A3D
:10239800F4EEC77AF1EE10FAA0D83046A6E7304638
:1023A800B9E73146E6E73046CEE7002C00F0E08199
:1023B800BBF1020FD8F8243000F0E1817A69DCF82B
:1023C800081003EB820EC7F804909300DFED6B5AF8
:1023D8000EF1040000227B61DCF80C303B61331DF8
:1023E800D7F810903D61FD69C7E902CB8C4683465A
:1023F80056F82210D8ED0C7A07EE101A53F822106E
:10240800B8EEC76A07EE101A5EF82210F8EEC76A2F
:1024180007EE101A26EE256A5BF82210B8EEC77A86
:1024280066EEA56A26EE276A27EE257A66EEA76A83
:1024380027EE277A07EE901A51080232F8EEE77A6B
:102448000AEB8100944280ED006A05EB810067EE9B
:10245800A57AC0ED006A0CEB810009EB810180EDE3
:10246800007A98ED0C7A67EE877AC1ED007ABFD8CA
:10247800D7F804903D69D7E902CB60466208BB698A
:1024880049469847D8F82C307A69D8ED0D6A1A442D
:102498009FED3E7A9FED3E6A131D9246DFF8E4C039
:1024A8000022FB612B1D364ED9E9008E4EE0F4EE7A
:1024B800C67AF1EE10FAC0F2FC81304645F82200E7
:1024C8000EEB0100D0ED007A66EEA77AF4EEC77A3B
:1024D800F1EE10FA49D9F4EEC67AF1EE10FAC0F22C
:1024E800EF813046BBF1020F43F822002AD0D9F819
:1024F80008000844D0ED007A66EEA77AF4EEC77AB1
:10250800F1EE10FA35D9F4EEC67AF1EE10FAC0F20F
:10251800C98130464AF82200D9F80C000144D1EDAF
:10252800007A66EEA77AF4EEC77AF1EE10FA1ED9B1
:10253800F4EEC67AF1EE10FAC0F2AD813146F869D0
:1025480040F82210023294427FF6CBAC510808EBD7
:1025580081008900D0ED007A66EEA77AF4EEC77A9A
:10256800F1EE10FAA3D86046A8E76046BAE76146DC
:10257800E5E76046CEE700BF0280FFFF00000030BD
:102588000082FF7F007E00800000003404FF7FBFD0
:1025980004FF7F3F002C00F0EB807A690021D8F817
:1025A8002430C7F8109003EB820ED7F81C909300E4
:1025B800FD610EF104021FED0C6A7B61331D1546A7
:1025C80056F821204808D8ED0C6ABBF1020F82F4B6
:1025D8000002A2F5000207EE902A53F8212082F4A7
:1025E8000002B8EEE77AA2F5000227EE067A07EEB7
:1025F800902A0AEB8002F8EEE77A27EE267A67EE51
:10260800867A82ED007A09EB80024FEA800067EE55
:10261800A67AC2ED007A27D05EF8212082F4000263
:10262800A2F5000207EE902A55F8212082F4000254
:10263800B8EEE77AA2F5000227EE067A07EE902AAE
:10264800DCF80820F8EEE77A024427EE267A67EEEF
:10265800867A82ED007A98ED0C7ADCF80C2067EE29
:10266800877A0244C2ED007A02318C42A8D8D7F8A2
:10267800109060466208BB694946FD699847D8F8DA
:102688002C307A69D8ED0D6A1A441FED407A1FED97
:10269800406A131D9246DFF8C4C20022FB612B1D5D
:1026A800AB4ED9E9008E4EE0F4EEC67AF1EE10FAA0
:1026B800C0F2C580304645F822000EEB0100D0ED8F
:1026C800007A66EEA77AF4EEC77AF1EE10FA49D9E5
:1026D800F4EEC67AF1EE10FAC0F2BF803046BBF1D4
:1026E800020F43F822002AD0D9F808000844D0ED98
:1026F800007A66EEA77AF4EEC77AF1EE10FA35D9C9
:10270800F4EEC67AF1EE10FAC0F2AE8030464AF81E
:102718002200D9F80C000144D1ED007A66EEA77AC0
:10272800F4EEC77AF1EE10FA1ED9F4EEC67AF1EE9D
:1027380010FAC0F28B803146F86940F82210023254
:1027480094427FF6CEAB510808EB81008900D0EDAA
:10275800007A66EEA77AF4EEC77AF1EE10FAA3D8FB
:102768006046A8E76046BAE76146E5E76046CEE717
:10277800224649466046BB699847FFF7B2BBC7F88F
:1027880010B0002298ED0C6A331DDFED726AD7F89D
:102798001CB0786956F8221007EE901A53F82210E8
:1027A800B8EEE77A07EE901A51080232F8EEE77AA7
:1027B80027EE267A0AEB810E94420BEB810167EE35
:1027C800A67A27EE067A67EE867A8EED007AC1ED54
:1027D800007ADFD88300D7F810B07B614DE61A463F
:1027E800C7F810B098ED0C6A331DDFED5B6AD7F8B7
:1027F8001CB0786936F9221007EE101A33F9221046
:1028080007EE901AB8EEC77A51080232F8EEE77A66
:1028180027EE267A0AEB810E94420BEB810167EED4
:10282800A67A27EE067A67EE867A8EED007AC1EDF3
:10283800007ADFD88300D7F810B07B6134E5F0EE7A
:10284800675AFEEEE45A15EE900A34E7F0EE675A3E
:10285800FEEEE45A15EE901A6EE7F0EE675AFEEEB9
:10286800E45A15EE900A3AE7F0EE675AFEEEE45A9B
:1028780015EE900A4BE767EEA57AFDEEE77A17EEBC
:10288800900A00B232E567EEA57AFDEEE77A17EE18
:10289800900A00B23FE5F0EE675AFEEEE05A15EEF8
:1028A800901A4CE6F0EE675AFEEEE05A15EE900AE2
:1028B80030E6F0EE675AFEEEE05A15EE900AFDE5B6
:1028C800F0EE675AFEEEE05A15EE900A0AE667EE59
:1028D800A57AFDEEE77A17EE901A09B24AE567EE97
:1028E800A57AFDEEE77A17EE900A00B22CE5F0EE35
:1028F800675AFEEEE45A15EE902A1FE467EEA57AB1
:10290800FDEEE77A17EE902A12B2FFF731BBF0EE30
:10291800675AFEEEE45A15EE902AFFF7FDBBF0EE7B
:10292800675AFEEEE05A15EE902AFFF79BBBF0EED1
:10293800675AFEEEE05A15EE902AFFF780BB67EE65
:10294800A57AFDEEE77A17EE902A12B2FFF724BBBC
:1029580082FF7F0000000030000000387E0080FF0A
:1029680030B5184C154685B0046004F1080EEC46E5
:102978000FC98EE80F00D4ED047AF5EEC07A8CE822
:102988000F00F1EE10FA1ADDB7EE006A94ED057A41
:1029980027EE277AC6EE276A84ED0D7AC4ED0C6A15
:1029A8006DB1204640F8185F02F012F80649036935
:1029B8000020064A2162A262E36005B030BD012012
:1029C80005B030BD8406002400200030000000302F
:1029D80000680830704700BFB1F5807F03680A4679
:1029E80028BF4FF48072B1F5807F9A6094BF0020B1
:1029F800012070470068183002F04AB870B50468C2
:102A08008AB0A369E160CBB104F11805284601F04A
:102A1800DFFF8446EE46E668BCE80F00AEE80F002C
:102A2800BCE80F00AEE80F009CE803008EE8030046
:102A380069462846049601F0D3FEF8B9E069D8B192
:102A480004F11C05284601F0C3FF8446EE46E468FD
:102A5800BCE80F00AEE80F00BCE80F00AEE80F00BE
:102A68009CE803008EE8030069462846049401F0B8
:102A7800B7FE003818BF01200AB070BD01200AB0A7
:102A880070BD00BF30B5046883B00D46E3694BB133
:102A9800A3680020E26A616A9B00009004F11C00B0
:102AA80001F098FFA3680748A26A9B00216A00907A
:102AB80004F1180001F08EFF0020C4E9005003B0B3
:102AC80030BD00BFAD1D000810B4074B4FF07E515C
:102AD80030240022032019619C60D8605DF8044B03
:102AE8005961C3E90622704784060024704700BF75
:102AF800064A0749074808B50FF004FB034A04498A
:102B08000548BDE808400FF0FDBA00BF00000024EA
:102B1800F52A0008BC060024C006002470B5044647
:102B280082B0C1F30726CDB2ADF8041002F076F8F2
:102B38004FF480724FF001232060A01DA571A28080
:102B4800E671A36002B0BDE8704000F017BE00BF98
:102B5800014805F063BD00BF18130024014805F0C3
:102B68005DBD00BF18130024014805F057BD00BF24
:102B78001813002400B583B04FF0000E4FF0030C7B
:102B88004274ADF80410BDF8043080F810E0A0F8E5
:102B980002C0038003B05DF804FB00BF00B583B03A
:102BA800082AADF804104FF00301ADF80030418059
:102BB800BDF800C0BDF81010BDF804E0A0F804C0CE
:102BC80001811146BDF814C028BF0821042A9DF8C8
:102BD8001830A0F800E0A0F80CC0017408D8022A48
:102BE8000ED801D10122C280437403B05DF804FB02
:102BF80001224374C2804281C28103B05DF804FBA4
:102C080001224374C280428103B05DF804FB00BF17
:102C18002DE9F04FDFF81C8300258DB0C04C037000
:102C280008F140034260074601920E4620222946D9
:102C38004046C4F86831C4F86481CDE90255CDE94D
:102C48000455CDE90655CDE90855CDE90A550FF0EB
:102C580089FD2022294604F5A170C4F83151C4F831
:102C68003551C4F83951C4F83D510FF07BFD019B33
:102C780084F8485284F830317A68002A6AD02B46A2
:102C880004F59871454606F1100A9E46F01856F864
:102C980003B0E2180EF1010ED0F80CC0D0F8049081
:102CA800D0F8088044F803B0C2F80CC04FF0000C0C
:102CB800C2F80490C2F80880008A25F802CB108276
:102CC8001AF8032001F8012F002A70D07A684FF013
:102CD80001001233724584F84802D7D84FF4802295
:102CE80090489DF8043008214FF000084FF0000983
:102CF800C4F884310023C4E95B020122C4F87431AA
:102D080084F88031C4E95E2194F84812C4E96489E2
:102D1800A9B3C4F89821002284F8813184F8883155
:102D28003B78C4E96722002B38D00122002001211A
:102D3800013B84F8A421C4E96C01082B30D8DFE8F2
:102D480013F0BD00C200C700CC00D100D600DB00E4
:102D5800E100E8009DF804300121C4F87421C4F8AA
:102D680084314FF4802384F880216E4AC4E95B23C0
:102D780008230022C4E95E130023C4E96423012365
:102D8800002284F88131002384F888310323C4F8B1
:102D980098313B78C4E96722002BC6D184F8A43166
:102DA800614802F0B9FF034638B1FFBEFEE77A6812
:102DB800123372453FF66AAF90E702A95A48029368
:102DC80003F008F98246002876D1042240F2FF7108
:102DD8000A90CDE9081294F83021002A00F0F38017
:102DE8004FF006080AEBCA034FEACA0904EB43038B
:102DF8005B7C072B07D8DFE803F0595C5653504D2E
:102E08004A04072307930FFA8AF6D14406EBC6064D
:102E180004EB490904EB46077500384600F0AEFCA0
:102E280099F81030042B00F3AA80022B00F3BD8020
:102E380000F0B98004EB0A03002283F8202114F87B
:102E48001630002B78D0022B00F08A80012B40F03E
:102E5800B2807B78012B00F0B080002B334B18BF79
:102E6800002305A93048CDE9053802F081FB002888
:102E780040F0AC800AF1010A94F830315FFA8AFA1E
:102E8800534540F2A0802A4B53F82A80AAE706232C
:102E98000793B8E705230793B5E704230793B2E739
:102EA80003230793AFE702230793ACE700230793B5
:102EB800A9E701230793A6E7FFBEFEE70322402305
:102EC800C4E96A236CE707226023C4E96A2367E739
:102ED8000F228023C4E96A2362E71F22A023C4E9E2
:102EE8006A235DE73F22C023C4E96A2358E77F22AB
:102EF800E023C4E96A2353E7FF224FF48073C4E94F
:102F08006A234DE740F2FF124FF49073C4E96A2335
:102F180046E740F2FF324FF4A073C4E96A233FE763
:102F2800C806002400200240340800240002B0250E
:102F3800D0270108004000307B78062B37D0072BBC
:102F48003DD0022B4AD0032B4AD0002B4CD0012B6A
:102F580048D0042B4AD0052B254B18BF002380E707
:102F68007B78042B25D0052B2BD08BB3012B31D0AC
:102F7800022B31D0032B1F4B18BF002371E703230B
:102F8800043504EB0A0B4FF0000925448BF8203177
:102F9800284609F1010900F0F1FB9BF820310435BE
:102FA8004B45F5DC4BE70123EAE70223E8E7124B40
:102FB80057E7124B55E7002353E7114B51E7114BE5
:102FC8004FE7114B4DE70DB0BDE8F08FFFBEFEE7B0
:102FD8000E4B46E70E4B44E70E4B42E70E4B40E7DD
:102FE8000E4B3EE70E4B3CE70E4B3AE70E4B38E7ED
:102FF8000000B84F002090360800900C1000C01058
:103008002000F0148000501D000180210004002AD7
:103018000008302E001060320040C03A0080F03EB8
:1030280000005247000021430000844B38B5094C8A
:1030380040F2FF724FF0011104F5B675284602F010
:1030480077FF94F83021D4F864112846BDE8384059
:1030580002F0E2BCC8060024064B0F29D3F86431FD
:1030680098BF03EB41031B8800EE103ABBEEC80A79
:10307800704700BFC8060024064B0F29D3F86831F3
:1030880098BF03EB011333F8123000EE103ABBEE91
:10309800C80A7047C8060024214B02689A4200D02B
:1030A8007047204A00232048D2F8D81030B51F4C6A
:1030B80041F0200183B0C4F8D001092004F5E87577
:1030C800C4E975034FF48060C2F8D810D2F8D8204C
:1030D8004FF40061C4E9773094F8480202F0200206
:1030E800C4F8E4114FF40051984201922846C4F8FC
:1030F800E811C4E97C33019B14BF00234FF48073AB
:10310800C4F8EC3103F0B8FA08B1FFBEFEE704F5E5
:10311800B673C4F8B851C4F8083203B030BD00BF64
:10312800002002400044025840000240C806002423
:10313800014803F019BE00BF9808002402682DE971
:10314800F84F4B4B9A4201D0BDE8F88F494D95F89E
:103158004832002BF8D095F83031002B77D0002476
:1031680005F10C0905F5A17605F59877A04613E059
:1031780003F0010117F811BCA9F1080000F0E8FB01
:10318800BBF1010F25D895F83031013409F1120946
:103198000236A2B293422BD917F8012F002AF4D095
:1031A800D5F864310021327833F81400D5F8683145
:1031B80003EB041323F81200338801339BB23380E6
:1031C8005FFA83FA3A789A42D2D88A46A6F80080FB
:1031D800D0E7CAF34001A9F1040000F0B9FBBBF144
:1031E800020FCAF38001CED0484600F0B1FBCAE70F
:1031F800002395F84802204909229842C5F8D83199
:103208004FF48060C5F8D011C5F8D4214FF400619F
:103218004FF40052C5F8DC3108BF4FF48073C5F88D
:10322800E821C5E9780100221448C5E97B32C5F8D0
:10323800F42103F021FA08B1FFBEFEE795F830212A
:10324800D5F864110E48BDE8F84F02F0E5BB0A490D
:1032580009224FF48060C5F8D831C5E974124FF4DB
:1032680000614FF40052C5E97730C5E97912DAE711
:1032780000200240C80600244000024098080024AC
:1032880034080024704700BF4F4B02689A4200D0B0
:1032980070474E4BD3F8E81030B541F000514C4C14
:1032A80085B0D4F84821C3F8E810D3F8E81001F045
:1032B800005101910199D3F8E01041F00101C3F8E0
:1032C800E010D3F8E03003F001030293029B32F0E0
:1032D80002033DD0013A012A6BD9D4F84C31012BB5
:1032E8000AD000223620114602F0E8FE362005B04A
:1032F800BDE8304002F020BFD4F8483133F0020274
:1033080034D0013B012BECD8442240233149324DC3
:10331800C4F88C1000212846C4F8B010C4E924234E
:1033280000224FF48063C4E926234FF400624FF46F
:103338000053C4E928234FF480724FF48033C4E962
:103348002A2303F099F980B9E560C4F8C440C8E7B6
:103358004FF48062032303A8ADF80C208DF80E30DB
:1033680000F00CFAD4F84821B4E7FEE71B4BA2633F
:103378004322636140231A4DC4E9062300224FF417
:1033880080632846C4E908234FF400624FF40053D1
:10339800C4E90A234FF480724FF48033C4E90C2344
:1033A80003F06AF920B9D4F84831A560E464A8E7C5
:1033B800FEE74FF4A062032303A8ADF80C208DF8B4
:1033C8000E3000F0DBF988E7007400400044025832
:1033D8001809002428040240A4090024100402400B
:1033E8002C090024014803F0BFBC00BF2C090024AD
:1033F800014803F0B9BC00BFA409002410B5054C6E
:10340800204602F085FF04F58270BDE8104008F000
:1034180057BE00BF1809002430B58C463A4C3B4DC6
:103428008DB0046004F5A27EBCE80F00AEE80F0082
:10343800DCF8003020462560CEF8003002F00AFFA4
:103448000023D4F84C510393C5B11622012D0492E0
:1034580017D00022D4F85411D4F848319142CDE95C
:10346800062218BF0222059233F0020235D0013B32
:10347800012B3CD9002528460DB030BD022304930A
:10348800E7E7234A0093C4F80C31C4F81431C4F8B0
:103498000421C4F81C31CDE9013301F05DFDD4F8F5
:1034A80044314BF68032C4F80851002B08BF13464C
:1034B800B0FBF3F304F58270C4F8103108F06AFC2D
:1034C8000028D8D120230290694604F58270009321
:1034D80008F0AEFE0028BCD0CDE703A90A4802F0E8
:1034E8004BFF78B9D4F84831013B012BC2D81022E0
:1034F80003A9054802F040FF051E18BF012528460C
:103508000DB030BD0125B6E718090024007400404D
:10351800001000402DE9F0410668D6F84C5105BB73
:10352800D6F850310C461746002B0CBF4FF0080850
:103538004FF0000831F0020305D0013C012C14D9EA
:103548002846BDE8F0811346294642463046013CEC
:1035580002F0C4FE2946304602F092FE012CEFD854
:1035680003E001252846BDE8F0813B46424610218C
:10357800304602F0B3FE1021304602F081FE2846A4
:10358800BDE8F08110B592B0ADF804100180C9B261
:10359800149C0B29C460C0E901233FD090F801C0F6
:1035A800BCF10F0F3AD8022A3FD0032A02D0012AD1
:1035B80000D000220E92012B02D0022B18BF00234C
:1035C800022C0F932CD0032C2AD0012C28D00023B6
:1035D8000A29109327D85C4A02EB812202610A2942
:1035E80014D8DFE801F0A39587796B5D4F41332547
:1035F8000600564BD3F8E01041F48061C3F8E010A0
:10360800D3F8E03003F480630C930C9B01230DA9DD
:10361800104603FA0CF30D9303F0F8FE12B010BD38
:103628000A291094D7D90022D8E711220E92C2E7AE
:10363800464BD3F8E01041F40071C3F8E010D3F81A
:10364800E03003F400730B930B9BDFE73F4BD3F899
:10365800E01041F48071C3F8E010D3F8E03003F4CF
:1036680080730A930A9BD1E7384BD3F8E01041F0F6
:103678008001C3F8E010D3F8E03003F08003099329
:10368800099BC3E7314BD3F8E01041F04001C3F880
:10369800E010D3F8E03003F040030893089BB5E747
:1036A8002A4BD3F8E01041F02001C3F8E010D3F81A
:1036B800E03003F020030793079BA7E7234BD3F8D9
:1036C800E01041F01001C3F8E010D3F8E03003F047
:1036D80010030693069B99E71C4BD3F8E01041F0C2
:1036E8000801C3F8E010D3F8E03003F008030593AD
:1036F800059B8BE7154BD3F8E01041F00401C3F8A4
:10370800E010D3F8E03003F004030493049B7DE752
:103718000E4BD3F8E01041F00201C3F8E010D3F8E3
:10372800E03003F002030393039B6FE7074BD3F8E2
:10373800E01041F00101C3F8E010D3F8E03003F0E5
:1037480001030293029B61E70000025800440258FB
:1037580008B5012143780069994089B204F05EF800
:10376800003818BF012008BD01230A4641780069C6
:1037780003FA01F189B204F057B800BF8378022B2D
:1037880030B504468FB037D0032B33D0012B31D05E
:1037980000230A93E378012B2AD0022B28D0002398
:1037A8000B93002320460C9301F05CFD0546204650
:1037B80001F060FD23780990082B13D8DFE803F0A7
:1037C8001F3245586B7E91A40500594BD3F8E02071
:1037D80042F48072C3F8E020D3F8E03003F4807339
:1037E8000893089B09A9284603F010FE0FB030BDC6
:1037F8000B93D6E70A93CDE711230A93CAE74C4BFC
:1038080009A92846D3F8E02042F00102C3F8E020D5
:10381800D3F8E03003F001030093009B03F0F6FDBA
:103828000FB030BD424B09A92846D3F8E02042F03A
:103838000202C3F8E020D3F8E03003F0020301935A
:10384800019B03F0E3FD0FB030BD394B09A92846B1
:10385800D3F8E02042F00402C3F8E020D3F8E030C7
:1038680003F004030293029B03F0D0FD0FB030BDB8
:103878002F4B09A92846D3F8E02042F00802C3F8E4
:10388800E020D3F8E03003F008030393039B03F030
:10389800BDFD0FB030BD264B09A92846D3F8E0205E
:1038A80042F01002C3F8E020D3F8E03003F0100330
:1038B8000493049B03F0AAFD0FB030BD1C4B09A96B
:1038C8002846D3F8E02042F02002C3F8E020D3F8DD
:1038D800E03003F020030593059B03F097FD0FB03C
:1038E80030BD134B09A92846D3F8E02042F0400226
:1038F800C3F8E020D3F8E03003F040030693069BBA
:1039080003F084FD0FB030BD094B09A92846D3F850
:10391800E02042F08002C3F8E020D3F8E03003F062
:1039280080030793079B03F071FD0FB030BD00BF04
:103938000044025838B5054601F094FC0446284670
:1039480001F098FC01462046BDE8384003F066BF08
:1039580070B506460D4601F085FC0446304601F078
:1039680089FC2A1E0146204618BF0122BDE8704086
:1039780003F05ABF0023122270B586B0CDE90223A6
:1039880004930368032B01D804230593061D841DA3
:10399800304601F067FC0546304601F06BFC0346F3
:1039A80001A92846019303F031FD204601F05AFC95
:1039B800034620461C4601F05DFC01A9034620464B
:1039C800019303F023FD06B070BD00BF634A03688E
:1039D800934210B58CB028D0614A934258D0614ABE
:1039E800934200F09480604A934201D00CB010BD1D
:1039F8005E4C5F48D4F8E03043F00203C4F8E0308E
:103A0800D4F8E03003F002030A930A9BFFF7B2FFF1
:103A1800D4F8F43043F08003C4F8F430D4F8F43028
:103A280003F080030B930B9BE0E7504C5148D4F80C
:103A3800E03043F00203C4F8E030D4F8E03003F09B
:103A480002030193019BFFF795FFD4F8E8300022A9
:103A58001F2043F400131146C4F8E830D4F8E830C6
:103A680003F400130293029BD4F8D83043F0010307
:103A7800C4F8D830D4F8D83003F001030393039B7B
:103A880002F01CFB1F200CB0BDE8104002F054BB34
:103A9800364C3948D4F8E03043F08003C4F8E030BD
:103AA800D4F8E03003F080030493049BD4F8E030AA
:103AB80043F00203C4F8E030D4F8E03003F0020326
:103AC8000593059BFFF756FFD4F8E8300022212024
:103AD80043F480031146C4F8E830D4F8E83003F41E
:103AE80080030693069BD4F8D83043F00103C4F84A
:103AF800D830D4F8D83003F001030793079B02F0BD
:103B0800DDFA21200CB0BDE8104002F015BB1B48BF
:103B1800FFF730FF154B00224820D3F8E840114644
:103B280044F40004C3F8E840D3F8E84004F400047F
:103B38000894089CD3F8D84044F00104C3F8D8404E
:103B4800D3F8D83003F001030993099B02F0B6FAC1
:103B580048200CB0BDE8104002F0EEBA0054004016
:103B680000580040005C0040001C00580044025807
:103B78000C0D0024840A00245C0B0024340C00245F
:103B88002DE9F0431A4B87B000254FF010099E46E7
:103B9800EC46184BFF22E04667461A700EF11806ED
:103BA8000EF13004CDE90055CDE90255ADF800908D
:103BB800BCE80F00CDE90455AEE80F009CE803000F
:103BC8000095ADF800908EE80300B8E80F000FC626
:103BD8009CE803000095ADF8009086E803000FCF3D
:103BE8000FC49CE8030084E8030007B0BDE8F08335
:103BF8000C000024800A002410B5EFF3108472B67C
:103C0800084B1A78120602D504B962B610BD1B78A3
:103C1800D82205485BB202FB0300143003F0A4F875
:103C2800F2E700BF800A0024840A0024014804F057
:103C380093BC00BF100B0024014804F08DBC00BFEA
:103C4800E80B0024014804F087BC00BFC00C002426
:103C58002DE9F0430F68D8243F4D85B007FB04F4E5
:103C6800032F05EB0403036040DCCB680E46012BF1
:103C78003CD84DD04FF0D808B646DFF8FC9008FB8A
:103C88000758BEE80F00C446ACE80F00DEF8003065
:103C98000DF1100ECCF80030D8F808C099E80F00E4
:103CA8000EE90F000EEB8703BCF1010F53F8103C2F
:103CB800C8F88C3031D0BCF1020F42D0BCF1000FF3
:103CC80035D0317C8C34D823002201202C4403FBCE
:103CD80007534900C3E92602C3F894102046C3E9F4
:103CE8002822C3E92A2204F029FA18B1012005B0D4
:103CF800BDE8F0830146204604F03AFC0028F5D1DF
:103D08000146204604F05EFC003818BF0120EEE7AB
:103D18000B7C103B672BADD9E8E701F01BF90F4B83
:103D280098420CBF0E4B0F4BC8F89030C9E701F012
:103D380011F90A4B98420CBF0B4B0C4BC8F890304A
:103D4800BFE701F007F9054B98420CBF084B094B38
:103D5800C8F89030B5E700BF840A0024000E270792
:103D68002D0FB0303211D0205F4390608A62E0306E
:103D7800200BA0101A0980107C2701082DE9F041BA
:103D8800D0F8008082B00D4617461E4608F18C0414
:103D9800204604F0E9FB2028FAD1D8F80C3073B992
:103DA8006D002046089C33463A46A9B2009404F0B8
:103DB8001BFA003818BF012002B0BDE8F081089B4B
:103DC80032463946204604F0E3FAF2E7044B102263
:103DD8001A7483F8E82083F8C02183F89822704782
:103DE800840A002430B5002395B04FF48071062270
:103DF80004460B9306921393CDE90C13CDE90E33C9
:103E0800CDE9113301F0AAF807282BD004F11005E9
:103E180041F2883206A9284605F0E6F928B10123BF
:103E2800184684F85C3015B030BD0222022306A97A
:103E38002846CDE9002310220123CDE902230022E0
:103E48004FF48003CDE9042305224FF080730692D6
:103E58006A460F9341F2883305F032FB0028DED121
:103E680015B030BD0323012084F85C3015B030BD97
:103E780070B50023A4B04FF080724FF480750446EB
:103E8800ADF806300D93CDE910320122CDE90E537D
:103E9800CDE91223CDE91433002943D0F02300F1F2
:103EA800100508AEADF80630C02341F2883231461D
:103EB8002846089305F098F928B10123184684F894
:103EC8005C3024B070BD41F288320DF106012846FD
:103ED80005F0F4F903460028EFD105224FF480716C
:103EE8001E93284616924FF080721B9321931F92BF
:103EF80002AA9FED1F7BCDE91C13CDE922338DED7E
:103F0800027B9FED1D7B41F2883316A98DED047B62
:103F18009FED1B7B8DED067B05F0D2FA0028CCD1F6
:103F280024B070BD00F1100508AE612341F288325B
:103F380031462846089305F057F90028BDD141F2CB
:103F480088320DF10601284605F036FA0028B4D16A
:103F5800BDF80630204623F0780343F04003ADF85F
:103F68000630FFF73FFF00289ED0A6E7AFF300809A
:103F78000000000001000000100000000100000027
:103F880000000000000040002DE9F04F00234FF42E
:103F9800807501264FF0807804462DED028BABB07A
:103FA8008DF8073013932193299314950E96CDF825
:103FB8005C80CDE91533CDE91863CDE91A33CDE935
:103FC8002253CDE92433CDE9273306231C9300F08F
:103FD800C5FF072808D004F1100741F288321CA950
:103FE800384605F001F940B10123184684F85C30E1
:103FF8002BB0BDEC028BBDE8F08F4FF0020A4FF0FA
:10400800020B4FF0050941F2883308AA1CA938466B
:10401800CDF89480CDF870909FED2D8BCDE908AB4D
:104028004FF0000A4FF4800B8DED0A8BCDE90CABF5
:1040380005F046FA0028D7D141F2883238460EA951
:1040480005F0D2F80028CFD1402341F288320DF193
:10405800070138468DF8073005F030F90028C3D13C
:1040680041F288330EA902AA3846CDF83890CDF827
:104078005C809FED197B8DED048BCDE906AB8DED52
:10408800027B05F01DFA03460028ADD1CDF87090EB
:104098004FF00109CDF894804FF00008219308AA49
:1040A80029931CA938462295CDE92333CDE9273336
:1040B80041F288338DED0A8BCDE90CABCDE9088947
:1040C80005F0FEF9002893D0304684F85C608FE74D
:1040D8001000000001000000400000004000000047
:1040E8002DE9F043624CA3B00D46046000F036FFA2
:1040F800072800F0A980286823466968AA6807C3CA
:104108001E46AB8926F8043B3046257B677B05F0C5
:104118004DF8E0B9574B012D4FF00108E0612361DC
:1041280014BF4FF480134FF40003C4E9058893FAD1
:10413800A3F3B3FA83F34FF48079013BC4F82490D6
:10414800C4E90B003046236204F0C4FF38B10122F1
:10415800134684F85C20184623B0BDE8F083662334
:104168000B90139041F2883206A90693CDE90C9082
:10417800CDE90E00CDE91100304605F035F80028EC
:10418800E5D1992341F2883206A93046069305F015
:104198002BF80028DBD105231C9019906A4614934C
:1041A8004FF08073219014A91D9341F288339FED3D
:1041B8002A7BCDE91A90CDE91F008DED007B9FED9C
:1041C800287B30468DED027B9FED277B8DED047BB0
:1041D80005F076F90028BAD129462046FFF748FEAF
:1041E8000028B4D12046FFF7CFFE03460028AED101
:1041F800002FB0D1189330460027002606AA14A92C
:10420800CDF86890CDE91F33EB2314934FF4406346
:104218001B934FF4005317934FF440431C93A02370
:104228001693062319934FF0805321934FF0407350
:10423800CDE906671D9305F0BBF9034600288AD02F
:10424800434684F85C8086E701230322184684F8F5
:104258005C2023B0BDE8F0830000000001000000EE
:1042680010000000010000000000000000004000F5
:10427800E40D0024005000522DE9F04F8FB0414B5F
:104288000024026800AF9A427C63C7E90944C7E981
:104298000B4403D03C37BD46BDE8F08F3A4B40F69F
:1042A80009213A48EB46D3F8D42007F11C0607F158
:1042B800220A4FF0020942F480424FF00308C3F883
:1042C800D420D3F8D42002F48042BA60BA68D3F874
:1042D800E02042F04002C3F8E020D3F8E02002F0EA
:1042E8004002FA60FA68D3F8E02042F02002C3F8EE
:1042F800E020D3F8E02002F020023A613A69D3F8CE
:10430800E02042F01002C3F8E020D3F8E02002F0E9
:1043180010027A617A69D3F8E02042F00202C3F809
:10432800E020D3F8E030F86103F002033984BB6180
:10433800174B7B60BB697B6853F8040F7B6000F008
:1043480091FF7B680546186800F094FF16F8013B5A
:10435800786207F124012846C7F830807B63C7E9F3
:104368000A9403F053F85645E5D100225C20114623
:1043780001F0A4FE5C2001F0DFFE3C37DD46BD46BF
:10438800BDE8F08F00500052004402580A0A09099B
:10439800400E0024114B02689A4200D07047104A20
:1043A80070B5D2F8D4300F4C23F4804304F11806CA
:1043B800C2F8D43054F8040F00F054FF05462068C2
:1043C80000F058FF0146284603F060F9B442F1D1E5
:1043D8005C20BDE8704001F0BDBE00BF0050005237
:1043E80000440258400E0024014805F06DB900BF92
:1043F800F40D0024084B1A1D981D03F1080110B490
:104408009C1C9A6603F10A02C3E91834C3E91B012C
:104418005DF8044B5A677047E40D002438B503680B
:1044280071B9026A00F1280500F5AC74012A0CBFC5
:10443800002140218BBB1D4B5722C0F858310DE09D
:10444800426A00F1C00500F5E874012A0CBF00219A
:104458004021EBB1164B5A22C0F8D0310023204638
:10446800C4E901214FF480524FF4806163626261B4
:104478004FF48042C4E903314FF48073C4E9062342
:104488004FF40033236202F0F7F858B1FFBEFEE79D
:10449800084B5822C0F8D031E0E7074B5922C0F842
:1044A8005831DBE7C5E92044A56338BD1000024058
:1044B8007000024028000240580002402DE9F043F5
:1044C800821D05468BB0031D05F10A010830CDE9B0
:1044D800052305F10C02AB69CDE907010992002B10
:1044E8003DD0EB69B3FA83F84FEA5818012302224A
:1044F80005AE0AAF4FF006090393CDE9012356F83C
:10450800044B2B792278934216D02B68F3B1012BF8
:1045180002D1F2B10A230493204600F0ABFE034611
:104528002046009300F09EFE694602F06FFFBE42EF
:10453800E5D10BB0BDE8F083697963789942E4D19D
:10454800B8F1000FF3D02B68002BE0D1CDF8109014
:10455800E2E76378022B14BF0A230823DBE74FF056
:104568000108C3E7534A0368934230B505468BB048
:1045780055D02032934252D04F4A934204D0203231
:10458800934201D00BB030BD4C4C4D48D4F8E030CC
:1045980043F00103C4F8E030D4F8E03003F001033D
:1045A8000593059BD4F8E03043F00803C4F8E030E5
:1045B800D4F8E03003F008030693069BD4F8E03003
:1045C80043F04003C4F8E030D4F8E03003F040038F
:1045D8000793079BD4F8F03043F40003C4F8F03095
:1045E800D4F8F03003F400030893089BFFF766FF44
:1045F800D4F8D830296843F001032F4A3048C4F86A
:10460800D830891AD4F8D83018BF012103F0010333
:104618000993099B0BB0BDE83040FFF7FFBE274C5C
:104628002848D4F8E03043F00103C4F8E030D4F867
:10463800E03003F001030093009BD4F8E03043F02E
:104648001003C4F8E030D4F8E03003F0100301930D
:10465800019BD4F8E03043F04003C4F8E030D4F8CC
:10466800E03003F040030293029BD4F8F03043F4A7
:104678008003C4F8F030D4F8F03003F480030393D7
:10468800039BFFF71BFFD4F8D830296843F00103D8
:10469800084A0C48C4F8D830891AD4F8D83018BF5A
:1046A800012103F001030493049B0BB0BDE83040E3
:1046B800FFF7B4BE04580140045C014000440258AE
:1046C800B81000245C0E0024014802F04DBB00BF66
:1046D800B40F0024014802F047BB00BF2C1000248F
:1046E800014802F041BB00BF10120024014802F04B
:1046F8003BBB00BF881200241A4A0368934210B4D7
:104708000BD02032934208D0174A934216D0203259
:10471800934213D05DF8044B7047144B0022D3F832
:104728005442C3F85822002CF4D0D3F84802D3E9F5
:10473800931223465DF8044B520818470B4B00228E
:10474800D3F8B044C3F8B424002CE3D0D3F8AC2495
:10475800D3F8A814D3F8A404520823465DF8044BF0
:10476800184700BF04580140045C01405C0E002457
:10477800184A0368934210B40BD02032934208D0F1
:10478800154A934217D02032934214D05DF8044B57
:104798007047124BD3E994245208C3F85822002CCE
:1047A800F4D0D3E99201234601EB820100EB8200A9
:1047B8005DF8044B1847094BD3F8AC24D3F8B04440
:1047C8005208C3F8B424002CE0D0D3F8A814D3F8C6
:1047D800A404E8E704580140045C01405C0E00248E
:1047E8002DE9F04F0C684FF41776754F87B004FB2E
:1047F80006F6012C07EB060AC0F800A000F3A0801B
:104808000D468E464FF00008D44669A3D3E900232D
:1048180069A1D1E90001CDE9022306ABCAF85082AB
:1048280003EB8403CDE9040153F810BC53F8083CAA
:10483800CAE992880193BEE80F00ACE80F00BEE811
:104848000F00ACE80F00019B9EE80300CAF828B0EF
:10485800CAF8C0308CE803002B69042B0CD8DFE8B9
:1048680003F0737D879103004FF41773554A03FBD8
:1048780004739A64C3F8E020AA692B6A002A43D01B
:10488800002B4FF4177308BF022203FB047318BFF1
:104898000322DA6201221A63EA696B6A002A40D1AC
:1048A800191E4FF4177318BF012103FB0473C3E9E2
:1048B80031126B69022B05D8434A12F80380434A28
:1048C80052F823904FF4177306F1280042464946E0
:1048D80003FB04740023384463646363E365C4F82A
:1048E800DC30C4F8CC30C4F8F430C4E90F33C4E980
:1048F8001533C4E93533C4E93B33022306F086FF98
:10490800002849D0FFBEFEE7191E4FF4177318BFE1
:10491800012103FB0473C3E90B12EA696B6A002ADD
:10492800BED0002B4FF4177308BF022203FB047399
:1049380018BF0322C3F8C4200122C3F8C820B8E76F
:10494800012007B0BDE8F08F4FF417734FF4FA5207
:1049580003FB04739A64C3F8E0208DE74FF41773E0
:104968004FF47A5203FB04739A64C3F8E02083E798
:104978004FF417734FF4FA4203FB04739A64C3F8B5
:10498800E02079E74FF417734BF6803203FB04738A
:104998009A64C3F8E0206FE706F1C000022342469C
:1049A8004946384406F032FF0028CAD0FFBEFEE769
:1049B80004580140045C014024580140245C014033
:1049C8005C0E002400770100102801081428010853
:1049D8000068704770B5046882B015460E46C4F882
:1049E8005032C4E99212069AC4F85422A269012AE4
:1049F80026D0626A012A9AB211D0294604F1C00071
:104A0800019206F0BFFF236A019A012B10D02946B4
:104A180004F1280006F0B6FF002002B070BD04F1D2
:104A2800C000019207F040F8236A019A012BEED1E9
:104A3800314604F1280007F037F8002002B070BDB5
:104A4800226A012A9AB211D0294604F1280001925B
:104A580006F098FF636A019A012B10D0294604F1E9
:104A6800C00006F08FFF002002B070BD04F12800DE
:104A7800019207F019F8636A019A012BEED13146C9
:104A880004F1C00007F010F8002002B070BD00BFAC
:104A980003681B69042B05D8044A02EB830393EDD2
:104AA800000A70479FED020A704700BF20280108DE
:104AB80000803B470368D3F858027047704700BF2F
:104AC80008B500F0DFFCBDE8084001F0BFBB00BF3F
:104AD800064808B503680BB102F0AAFE044803684B
:104AE8001BB1BDE8084003F099BD08BD281B002490
:104AF80020170024064808B503680BB102F098FE99
:104B0800044803681BB1BDE8084003F087BD08BD31
:104B1800281B002420170024064808B503680BB199
:104B280002F086FE044803681BB1BDE8084003F0A4
:104B380075BD08BD281B002420170024364BDA6AEF
:104B4800520062D59A6A9A6A9A6A9B6A180600D5D0
:104B580000BE314B9B6A990600D500BE2E4B9B6A5E
:104B6800DA0600D500BE2C4B9B6A1B0700D500BE99
:104B7800294B9B6A980700D500BE274B9B6AD9072B
:104B880000D500BE244B9B6A1A0400D500BE224BF8
:104B98009B6A9B0400D500BE1F4B9B6AD80400D5B6
:104BA80000BE1D4B9B6A190500D500BE1A4B9B6AB7
:104BB8005A0500D500BE184B9B6A9B0500D500BE60
:104BC800154B9B6AD80500D500BE134B9B6A99010B
:104BD80000D500BE104B9B6ADA0100D500BE0E4B13
:104BE8009B6A1B0300D500BE0B4B9B6A580300D57C
:104BF80000BE094B9B6A990300D500BE064B9B6A11
:104C0800DA0306D400BE00BEFEE7DB6A9B07FAD5CE
:104C1800F8E700BEF6E700BF00ED00E000F03EBC9C
:104C280000F042BC0A4B9B6803F17843B3F5003FA0
:104C38000BD3084B986848B19868012806D0986843
:104C4800022803D09B68032070470120704700BFEB
:104C580000ED00E0000080382DE9F041CEB00446B8
:104C68004C2200210AA80DF07DFD2022002102A877
:104C78000DF078FDBC2200211EA80DF073FD022066
:104C880004F040F92368012B4FF0000354D0534A35
:104C980002250193C820D16A514B21F00101D1624C
:104CA800D26A02F0010201929A6942F440429A6182
:104CB8009B6903F440430193019B494A93699B0410
:104CC800FCD548490224002201268B6A04274FF0AC
:104CD800080823F0030323438B62052316900AA8D0
:104CE80018934FF480331096179419941597CDF8AC
:104CF8006880CDE91B222122CDE91344CDE90A239E
:104D080004F0EAFD00B1FEE73F220323294602A88A
:104D1800CDE9022300220823CDE9042340224023C1
:104D2800CDE9062340234FF48062CDE9082305F03E
:104D380001F90346B8B1FEE7294A04250093F0209B
:104D48009169264B41F440419161926902F44042D5
:104D58000092DA6A42F00102DA62DB6A03F00103C8
:104D68000093009BA9E720224FF4805125934FF42C
:104D780040152B9280222D931EA8309326913591B1
:104D88004FF48071249234920C223394439140F270
:104D9800271120921022CDF884802A971F96CDE9FA
:104DA8002E34CDE93B334FF48033CDE9224631939D
:104DB800002446930623CDE93E4527934FF48063AC
:104DC800094C2C931E94CDE9281205F00FFB00B175
:104DD800FEE704F0BDF84EB0BDE8F08100040058CD
:104DE80000480258004402580F130F0370B584B0EE
:104DF800012401F0D9F94FF480764FF04052194B55
:104E080068460025ADF800400396CDE9012301F07E
:104E1800E9F919224FF0404368468DF808200193BC
:104E28008DF80F40ADF80D608DF801408DF80A50EF
:104E380001F0D8F902230B2268468DF80F508DF83F
:104E480001304FF062538DF808200193ADF80D4002
:104E58008DF80A4001F0C6F9042001F0B3F904B056
:104E680070BD00BF0E00010330B50D46044685B085
:104E7800D1E9000184E8030000F0D4FAAB79A3B3C8
:104E88000AF042FCFEF77CFE09F0A8F80AF034F9B3
:104E98002B798BBB6B799BB1BFF34F8FBFF36F8FB0
:104EA8002A4B0022C3F85022BFF34F8FBFF36F8FF6
:104EB8005A6942F400325A61BFF34F8FBFF36F8FC4
:104EC8004FF0FF3200230024002569462048029253
:104ED8008DF80C30CDE9004509F0A0FC1C4809F01C
:104EE80005FD08F0ABFC05B030BD2046FFF7B4FE69
:104EF8002046FFF77BFFC3E7144C0023C4F8843037
:104F0800BFF34F8FD4F8801043F6E07EC1F34E3CD8
:104F1800C1F3C9014FEA4C1C0CEA0E000B4640EAEB
:104F28008372013BC4F860225A1CF8D1ACF1200C02
:104F38001CF1200FF0D1BFF34F8F636943F4803326
:104F48006361BFF34F8FBFF36F8FA3E700ED00E0FE
:104F58001413002405F01EB905F038B91C4B9B68E2
:104F680003F17842B2F5003F25D3B3F5803F20D353
:104F780003F16042B2F5003F1FD303F15C42B2F582
:104F8800002F1CD303F17042B2F5902F19D303F10F
:104F98004842B2F5803F16D303F18042B2F1806FE8
:104FA80013D303F1E043B3F5000F2CBF082007200B
:104FB8007047012070470020704702207047032087
:104FC800704704207047052070470620704700BFCF
:104FD80000ED00E003480023034A044903600DF094
:104FE80091B800BF1413002400000024C54A00082B
:104FF80010B4204C0022204B83B0D4F888101F48EE
:1050080041F47001C4F8881019681D4C41F0010181
:1050180019601A61196808401A4918609A61DA61BA
:105028001A629A62DA621A635A639A63DA631A64D2
:105038005A64186820F4802018601A66D3F8DC20B7
:1050480042F06042C3F8DC20D3F8DC300193019BC6
:1050580023681940B1F1005F03D20B4B0122C3F85A
:105068000821044B4FF000629A6003B05DF8044BCE
:10507800704700BF00ED00E0004402587FEDF6EAFB
:105088000010005C0000FFFF0080005100F5717106
:10509800D0F8040407F0BABFC1EBC10300EB8303E7
:1050A800D0F80404D3F8082207F0DEBFC1EBC1032F
:1050B80000EB8303D0F804049A6C08F013B800BF1F
:1050C800D0F8040408F0B2B8C16810B5044619B1A4
:1050D800022900D0FEE70121D4F8040408F090F872
:1050E800D4F80404BDE8104008F062B810B50446CE
:1050F800D0F8040408F088F82268D2F8003E43F09B
:105108000103C2F8003E236A23B1034A136943F03E
:105118000603136110BD00BF00ED00E0D0F80404E1
:1051280008F07CB8D0F8040408F090B8D0F804046B
:1051380008F08AB8D0F8040408F08AB8D0F8040453
:1051480008F088B89446D0F898021A4608B563461D
:1051580003F0C8FD032802D8024B185C08BD0220E2
:1051680008BD00BF44280108D0F8980208B503F02C
:1051780047FE032802D8024B185C08BD022008BD70
:1051880044280108D0F8980208B503F07DFE0328EA
:1051980002D8024B185C08BD022008BD442801084B
:1051A8000A06D0F8983206D4C1EBC10103EB81019D
:1051B80091F8FE01704701F07F01C1EBC10103EBDB
:1051C800810191F83E007047D0F8980208B503F0C5
:1051D80073FD032802D8024B185C08BD022008BDE5
:1051E80044280108D0F8980208B503F0E1FD032827
:1051F80002D8024B185C08BD022008BD44280108EB
:10520800D0F8980208B503F0ABFD032802D8024B8A
:10521800185C08BD022008BD44280108D0F8C00267
:1052280008F0C6BAD0F8C00208F0DABAD0F8C0025E
:1052380008F0E2BA704700BFD0F8C00208F0C8BA58
:10524800D0F8C00208F0C8BAD0F8D00308B502F008
:10525800AFFE032802D8024B185C08BD022008BD27
:1052680048280108024B027853F82200704700BF13
:105278006C280108024B427833F81200704700BFCF
:105288004C2801088CB00A2814D8DFE800F0152350
:10529800313F4D5B6977859306004D4BD3F8E0208D
:1052A80042F48062C3F8E020D3F8E03003F480636E
:1052B8000B930B9B0CB07047454BD3F8E02042F0A2
:1052C8000102C3F8E020D3F8E03003F001030193B2
:1052D800019BEFE73E4BD3F8E02042F00202C3F80F
:1052E800E020D3F8E03003F002030293029BE1E7E9
:1052F800374BD3F8E02042F00402C3F8E020D3F89B
:10530800E03003F004030393039BD3E7304BD3F857
:10531800E02042F00802C3F8E020D3F8E03003F0C0
:1053280008030493049BC5E7294BD3F8E02042F017
:105338001002C3F8E020D3F8E03003F0100305931F
:10534800059BB7E7224BD3F8E02042F02002C3F8D0
:10535800E020D3F8E03003F020030693069BA9E78A
:105368001B4BD3F8E02042F04002C3F8E020D3F80A
:10537800E03003F040030793079B9BE7144BD3F8F7
:10538800E02042F08002C3F8E020D3F8E03003F0D8
:1053980080030893089B8DE70D4BD3F8E02042F477
:1053A8008072C3F8E020D3F8E03003F480730993E7
:1053B800099B7FE7064BD3F8E02042F40072C3F85C
:1053C800E020D3F8E03003F400730A930A9B71E7F6
:1053D80000440258704700BF0F4B1B780BB90120DF
:1053E800704710B504464FF47A700C4AB0FBF3F3DB
:1053F8001068B0FBF3F000F0C1FE0F2C00D808B124
:10540800012010BD002221464FF0FF3000F056FE6B
:10541800034B00201C6010BD5C00002454000024D5
:105428006000002438B50320124D00F035FE124C00
:1054380004F0E0FC114A12499369C3F30323CB5CDF
:1054480003F01F0320FA03F30E202B60926902F089
:105458000F028A5C02F01F02D3402360FFF7BCFFF3
:1054680010B10124204638BD0446FFF7B3FF20469B
:1054780038BD00BF540000245800002400440258DE
:1054880034280108034A044B11681B780B44136045
:10549800704700BFEC1D00245C000024014B186815
:1054A800704700BFEC1D002438B50446FFF7F6FF2F
:1054B8000546631C02D0044B1B781C44FFF7EEFF23
:1054C800431BA342FAD338BD5C000024014B186883
:1054D800000C70470010005C704700BF806B08B577
:1054E800FFF7FAFF08BD00BF836B5A6D12F0500F2B
:1054F8005A6D10B51DD1196842F400725A650A68D0
:1055080012F0080FCA681BD012F4406F0DD1CA6898
:1055180094040AD45A6D22F480725A655A6DD104E3
:1055280003D45A6D42F001025A651846FDF706FE8B
:1055380010BDD2060AD4DB6CBDE81040DB6C1847FE
:105548009007E7D01846FDF7F9FDF1E71846FDF793
:1055580099FE10BD806B08B5436D43F04003436569
:10556800836D43F004038365FDF78CFE08BD00BF1F
:10557800F0B5002283B0019290F85020012A00F083
:105588001C81034601201A6883F850009468640758
:1055980000F18A800C68C4F31305002D40F08F8059
:1055A800C4F38464A0404D684FF01F0ED6694FEADB
:1055B800951C30430CF00C0CD06105F01F0002F173
:1055C800300584400EFA00FE5CF8050020EA0E0063
:1055D80004434CF80540906840076ED4956815F070
:1055E800080547D10C68072002F11406B94F4FEAA5
:1055F800D45CC4F304540CF0040C00FA04FE88686C
:1056080000FA04F45CF8060020EA0E0020434CF887
:105618000600386800F07040B0F1805F00F0C58087
:10562800D068D668C70600F1E880C6F382064869E4
:10563800760000FA06F60F69042F00F0C18002F127
:105648006004086854F827C000F0F8400CF0004CDB
:1056580040EA0C00304344F82700487E0E690128D0
:1056680054F8260008BF4FF0004520F000400543DD
:1056780044F826509068C40714D4CE68086806F029
:105688001807954CD2F8C050FC40C0F313070440EB
:1056980025EA07052C43C2F8C040904CA64246D0E4
:1056A800002816DB002003E05A6D42F020025A65FC
:1056B800002283F8502003B0F0BD9068DAE794FA2E
:1056C800A4F5B5FA85F5C4F3846405F01F05A84070
:1056D80069E783498A4200F0B68001F580718A4201
:1056E80000F0B1807F4D804CA968A46801F0E07695
:1056F800E44304F00104002C00F0B4807B4CA04289
:1057080000F0FC807A4CA04200F01A81794CA0424B
:10571800C8D14902C6D474498A42C3D1AA680020B4
:1057280022F0E072324342F48002AA60C0E7002F00
:105738006AD090FAA0F4B4FA84F4013404F01F0497
:10574800092C00F2A48090FAA0F4B4FA84F490FA38
:10575800A0F5B5FA85F5013401260135A40605F052
:105768001F0504F0F84406FA05F52C4390FAA0F05A
:10577800B0FA80F0304400F01F0000EB4000000554
:105788002043C60D02F11405C0F30450072406F0A7
:10579800040604FA00F7745924EA07048F6807FA24
:1057A80000F02043705108687AE7D6684869C6F364
:1057B8008206760000FA06F63DE7022003B0F0BD47
:1057C800106E0C6800F0F840A506B0EB846F30D07E
:1057D800506E00F0F840854226D0906E00F0F840F8
:1057E80085422BD0D06E00F0F84085427FF442AF5E
:1057F800D06E20F00040D0663CE77608486906F095
:10580800080600FA06F616E7800E441C04F01F0688
:10581800092E2DD8A406012004F0F844B040044312
:1058280006EB46000005ABE7506E20F000405066DE
:10583800D3E7106E20F000401066C9E7906E20F0A4
:1058480000409066CEE7264C2B4D04F58074A9687D
:1058580054F8F86CA468344301F0E076E44304F0AB
:10586800010448E75A6D012042F020025A651FE7FB
:1058780006EB4600A50601241E3805F0F84504FA93
:1058880006F60005354340F00070284379E790FAA2
:10589800A0F5B5FA85F590FAA0F4B4FA84F40135C8
:1058A80001260134AD0604F01F0405F0F84506FA98
:1058B80004F4254390FAA0F4B4FA84F4344404F0D0
:1058C8001F0404EB4404A4F11E00000540F000701E
:1058D800DBE700BF0010005CFFFF0F000000FF4780
:1058E800002002400063025800600258000084CB88
:1058F800000052C70000B8CF0023024008023FF55D
:10590800D1AE17498A427FF4CDAE164AA96812680B
:10591800154821F0E07192093143A0FB020241F4DD
:1059280000019209A96052000192019A002A3FF4ED
:10593800B9AE019A013A0192019A002AF9D1B1E669
:1059480011F080707FF4AEAE05498A427FF4AAAEAA
:10595800AA6822F0E072324342F08072AA60A7E699
:105968000060025854000024632D3E0503689A68BD
:10597800D20701D5002070479968214A114270B5B5
:10598800044608D0636D012043F010036365A36DDE
:105998000343A36570BD99681A4A0A4042F00102A0
:1059A8009A60FFF77BFD2368174A054693421ED08D
:1059B80002F5807293421AD0144A9268114E0AE096
:1059C8009A68324042F001029A60FFF767FD401B77
:1059D8000228D7D823681A68D2070FD49A68D10743
:1059E800EED5FFF75BFD401B0228F3D9CAE7084A4A
:1059F8009268D006E2D0074A9342DFD1002070BDFA
:105A08003F000080C0FFFF7F002002400063025873
:105A180000230240002102402DE9F0413A4D04469E
:105A280000680F461646A84219D0384B984216D03F
:105A3800374DAB688068420716D494F85020012A85
:105A480012D003F01F080122B8F1090F84F8502082
:105A58000DD90023012084F85030BDE8F0812D4D88
:105A6800AB6880684207E8D50220BDE8F08140F2C3
:105A7800212323FA08F3DB4313EA0205E9D1204680
:105A8800FFF774FF002839D1626D234B216813405A
:105A980043F480736365B8F1000F02D01B4B994241
:105AA80003D0636D23F480136365636D13F480532F
:105AB80028D0A36D23F00603A365E06C3346174D89
:105AC8003A464031C563164D0564164DC5641C251C
