:020000040800F2
:1000000000000220110A00080D0A0008255300080C
:100010000D0A00080D0A00080D0A00080000000083
:100020000000000000000000000000000D0A0008B1
:100030000D0A0008000000000D0A0008A95200087F
:100040000D0A00080D0A00080D0A00080D0A000834
:100050000D0A00080D0A00080D0A00080D0A000824
:100060000D0A00080D0A00080D0A0008B14E00082C
:10007000BD4E0008A1390008C94E0008D54E000841
:10008000AD0D0108DD4300080D0A00080D0A000847
:100090000D0A00080D0A00080D0A00080D0A0008E4
:1000A0000D0A00080D0A00080D0A00080D0A0008D4
:1000B000BD010108C9010108D5010108114400086A
:1000C0000D0A00081D4400080D0A00082DFA00085A
:1000D00039FA0008E10B01080D0C0108410C010878
:1000E0000D0A00080D0A0008000000000D0A0008B3
:1000F0000D0A00080D0A00080D0A00080D0A000884
:100100000D0A00080D0A0008E101010845FA00087F
:10011000750C0108A90C01086D3C00080D0A0008C7
:10012000553C0008613C000869FA00089DFA000887
:10013000E10D01080D0A00080D0A00080D0A00086B
:1001400000000000000000000000000000000000AF
:100150000D0A00080D0A00080D0A0008DD0C010850
:10016000294400080D0A0008B9520008DD520008B1
:100170000D0A0008015300080D0A00080D0A0008C6
:100180000D0A00080D0A0008110D0108450D0108AF
:1001900051FA00085DFA00080D0A00080D0A00086F
:1001A0000D0A00080D0A00080D0A00080D0A0008D3
:1001B000D14B00080D0A00080D0A00080D0A0008BE
:1001C0000D0A00080D0A0008C1330008CD330008ED
:1001D0000D0A0008D93300080D0A00080D0A0008AE
:1001E0000D0A00080D0A00080D0A00080D0A000893
:1001F0000D0A00080D0A00080D0A00080D0A000883
:100200000D0A00080D0A00080D0A00080D0A000872
:100210000D0A00080D0A00080D0A00080D0A000862
:100220000D0A00080D0A00080D0A00080000000071
:100230000D0A00080D0A0008000000000D0A000861
:100240000D0A00080D0A00080D0A00080D0A000832
:100250000D0A00080D0A00080D0A00080D0A000822
:100260000D0A00080D0A00080D0A00080D0A000812
:100270000D0A00080D0A0008790D010800000000B1
:100280000D0A00080D0A00080D0A00080000000011
:08029000000000000D0A000847
:1002A00010B5054C237833B9044B13B10448AFF3B0
:1002B00000800123237010BD780700240000000097
:1002C0006080010808B5034B1BB103490348AFF335
:1002D000008008BD000000007C0700246080010849
:1002E000034613F8012B002AFBD1181A0138704776
:1002F00001F0FF01102A2BDB10F0070F08D010F8D7
:10030000013B013A8B422DD010F0070F42B3F6D1DA
:10031000F0B441EA012141EA014122F007047FF0F3
:1003200000070023F0E80256083C85EA010586EA4A
:10033000010685FA47F5A3FA87F586FA47F6A5FA86
:1003400087F68EB9EED1F0BC01F0FF0102F0070292
:1003500032B110F8013B013A83EA010313B1F8D13D
:100360000020704701387047002D06BF354603381E
:10037000073815F0010F07D1013015F4807F02BF57
:10038000013015F4C03F0130F0BC0138704700BFA8
:1003900081F0004102E000BF83F0004330B54FEA36
:1003A00041044FEA430594EA050F08BF90EA020FA3
:1003B0001FBF54EA000C55EA020C7FEA645C7FEA36
:1003C000655C00F0E2804FEA5454D4EB5555B8BF59
:1003D0006D420CDD2C4480EA020281EA030382EACA
:1003E000000083EA010180EA020281EA0303362D5C
:1003F00088BF30BD11F0004F4FEA01314FF4801C2F
:100400004CEA113102D0404261EB410113F0004F40
:100410004FEA03334CEA133302D0524263EB4303F7
:1004200094EA050F00F0A780A4F10104D5F1200E95
:100430000DDB02FA0EFC22FA05F2801841F10001F0
:1004400003FA0EF2801843FA05F359410EE0A5F1C4
:1004500020050EF1200E012A03FA0EFC28BF4CF0F5
:10046000020C43FA05F3C01851EBE37101F00045AB
:1004700007D54FF0000EDCF1000C7EEB00006EEBB8
:100480000101B1F5801F1BD3B1F5001F0CD3490842
:100490005FEA30004FEA3C0C04F101044FEA445299
:1004A00012F5800F80F09A80BCF1004F08BF5FEA20
:1004B000500C50F1000041EB045141EA050130BD00
:1004C0005FEA4C0C404141EB0101013C28BFB1F512
:1004D000801FE9D291F0000F04BF01460020B1FA5D
:1004E00081F308BF2033A3F10B03B3F120020CDA30
:1004F0000C3208DD02F1140CC2F10C0201FA0CF00E
:1005000021FA02F10CE002F11402D8BFC2F1200C72
:1005100001FA02F120FA0CFCDCBF41EA0C01904028
:10052000E41AA2BF01EB0451294330BD6FEA040471
:100530001F3C1CDA0C340EDC04F11404C4F120025C
:1005400020FA04F001FA02F340EA030021FA04F36E
:1005500045EA030130BDC4F10C04C4F1200220FAC5
:1005600002F001FA04F340EA0300294630BD21FA03
:1005700004F0294630BD94F0000F83F4801306BFC9
:1005800081F480110134013D4EE77FEA645C18BFBD
:100590007FEA655C29D094EA050F08BF90EA020F54
:1005A00005D054EA000C04BF1946104630BD91EA4C
:1005B000030F1EBF0021002030BD5FEA545C05D14F
:1005C0004000494128BF41F0004130BD14F580048E
:1005D0003CBF01F5801130BD01F0004545F0FE4102
:1005E00041F470014FF0000030BD7FEA645C1ABF37
:1005F000194610467FEA655C1CBF0B46024650EA6E
:10060000013406BF52EA033591EA030F41F4002199
:1006100030BD00BF90F0000F04BF0021704730B51F
:100620004FF4806404F132044FF000054FF00001F4
:1006300050E700BF90F0000F04BF0021704730B5B5
:100640004FF4806404F1320410F0004548BF40428A
:100650004FF000013EE700BF42004FEAE2014FEADF
:1006600031014FEA02701FBF12F07F4393F07F4FBA
:1006700081F06051704732F07F4208BF704793F0BD
:100680007F4F04BF41F40021704730B54FF46074D0
:1006900001F0004521F000411CE700BF50EA0102D3
:1006A00008BF704730B54FF000050AE050EA01027C
:1006B00008BF704730B511F0004502D5404261EBEC
:1006C00041014FF4806404F132045FEA915C3FF42D
:1006D000D8AE4FF003025FEADC0C18BF03325FEACA
:1006E000DC0C18BF033202EBDC02C2F1200300FA7B
:1006F00003FC20FA02F001FA03FE40EA0E0021FAA0
:1007000002F11444BDE600BF53B94AB9002908BF3D
:1007100000281CBF4FF0FF314FF0FF3000F074B9DC
:10072000ADF1080C6DE904CE00F006F8DDF804E048
:10073000DDE9022304B070472DE9F047089D044627
:100740008E46002B4DD18A42944669D9B2FA82F284
:1007500052B101FA02F3C2F1200120FA01F10CFAC0
:1007600002FC41EA030E94404FEA1C48210CBEFBF8
:10077000F8F61FFA8CF708FB16E341EA034306FB81
:1007800007F199420AD91CEB030306F1FF3080F010
:100790001F81994240F21C81023E63445B1AA4B25D
:1007A000B3FBF8F008FB103344EA034400FB07F7FF
:1007B000A7420AD91CEB040400F1FF3380F00A8140
:1007C000A74240F207816444023840EA0640E41B35
:1007D00000261DB1D4400023C5E900433146BDE8E1
:1007E000F0878B4209D9002D00F0EF800026C5E983
:1007F000000130463146BDE8F087B3FA83F6002E9B
:100800004AD18B4202D3824200F2F980841A61EB12
:10081000030301209E46002DE0D0C5E9004EDDE730
:1008200002B9FFDEB2FA82F2002A40F09280A1EB18
:100830000C014FEA1C471FFA8CFE0126200CB1FB6D
:10084000F7F307FB131140EA01410EFB03F0884266
:1008500008D91CEB010103F1FF3802D2884200F2F3
:10086000CB804346091AA4B2B1FBF7F007FB101185
:1008700044EA01440EFB00FEA64508D91CEB040423
:1008800000F1FF3102D2A64500F2BB800846A4EB7E
:100890000E0440EA03409CE7C6F12007B34022FA69
:1008A00007FC4CEA030C20FA07F401FA06F31C4398
:1008B000F9404FEA1C4900FA06F3B1FBF9F8200CA5
:1008C0001FFA8CFE09FB181140EA014108FB0EF0EB
:1008D000884202FA06F20BD91CEB010108F1FF3A3B
:1008E00080F08880884240F28580A8F10208614447
:1008F000091AA4B2B1FBF9F009FB101144EA014155
:1009000000FB0EFE8E4508D91CEB010100F1FF34FF
:100910006CD28E456AD90238614440EA0840A0FB97
:100920000294A1EB0E01A142C846A64656D353D06D
:100930005DB1B3EB080261EB0E0101FA07F722FA91
:1009400006F3F1401F43C5E9007100263146BDE8BA
:10095000F087C2F12003D8400CFA02FC21FA03F31D
:10096000914001434FEA1C471FFA8CFEB3FBF7F09E
:1009700007FB10360B0C43EA064300FB0EF69E42C3
:1009800004FA02F408D91CEB030300F1FF382FD25C
:100990009E422DD9023863449B1B89B2B3FBF7F604
:1009A00007FB163341EA034106FB0EF38B4208D9DD
:1009B0001CEB010106F1FF3816D28B4214D9023E1E
:1009C0006144C91A46EA004638E72E46284605E73C
:1009D0000646E3E61846F8E64B45A9D2B9EB02080D
:1009E00064EB0C0E0138A3E74646EAE7204694E79D
:1009F0004046D1E7D0467BE7023B614432E73046D0
:100A000009E76444023842E7704700BFFEE700BFD1
:100A10000B480C4A904203D0121A0B4913F02CFEDB
:100A20000A480B4A904203D0121A002113F032FEFA
:100A300004F0DEFE13F0ECFD00F096F8FEE700BFD8
:100A4000000000247807002494800108780700241F
:100A5000D8690024704700BF704700BF2DE9F843F4
:100A6000DFF8B08017460E4604F0CEFCC8F8080048
:100A70008FB1002435684FEA8409254800F050FB07
:100A8000736805EB8405013400224B44A74285EDD1
:100A9000000A1A60EED104F0B7FCD8F8082098EDEF
:100AA000017A821A98F8003007EE902AF8EE677AF9
:100AB00067EE877A53B10023C8ED057AC8ED037A53
:100AC000C8ED047A88F80030BDE8F88398ED047A20
:100AD000D8ED066AF4EEC77A98ED037A98ED056AC8
:100AE000F1EE10FAF4EEC77AB7EE007AC8BFC8ED9F
:100AF000047AF1EE10FA37EE667A48BFC8ED037A51
:100B000027EE067AA7EEA67A88ED057ABDE8F88387
:100B100088090024380F002438B502210446002338
:100B20000F4D1D207422606704F5F870C4E90F337F
:100B3000C4E91133C4E91333C4E91533C4E91733E5
:100B4000C4E91933C4E91B11294613F095FD742239
:100B500004F51970A91813F08FFD204638BD00BFA9
:100B6000C47301080000000038B500239848994D6F
:100B70001A461946984C2DED068B00F0A3FC052370
:100B800004220121924800F09DFC0122022190489C
:100B900000F0C4FC062203218D4800F0BFFC0223B4
:100BA00004218B481A4600F08DFC072306220521FC
:100BB000874800F087FC0323062185481A4600F089
:100BC00081FC072204238248114600F07BFC95ED4E
:100BD000000A824800F0A6F995ED000A804800F06E
:100BE000A1F900217A4800F0A1FF4FF480717D48FF
:100BF00000F0F6FF04217B4800F0D2FF7A497948E3
:100C000000F0CAFF002002F0F9FA764800F0E4FF95
:100C10007448B0EE408A00F0FFFF07EE900AF8EE4D
:100C2000E78A04F093FD9FED715A07EE900AB7EE44
:100C3000007A6F4BC8EE285A0122E36023612270CC
:100C4000636188EE886AF8EE677AC5EE256A67EE1A
:100C5000867A87EE276A36EE877AC6EE877A84ED43
:100C6000016AC4ED067A04F0CDFB01465D48C1F38C
:100C70000901DFED609AB1F5FF7F8CBF00210121F2
:100C800000F0D0FF0021524800F0D8FC534800F09B
:100C9000A3F902214E4800F0BDFC504800F0BCF919
:100CA00004214B4800F0CAFC4C4800F0CDF9062165
:100CB000474800F0C3FC494800F0FCF901214448D2
:100CC00000F0BCFC464800F087F90321404800F0E2
:100CD000A1FC434800F0A0F905213D4800F0AEFC1E
:100CE0003F4800F0B1F90721394800F0A7FC3C4823
:100CF00000F0E0F9D4ED04AA3F4894ED05AA94ED84
:100D0000039A02F06DFA6AEEA97A3C489FED2E8BA9
:100D1000B0EEE77AF5EEC07AFDEEC77AF1EE10FAA2
:100D2000F8EEE76A17EE902A4CBF2D21202137EE0E
:100D3000667AB7EEC77A27EE087BFDEEC77B17EE23
:100D4000903A02F04DFA6AEE297A2D48B0EEE77A31
:100D5000F5EEC07AFDEEC77AF1EE10FAF8EEE76A2A
:100D600017EE902A4CBF2D21202137EE667AB7EE80
:100D7000C77A27EE087BFDEEC77B17EE903A02F0AC
:100D80002FFA69EE297A1F48B0EEE77AF5EEC07ABD
:100D9000FDEEC77AF1EE10FAF8EEE76A17EE902A48
:100DA0004CBF2D21202137EE667AB7EEC77A27EEA9
:100DB000087BFDEEC77B17EE903A02F011FA4FF474
:100DC000FA7004F027FB4EE70000000000408F405F
:100DD0009407002404000024380F0024880900240C
:100DE000600C0024B40800245D0A0008DB0FC94031
:100DF0000000C07F0000C842E0740108F4740108DC
:100E00000475010814750108404800234FF60B7261
:100E10004FF0FF3110B50124C0E90123C0E90623DA
:100E2000C0E90B23C0E91023C0E91523C0E91A2348
:100E3000C0E91F23C0E92423C0E90333C0E9083314
:100E4000C0E90D33C0E91233C0E91733C0E91C33E0
:100E5000C0E92133C0E92633C0F818410224C0F8A4
:100E60003431C0F84031C0E92923C0E92E23C0E95C
:100E70003323C0E938230622C0E95731C0E92B33B8
:100E8000C0E93033C0E93533C0E93A33C0E947330C
:100E9000C0E95911C0E95B11C0E95D11C0E95F11FA
:100EA000C0E96111C0F8F041194CC0F8CC21C0E98B
:100EB0006913C0E96B32C0E96311C0E96511C0E98B
:100EC0006711C0E96D22C0E96F22C0E97122C0E953
:100ED0007411104AC0E97611C0E97811C0E97A119D
:100EE0000D4912F04DFE2046FFF716FE20460B4C32
:100EF000084A0B4912F044FE2046FFF70DFE20463B
:100F0000044A0749BDE8104012F03ABE9407002495
:100F10008809002400000024550A0008600C002401
:100F2000590A0008F0EE407A4FF07C53F7EE006A61
:100F30009FED260A2DE9F04186EEA77A04460027A8
:100F40001030C4ED087A1E26636104F51978E36158
:100F500084ED060AA76284ED097A12F00BFE40F2D6
:100F60000113656F04F178002387052384ED0B0AD4
:100F70007822237404F5F8730021E0632364C4E944
:100F8000115613F087FB04F1F00078220021E06491
:100F9000C4F85080C4E9155613F07CFB04F5B47016
:100FA00078220021A666C4F860806566E06513F0CB
:100FB00071FB0021064A074BC4F8E87184F8EC1174
:100FC000C4F8E021C4F8E431BDE8F0810000C84273
:100FD0005F33D44261FA183CF0EE406A9FED0B7A21
:100FE000DFED0B7AF2EE080AB0EE000AE6EE877A41
:100FF00010B50446C7EEA00A12F03AFEDFED057AFE
:1010000020EE270A84ED000A10BD00BF0000F04268
:1010100000008AC20000DC43B6EE007AD0ED007A10
:10102000D0ED015A67EEC76A77EEA77AB0EE667A1E
:1010300037EEE66AA5EE867A87FE267AC7FE677ADD
:10104000C0ED017A704700BF9FED157AD0ED007AB0
:10105000F4EEC77AF1EE10FA11DDF7EE006ADFED7B
:10106000115A77EEC77A9FED106AB0EE667AA7EE56
:10107000A57A27EE000A80FE060A80FE660A9FED2A
:101080000B7AF1EE0C6A9FED0A6AF0EE477AE0EE19
:10109000067AC7FE877AC7FEE67AC0ED027A704705
:1010A0000000FA433EC32EB900000000CDCCCC3E78
:1010B0003333D3409FED157AD0ED007AF4EEC77A42
:1010C00010B5F1EE10FA044611DDF7EE006ADFED1F
:1010D000105A77EEC77A9FED0F6AB0EE667AA7EEE8
:1010E000A57A27EE000A80FE060A80FE660A30EE28
:1010F000000ADFED097A20EE270A12F047FDDFED46
:10110000077A30EE670A84ED030A10BD0000FA4347
:101110003EC32EB9000000008E5D1340A4707D3FD9
:101120002DE9F04F2DED048B83B004468346C36E4A
:10113000103490ED000A9B0000AF20468BED060AAC
:10114000073323F00703ADEB030D12F013FD204628
:101150006C468BED0B0A7C6012F052FBDBF86C9056
:1011600084ED000AB9F1000F40F3B980DBF8448048
:101170006FF04046251D00244644B600334606F174
:10118000040A46469846002E00F0B980DBF83C3051
:10119000012E03EB080282ED000A00F0AB80DBF8C1
:1011A00040E003EB0A0CDFED5E7A1A1D7146ACF1EC
:1011B000040C52F8040BD3ED006AB1EC017A43F849
:1011C000040B9C45E6EE877AF3D1C6449BED038A77
:1011D0009EED007AE7EE007A28EE270A12F0DCFE98
:1011E000F0EE408AB0EE480A12F0D6FE9BED787A17
:1011F000C8EE807A9BED7A8ADBED796A9BF8EC3158
:10120000A7EE878A28EE268A77EEC87AF0EE486A3B
:10121000E7EE276ACBED7A6A23B19FED418A012B75
:1012200007FE888ADBED028A28EE880A12F0B4FEF7
:10123000F0EE409AB0EE680A78EEA88A12F0ACFEA2
:10124000B0EE409A28EE880A12F002FF89EE897A01
:10125000DBF85420B7EEC00A9FED2D6B9FED2E5B9F
:10126000B7EEC77AA0EE067B87EE056BB7EEC66BCE
:10127000002A44D06FF0404CDBF84C30012A9444F3
:1012800003EB8C014FEA8C0C81ED006A2DD0DBF86A
:1012900050E01A1DDFED227A0CEB03007146B1EC31
:1012A000017AD3ED006AE6EE877AB2EC017AA3EC1C
:1012B000017A9842F3D1F44401349CED007AA145BF
:1012C000E6EE077A45ED017A06D0DFED157AB0EE4D
:1012D000670AE5EC017A56E77B6893ED000A0C3764
:1012E000BD46BDEC048BBDE8F08FDFED0D7ADBF879
:1012F00050E0E0E7DFED0A7ADBF840E065E7094B14
:10130000B921094A094813F037F900BFAFF300804B
:101310009A9999999999E93F000000C0CCCCFC3F7B
:101320000000000098750108A475010860750108A7
:10133000D0F880318B4220D0D0F884318B4225D038
:10134000D0F888318B421BD0D0F88C318B4220D022
:10135000D0F8903199421FD0D0F8943199421ED0E4
:10136000D0F8983199420ED0D0F89C3199420CBFF8
:10137000D0F8EC014FF0FF307047D0F8D001704743
:10138000D0F8D8017047D0F8E8017047D0F8D40100
:101390007047D0F8DC017047D0F8E0017047D0F812
:1013A000E401704710B472B9D0F8F0310524C0F8E8
:1013B00080115A1CC0F8D031C0F8B841C0F8F021F3
:1013C0005DF8044B7047012A0ED1D0F8F0310524A6
:1013D000C0F884115A1CC0F8BC41C0F8D4315DF883
:1013E000044BC0F8F0217047022A0ED1D0F8F0313A
:1013F0000524C0F888115A1CC0F8C041C0F8D83183
:101400005DF8044BC0F8F0217047032A0ED1D0F8E4
:10141000F0310524C0F88C115A1CC0F8B041C0F856
:10142000DC315DF8044BC0F8F0217047042A0CD180
:10143000D0F8F0310524C0F890115A1CC0F8E03102
:10144000C0F8C441C0F8F021BAE7052A0BD1D0F8A2
:10145000F031C0F8C8215A1CC0F89411C0F8E4312A
:10146000C0F8F021ACE7062A0CD1D0F8F031052401
:10147000C0F898115A1CC0F8E831C0F8CC41C0F847
:10148000F0219DE7072A0CD1D0F8F0310524C0F8EF
:101490009C115A1CC0F8EC31C0F8B441C0F8F021DE
:1014A0008EE7082A05D10123C0F8A011C0F8A831A1
:1014B00086E7092A84D10123C0F8A411C0F8AC3111
:1014C0007EE700BF70B51C460546FFF76BFF14B9F9
:1014D000C5F8601170BD012C02D1C5F8641170BD52
:1014E000022C02D1C5F8681170BD032C02D1C5F8D9
:1014F0006C1170BD042C02D1C5F8701170BD052CA3
:1015000002D1C5F8741170BD062C02D1C5F878114E
:1015100070BD072CDED1C5F87C1170BD12B9C0F8C2
:1015200060117047012A02D1C0F864117047022A85
:1015300002D1C0F868117047032A02D1C0F86C11BB
:101540007047042A02D1C0F870117047052A02D1F1
:10155000C0F874117047062A02D1C0F8781170479C
:10156000072A02D1C0F87C1170477047D0F860316B
:101570008B421FD0D0F868318B421BD0D0F86C3131
:101580008B4217D0D0F870318B4213D0D0F8643131
:101590008B4211D0D0F874318B420DD0D0F8783115
:1015A000994209D0D0F87C0181420CBF01204FF054
:1015B000FF3070470020704701207047D0F860313D
:1015C0008B421FD0D0F868318B421FD0D0F86C31DD
:1015D0008B421DD0D0F870318B4215D0D0F86431D9
:1015E0008B420FD0D0F874318B420DD0D0F87831C7
:1015F00099420DD0D0F87C0181420CBF01204FF000
:10160000FF3070470020704702207047012070476C
:101610000320704738B50446FFF7A8FF054620466B
:10162000FFF7CCFF0246E9B204F59C70D2B202F09B
:101630005BF9F7EE007A37EEC00A38BD70B50446A4
:101640000D4604F59C762DED028BFFF771FEF7EE4B
:10165000008AC1B2304602F037F92946204638EEFA
:10166000C00AFFF783FF03462046B6EE008A1C46F9
:10167000FFF7A4FF02463046E1B230EE488AD2B20C
:1016800002F032F938EEC00A30EE080ABDEC028BE7
:1016900070BD00BF30B52F4983B00024054601223C
:1016A000096823460430009402F06CFB2A49234663
:1016B00005F1180001220968009402F063FB274934
:1016C000234605F12C0001220968009402F05AFB20
:1016D0002349234605F1400001220968009402F0E5
:1016E00051FB2049234605F154000122096800946A
:1016F00002F048FB1C49234605F1680001220968F5
:10170000009402F03FFB1949234605F17C000122B9
:101710000968009402F036FB1549234605F1900054
:1017200001220968009402F02DFB1249234605F1BD
:10173000A40001220968009402F024FB0E4923460C
:101740000122096805F1B800009402F01BFB03B008
:1017500030BD00BF387601084076010834760108B4
:101760003C76010848760108507601084476010865
:101770004C7601082C7601083076010838B5D0F88F
:10178000A8510446ADB1012D61D0D4F8AC51EDB1F2
:10179000012D66D0D4F8B0311A1F012A25D9032BA8
:1017A0003ED0D4F8B4311A1F012A2DD9032B42D0D0
:1017B00038BD0430012102F0D7FB294604F12C008A
:1017C00002F0D2FBD4F8AC51002DE1D104F11800A5
:1017D000012102F0C9FB294604F1400002F0C4FBDC
:1017E000D4F8B0311A1F012AD9D804F17C000121A4
:1017F00002F0BAFB002104F1540002F0B5FBD4F86A
:10180000B4311A1F012AD1D804F19000012102F04D
:10181000ABFB04F168000021BDE8384002F0A4BB36
:1018200004F17C00002102F09FFB012104F154002F
:1018300002F09AFBB5E704F19000002102F094FB5E
:1018400004F168000121BDE8384002F08DBB04308E
:10185000002102F089FB294604F12C0002F084FBF0
:1018600093E704F11800002102F07EFB294604F101
:10187000400002F079FB8DE7F8B50446012500260B
:101880000423F43084F8F45084F8F530062784F803
:10189000F66084F8F75002F071FB0B2304F1F800B6
:1018A00084F8F87084F8F93084F8FA6084F8FB5012
:1018B00002F064FB072304F1FC0084F8FC5084F878
:1018C000FE6084F8FD3084F8FF5002F057FB04F509
:1018D000807084F8005184F8017184F8026184F802
:1018E0000351BDE8F84002F049BB00BF2DE9F04FBD
:1018F00097B000264FF00B024FF0060BD0F8F031F6
:1019000004AF4FF00A0A03EBC303022587F8402017
:101910004FF00C095B0087F8416087F810B004466F
:10192000073387F811A03E72042223F007037D726B
:101930003D73ADEB030DB7F8403087F80D90ADF86F
:1019400004300DF110083B8AB9684046ADF800300C
:101950000295FB6801F05AFD4FF00B0287F81CB0AE
:101960000DF1220087F81DA087F84420BB8B87F873
:101970004560B7F8442087F819903E757E753D762E
:10198000ADF804200422ADF800307969BB690295F6
:1019900001F03CFDD4F8B831052B2DD0D4F8BC3182
:1019A000052B3BD0D4F8C031052B4BD0D4F8B03147
:1019B000052B5BD0D4F8C431052B6AD0D4F8C831DC
:1019C000052B7AD0D4F8CC31052B00F08A80D4F8DE
:1019D000B431052B00F0998004F59C700423D4F8F1
:1019E000F0214146786001F04BFD786801F056FF28
:1019F0004C37BD46BDE8F08FD4F8D0012A4687F8B1
:101A0000205000EBC00087F82160396A08EB4000E5
:101A100001F0E8FCD4F8BC31052BC3D1D4F8D401D3
:101A200006230021022200EBC00087F8253087F84A
:101A30002410796A08EB400001F0D4FCD4F8C031DE
:101A4000052BB3D1D4F8D80101230021022200EBE9
:101A5000C00087F8293087F82810B96A08EB4000E1
:101A600001F0C0FCD4F8B031052BA3D1D4F8DC01CF
:101A70000423022200EBC00087F82D3087F82C20C9
:101A8000F96A08EB400001F0ADFCD4F8C431052B35
:101A900094D1D4F8E00103230021022200EBC0001E
:101AA00087F8313087F83010396B08EB400001F0CF
:101AB00099FCD4F8C831052B84D1D4F8E401012372
:101AC000022200EBC00087F8353087F83420796BAC
:101AD00008EB400001F086FCD4F8CC31052B7FF4F4
:101AE00076AFD4F8E8010123022200EBC00087F8AA
:101AF000383087F83930B96B08EB400001F072FCE0
:101B0000D4F8B431052B7FF467AFD4F8EC01002191
:101B10000723022200EBC00087F83C1087F83D3015
:101B2000F96B08EB400001F05DFC55E7F0B500F5FE
:101B30009076044687B000253046012700F032F940
:101B40002046FFF7A7FD022301A904F5A070CDE907
:101B50000235CDE9047502F097F82046FFF70EFE36
:101B60002046FFF789FE05238DF8047004F5827086
:101B70008DF8053001999FED070A01F075FB2046AD
:101B8000FFF7B4FE2946304607B0BDE8F04000F04C
:101B900049B800BF00000000143001F073BA00BF64
:101BA00038B500F1140504462DED028B284601F0EE
:101BB00025FA284601F01EFA2846B0EE408A01F0C8
:101BC00007FAD0ED007AF8EE677A88EE277ABDEC56
:101BD000028B84ED0E7A38BD143001F00BBA00BFD1
:101BE00038B500F1140504462DED028B284601F0AE
:101BF000F3F9284601F0FEF92846B0EE408A01F0DC
:101C0000E7F9D0ED007AF8EE677A88EE277ABDEC36
:101C1000028B84ED0E7A38BD08B5143001F0D8F986
:101C2000006808BD253002F085BA00BF10B540F24B
:101C300003338EB000244FF60B7240F20341ADF82F
:101C4000083009A80123ADF81020ADF82420224661
:101C5000ADF80C100094029907940C94CDE905445A
:101C6000CDE90A4402F08EF804A801232246039924
:101C7000009402F087F809A802F06AF910B901206F
:101C80000EB010BD04A802F063F9A0420CBF022000
:101C900020460EB010BD00BF2DE9F04103239AB0DD
:101CA000012700240646CDE914373B4BCDE910430C
:101CB00040F20453CDE91647ADF84830FFF7B6FFC0
:101CC000B842054625D0022845D040F60132334BB4
:101CD0000DF12C081894ADF82C200B981997CDF81D
:101CE0004A3000F0E3F810A906F13C0003F06CF96B
:101CF000302003224FF07E5341460D930E93CDE9E1
:101D00000B02F26B06F1140001F02AF91AB0BDE8DB
:101D1000F0811023214A06A906908DF828300DF194
:101D20002C081F4BCDF84A2007930294CDE91804E4
:101D3000CDE9080402A802F07DFB0823029A03A95A
:101D40004046ADF80C508DF80E40049505930B9469
:101D500000F0ECF8C7E700200121104B0DF12C0832
:101D60003A460094CDF84A304FF60B730C94ADF818
:101D70002C302346CDE9180140F601314046ADF83C
:101D800018100699CDE90D4401F0FCFF21464046AC
:101D900002F0EAF8A7E700BF040204040406040303
:101DA0000704010B2DE9F04704462DED028B82B0AC
:101DB00000294DD0012140F2011200230091ADF81D
:101DC00004208DF80630364A0127364B04F1040909
:101DD000354904F12908626040F20272A36040F6BE
:101DE0000663E16004F1250AA4F82520A4F829304F
:101DF000278284F8277084F82B7003F0AFFC054627
:101E000003F00AFB6946064650BB4DB304F13000AF
:101E10008DF8067003F022FC072D3CD104F1140567
:101E20002046FFF739FF284601F0E4F82846B0EED7
:101E3000408A01F0CDF8D0ED007AF8EE677A88EEAE
:101E4000277A84ED0E7A02B0BDEC028BBDE8F087F4
:101E500040F2011300918DF80610ADF80430B2E79E
:101E600004F1300003F0FAFB072D11D0494620465B
:101E700002F02AFD0EB9002DD0D1504602F07EF8B6
:101E8000404602F07BF804F1120000F079F9C5E752
:101E9000002EF2D1C2E74946204602F015FDBDE70B
:101EA0000508050905070506050A060610B584B0EC
:101EB00003460124ADF8040003A8ADF80C30ADF8DA
:101EC0000E4002F05BF8214603A802F033F92046E9
:101ED00003F0A0FA002103A802F02CF9204603F039
:101EE00099FA214603A802F025F904B010BD00BFFD
:101EF00010B5C2F3002384B00C46017C8DF80D2090
:101F000043EA4402FA2402238DF80C2003AA009429
:101F100002F026FB18B10124204604B010BD04468F
:101F20000A2003F077FA204604B010BD034670B5CE
:101F300043F8042B044684B007C983E80700A3795B
:101F400083B91A210B461E22FA2523742046ADF8C8
:101F50000C20022303AA009502F002FB28B1012005
:101F600004B070BD1B210B46EDE70A2003F052FAC6
:101F70004FF4B85200950223ADF80C20204603AA76
:101F8000217C02F0EDFA0028E9D10A2003F042FAA0
:101F900041F2027200950223ADF80C20204603AAFC
:101FA000217C02F0DDFA0028D9D10A2003F032FAB0
:101FB000042200950223ADF80C20204603AA217CC0
:101FC00002F0CEFA0028CAD10A2003F023FA062232
:101FD00000950223ADF80C20204603AA217C02F0D4
:101FE000BFFA0028BBD10A2003F014FA41F20822FC
:101FF00000950223ADF80C20204603AA217C02F0B4
:10200000AFFA0028ABD10A20064603F003FA009588
:10201000022303AA217C2046ADF80C6002F0A0FA4E
:1020200000289CD1304603F0F5F9009522790C2365
:102030002046002A8DF80C3003AA4FF0020314BF8B
:10204000622142218DF80D10217C02F089FA0028CE
:1020500085D1304603F0DEF92279D4E902310B4311
:10206000DBB20AB943F0400362790AB143F02003BE
:102070000E22FA258DF80D302046009502238DF8AA
:102080000C2003AA217C02F06BFA00287FF467AFD2
:102090000A2003F0BFF9102200950223ADF80C20AE
:1020A000204603AA217C02F05BFA00287FF457AF98
:1020B0000A2003F0AFF9122100950223ADF80C10AD
:1020C00003AA217C204602F04BFA00287FF447AF98
:1020D0000A2003F09FF9012209212046FFF708FF9B
:1020E000003818BF01203BE7F0B5102387B0234C20
:1020F000012200250126002702A920460195CDE9ED
:1021000002234FF48052CDE904670AF09DFE64205B
:1021100004F062F902A94FF480522046CDE9046729
:1021200002261027CDE902670AF08EFE0322102353
:1021300002A92046CDE9022300230422CDE904238D
:102140004FF480520AF080FE40F23223042202A9AA
:10215000019310232046CDE90223019A0123059221
:102160004FF4805204930AF06FFE40F606012046B9
:102170000AF08AFE284607B0F0BD00BF5C0F0024BD
:102180001C4B00221C494FF0400C30B5054689B06D
:102190000220596007219A601A620124DA620A2239
:1021A0004FF4006EDC6006922022CDE9000104208D
:1021B0000821CDE9020103201021CDE90401082006
:1021C0006946C3E904024FF4C072181DC3E906C290
:1021D0004FF48052C3E909E20AF00CFE38B92846F0
:1021E000FFF782FF003818BF012009B030BD20463C
:1021F00009B030BD580F002440410052614A00210F
:10220000D0B513688EB00A91002B40F0B9805E4BB8
:1022100001214FF683700C2411600221D3F8D420E1
:102220000026032742F48052C3F8D420D3F8D420E8
:1022300002F480520092009AD3F8E02042F010029B
:10224000C3F8E020D3F8E02002F010020192019AD6
:10225000D3F8E02042F04002C3F8E020D3F8E020B9
:1022600002F040020292029AD3F8E02042F0080203
:10227000C3F8E020D3F8E02002F008020392039AAA
:10228000D3F8E02042F48072C3F8E020D3F8E020D5
:1022900002F480720492049AD3F8E02042F08002A3
:1022A000C3F8E020D3F8E02002F080020592059AFE
:1022B000D3F8E02042F02002C3F8E020D3F8E02079
:1022C00002F020020692069AD3F8E02042F00402BF
:1022D000C3F8E020D3F8E0300C9403F00403079334
:1022E0000323079A0B93CDE9080108A9274805F0B5
:1022F000DFFF48F23712022308A925480C94CDE9E4
:102300000823CDE90A6705F0D3FF4CF203720223DC
:1023100008A920480C94CDE90823CDE90A6705F007
:10232000C7FF40F2FF62022308A91B480C94CDE9C5
:102330000823CDE90A6705F0BBFF4FF60C720223B4
:1023400008A916480C94CDE90823CDE90A6705F0E1
:10235000AFFF4FF63F02022308A911480C94CDE9C4
:102360000823CDE90A6705F0A3FF2022022308A96C
:102370000A480C94CDE90A67CDE9082305F098FFD7
:102380000EB0D0BD540F0024004402580010025873
:1023900000180258000C025800200258001C025875
:1023A000001402582DE9F04FDFF8108406460D4660
:1023B000144608F118002DED028B89B000AF02F031
:1023C000FBFED8F8183073B3D8F81C30D8F8049056
:1023D000002B43690BBF4FF0080A4FF0100A4FF073
:1023E000020B4FF0040BB9F1000F2AD0A200EA460D
:1023F000012B02F1070222F00702ADEB020D684645
:10240000ADEB020D694600F03F81022B00F0D68053
:10241000002B6FD02246C847D5462437BD46BDECB9
:10242000028BBDE8F08FD8F81C30002BF5D0D8F81F
:1024300004904FF0080A4FF0020B4369B9F1000F06
:10244000D4D1FB61D8F80030BB61002BE5D0D54872
:1024500002F024FF6B46BBF1020F786108EE103AE0
:10246000FB6900F083816A465146A2EBC40295469F
:102470006200EA46B2FBFBF2AAEBC40085460AEB17
:102480008200EE46F861ADEB010DF8690EEB820CAF
:10249000C7F810C0EC46ADEB010D00EB8201CCF8A3
:1024A0000400CCF8081001EB82013869E946CCF849
:1024B0000C1000EB8201CCF800A001EB8202C9E90C
:1024C00000E0C9E90212012B00F06483022B00F046
:1024D0006C82002B00F08081620849466046BB692F
:1024E000984718EE103A24379D46BD46BDEC028B46
:1024F000BDE8F08F002C8DD01A46D8ED0C6A9FED08
:10250000B27A8446331D36F922E00CF1080C07EE4E
:1025100090EA33F922E00232F8EEE77A944267EE6D
:10252000877A67EEA67A4CED027A07EE90EAF8EE2B
:10253000E77A67EE877A67EEA67A4CED017AE2D801
:10254000F9612246C847984ED8ED0D6A0020F96916
:102550002B1D9FED9E7A9FED9E6ADFED9E5A22E035
:10256000F4EEC67AF1EE10FAC0F2C88447F6FE72B5
:10257000D1ED017A45F8202066EEA77AF4EEC77A0D
:10258000F1EE10FA40F2F080F4EEC67AF1EE10FAB5
:10259000C0F2D58447F6FE7243F82020023008319D
:1025A00084427FF639AFD1ED007A66EEA77AF4EE79
:1025B000C77AF1EE10FAD3D83246D9E7002C3FF4AF
:1025C00029AFD8ED0C6A84469FED787A0022331D3E
:1025D0008E4656F822100CF1080C07EE901A53F8AC
:1025E00022100232F8EEE77A944267EE877A67EEBD
:1025F000A67A4CED027A07EE901AF8EEE77A67EECB
:10260000877A67EEA67A4CED017AE2D871462246C7
:10261000C7F81CE0C847664ED8ED0D6A0020F9697E
:102620002B1D9FED6A7A9FED6A6ADFF894C120E066
:10263000F4EEC67AF1EE10FAC0F279843246D1EDAA
:10264000017A45F8202066EEA77AF4EEC77AF1EE1B
:1026500010FA40F28780F4EEC67AF1EE10FAC0F27A
:102660005E84324643F820200230083184427FF6EF
:10267000D3AED1ED007A66EEA77AF4EEC77AF1EE2A
:1026800010FAD5D86246DAE7002C3FF4C3AED8ED95
:102690000C6A86469FED477A4FF0000C331D56F8C2
:1026A0002C200EF1080E82F40002A2F5000207EEC3
:1026B000902A53F82C200CF1020CF8EEE77A82F401
:1026C00000026445A2F5000267EE877A67EEA67AFB
:1026D0004EED027A07EE902AF8EEE77A67EE877AF7
:1026E00067EEA67A4EED017AD9D8F9612246C8473D
:1026F000314ED8ED0D6A0020F9692B1D9FED337A1C
:102700009FED336ADFF8BCC01FE0F4EEC67AF1EE4D
:1027100010FAC0F2FC833246D1ED017A45F8202050
:1027200066EEA77AF4EEC77AF1EE10FA18D9F4EE55
:10273000C67AF1EE10FAC0F2DA83324643F820206E
:102740000230083184427FF667AED1ED007A66EE42
:10275000A77AF4EEC77AF1EE10FAD6D86246DBE734
:102760006246EBE762467DE7324615E7A100D646B2
:102770006208073121F00701ADEB010DEA46ADEB30
:10278000010D6946ADEB0E0D0AEB8200EC46ADEB98
:102790000E0D01EB8202F861E946CCE900A0C9E91F
:1027A000001290E6AC0F00240280FFFF0000003012
:1027B0000082FF7F0000003482FF7F00900F002422
:1027C000007E00807E0080FF0000003804FF7FBF95
:1027D00004FF7F3F00FEFF46002C00F0C982BBF1E2
:1027E000020FD8F8242000F0FA827969C7F8049023
:1027F00002EB810E5FED0C5A8A00DCF808100EF136
:1028000004007A611A46DCF80C303B61331DD7F8BE
:1028100010903D61FD69C7E902CB8C46834636F9CD
:102820002210D8ED0C7A06EE101A33F9221006EEBB
:10283000901A3EF92210B8EEC66A07EE101AF8EEAA
:10284000E66A3BF92210B8EEC77A26EE256A66EEF4
:10285000A56A27EE257A26EE276A66EEA76A27EE96
:10286000277A07EE901A51080232F8EEE77A0AEB5F
:102870008100944280ED006A05EB810067EEA57A45
:10288000C0ED006A0CEB810009EB810180ED007A5C
:1028900098ED0C7A67EE877AC1ED007ABFD8D7F849
:1028A00004903D69D7E902CB60466208BB6949469E
:1028B0009847D8F82C307A69D8ED0D6A1A441FED84
:1028C0003D7A1FED3D6A2B1D904602F1040A5FED33
:1028D0003F5A0022A84ED9E900EC51E0F4EEC67A46
:1028E000F1EE10FAC0F2C78247F6FE7045F82200FA
:1028F0000CEB0100D0ED007A66EEA77AF4EEC77A11
:10290000F1EE10FA4BD9F4EEC67AF1EE10FAC0F2FD
:10291000BA8247F6FE70BBF1020F43F822002BD0BB
:10292000D9F808000844D0ED007A66EEA77AF4EEF4
:10293000C77AF1EE10FA36D9F4EEC67AF1EE10FA53
:10294000C0F2CD8247F6FE7048F82200D9F80C009C
:102950000144D1ED007A66EEA77AF4EEC77AF1EE83
:1029600010FA1ED9F4EEC67AF1EE10FAC0F2AF8278
:1029700047F6FE714AF82210023294427FF6B1AD5A
:1029800051080EEB81008900D0ED007A66EEA77A3F
:10299000F4EEC77AF1EE10FAA0D83046A6E730463A
:1029A000B9E73146E6E73046CEE7002C00F0E0819B
:1029B000BBF1020FD8F8243000F0E1817A69DCF82D
:1029C000081003EB820EC7F804909300DFED6B5AFA
:1029D0000EF1040000227B61DCF80C303B61331DFA
:1029E000D7F810903D61FD69C7E902CB8C4683465C
:1029F00056F82210D8ED0C7A07EE101A53F8221070
:102A0000B8EEC76A07EE101A5EF82210F8EEC76A31
:102A100007EE101A26EE256A5BF82210B8EEC77A88
:102A200066EEA56A26EE276A27EE257A66EEA76A85
:102A300027EE277A07EE901A51080232F8EEE77A6D
:102A40000AEB8100944280ED006A05EB810067EE9D
:102A5000A57AC0ED006A0CEB810009EB810180EDE5
:102A6000007A98ED0C7A67EE877AC1ED007ABFD8CC
:102A7000D7F804903D69D7E902CB60466208BB698C
:102A800049469847D8F82C307A69D8ED0D6A1A442F
:102A90009FED3E7A9FED3E6A131D9246DFF8E4C03B
:102AA0000022FB612B1D364ED9E9008E4EE0F4EE7C
:102AB000C67AF1EE10FAC0F2FC81304645F82200E9
:102AC0000EEB0100D0ED007A66EEA77AF4EEC77A3D
:102AD000F1EE10FA49D9F4EEC67AF1EE10FAC0F22E
:102AE000EF813046BBF1020F43F822002AD0D9F81B
:102AF00008000844D0ED007A66EEA77AF4EEC77AB3
:102B0000F1EE10FA35D9F4EEC67AF1EE10FAC0F211
:102B1000C98130464AF82200D9F80C000144D1EDB1
:102B2000007A66EEA77AF4EEC77AF1EE10FA1ED9B3
:102B3000F4EEC67AF1EE10FAC0F2AD813146F869D2
:102B400040F82210023294427FF6CBAC510808EBD9
:102B500081008900D0ED007A66EEA77AF4EEC77A9C
:102B6000F1EE10FAA3D86046A8E76046BAE76146DE
:102B7000E5E76046CEE700BF0280FFFF00000030BF
:102B80000082FF7F007E00800000003404FF7FBFD2
:102B900004FF7F3F002C00F0EB807A690021D8F819
:102BA0002430C7F8109003EB820ED7F81C909300E6
:102BB000FD610EF104021FED0C6A7B61331D1546A9
:102BC00056F821204808D8ED0C6ABBF1020F82F4B8
:102BD0000002A2F5000207EE902A53F8212082F4A9
:102BE0000002B8EEE77AA2F5000227EE067A07EEB9
:102BF000902A0AEB8002F8EEE77A27EE267A67EE53
:102C0000867A82ED007A09EB80024FEA800067EE57
:102C1000A67AC2ED007A27D05EF8212082F4000265
:102C2000A2F5000207EE902A55F8212082F4000256
:102C3000B8EEE77AA2F5000227EE067A07EE902AB0
:102C4000DCF80820F8EEE77A024427EE267A67EEF1
:102C5000867A82ED007A98ED0C7ADCF80C2067EE2B
:102C6000877A0244C2ED007A02318C42A8D8D7F8A4
:102C7000109060466208BB694946FD699847D8F8DC
:102C80002C307A69D8ED0D6A1A441FED407A1FED99
:102C9000406A131D9246DFF8C4C20022FB612B1D5F
:102CA000AB4ED9E9008E4EE0F4EEC67AF1EE10FAA2
:102CB000C0F2C580304645F822000EEB0100D0ED91
:102CC000007A66EEA77AF4EEC77AF1EE10FA49D9E7
:102CD000F4EEC67AF1EE10FAC0F2BF803046BBF1D6
:102CE000020F43F822002AD0D9F808000844D0ED9A
:102CF000007A66EEA77AF4EEC77AF1EE10FA35D9CB
:102D0000F4EEC67AF1EE10FAC0F2AE8030464AF820
:102D10002200D9F80C000144D1ED007A66EEA77AC2
:102D2000F4EEC77AF1EE10FA1ED9F4EEC67AF1EE9F
:102D300010FAC0F28B803146F86940F82210023256
:102D400094427FF6CEAB510808EB81008900D0EDAC
:102D5000007A66EEA77AF4EEC77AF1EE10FAA3D8FD
:102D60006046A8E76046BAE76146E5E76046CEE719
:102D7000224649466046BB699847FFF7B2BBC7F891
:102D800010B0002298ED0C6A331DDFED726AD7F89F
:102D90001CB0786956F8221007EE901A53F82210EA
:102DA000B8EEE77A07EE901A51080232F8EEE77AA9
:102DB00027EE267A0AEB810E94420BEB810167EE37
:102DC000A67A27EE067A67EE867A8EED007AC1ED56
:102DD000007ADFD88300D7F810B07B614DE61A4641
:102DE000C7F810B098ED0C6A331DDFED5B6AD7F8B9
:102DF0001CB0786936F9221007EE101A33F9221048
:102E000007EE901AB8EEC77A51080232F8EEE77A68
:102E100027EE267A0AEB810E94420BEB810167EED6
:102E2000A67A27EE067A67EE867A8EED007AC1EDF5
:102E3000007ADFD88300D7F810B07B6134E5F0EE7C
:102E4000675AFEEEE45A15EE900A34E7F0EE675A40
:102E5000FEEEE45A15EE901A6EE7F0EE675AFEEEBB
:102E6000E45A15EE900A3AE7F0EE675AFEEEE45A9D
:102E700015EE900A4BE767EEA57AFDEEE77A17EEBE
:102E8000900A00B232E567EEA57AFDEEE77A17EE1A
:102E9000900A00B23FE5F0EE675AFEEEE05A15EEFA
:102EA000901A4CE6F0EE675AFEEEE05A15EE900AE4
:102EB00030E6F0EE675AFEEEE05A15EE900AFDE5B8
:102EC000F0EE675AFEEEE05A15EE900A0AE667EE5B
:102ED000A57AFDEEE77A17EE901A09B24AE567EE99
:102EE000A57AFDEEE77A17EE900A00B22CE5F0EE37
:102EF000675AFEEEE45A15EE902A1FE467EEA57AB3
:102F0000FDEEE77A17EE902A12B2FFF731BBF0EE32
:102F1000675AFEEEE45A15EE902AFFF7FDBBF0EE7D
:102F2000675AFEEEE05A15EE902AFFF79BBBF0EED3
:102F3000675AFEEEE05A15EE902AFFF780BB67EE67
:102F4000A57AFDEEE77A17EE902A12B2FFF724BBBE
:102F500082FF7F0000000030000000387E0080FF0C
:102F600030B5184C154685B0046004F1080EEC46E7
:102F70000FC98EE80F00D4ED047AF5EEC07A8CE824
:102F80000F00F1EE10FA1ADDB7EE006A94ED057A43
:102F900027EE277AC6EE276A84ED0D7AC4ED0C6A17
:102FA0006DB1204640F8185F02F006F90649036942
:102FB0000020064A2162A262E36005B030BD012014
:102FC00005B030BD900F002400200030000000301C
:102FD00000680830704700BFB1F5807F03680A467B
:102FE00028BF4FF48072B1F5807F9A6094BF0020B3
:102FF000012070470068183002F03EB970B50468CF
:103000008AB0A369E160CBB104F11805284602F04B
:10301000D3F88446EE46E668BCE80F00AEE80F0041
:10302000BCE80F00AEE80F009CE803008EE8030048
:1030300069462846049601F0C7FFF8B9E069D8B19F
:1030400004F11C05284602F0B7F88446EE46E46811
:10305000BCE80F00AEE80F00BCE80F00AEE80F00C0
:103060009CE803008EE8030069462846049401F0BA
:10307000ABFF003818BF01200AB070BD01200AB0B4
:1030800070BD00BF30B5046883B00D46E3694BB135
:10309000A3680020E26A616A9B00009004F11C00B2
:1030A00002F08CF8A3680748A26A9B00216A00908E
:1030B00004F1180002F082F80020C4E9005003B0C7
:1030C00030BD00BFA523000810B4074B4FF07E5160
:1030D00030240022032019619C60D8605DF8044B05
:1030E0005961C3E906227047900F0024704700BF62
:1030F000F8B5134F3C687F2C07D98023114A42F260
:1031000024411C463B60A2F87E100F4D2B68012B1A
:103110000AD90C4E0D4D22463146284600F046F99C
:103120000028F8D13860F8BD22460649074800F06B
:103130003DF90028F7D12B68386001332B60F8BDCA
:10314000CC0F0024D00F0024C80F002450100024FE
:1031500030B4154C2168F1B14B1E144DE81810F82D
:1031600001298C4619460A2A01D00D2A02D14BB1F9
:10317000013BF4E70CF102037F2B10D9802323607D
:1031800030BC70470122022323600D200A236854BB
:10319000AB5430BC704701220223044DF4E70CF11C
:1031A00001026146F0E700BFCC0F0024D00F0024DD
:1031B00010B5094C02460B46084821680844C1F185
:1031C000800112F02DF9236818442060FFF7C0FF3A
:1031D000FFF78EFF10BD00BFCC0F0024D00F0024DE
:1031E0000FB400B583B004A951F8040B0191FFF7A7
:1031F000DFFF03B05DF804EB04B0704710B5044680
:1032000000210A4800F04CF8002C094B14BF0222A0
:10321000002208481A60FFF7E3FF0748FFF7E0FFC6
:103220000A20BDE8104002F0F5B800BF501000249D
:10323000C80F00245476010864760108064A07493D
:10324000074808B510F09CFC034A04490548BDE84E
:10325000084010F095BC00BF00000024ED300008CD
:10326000501000245410002470B5044682B0C1F3FD
:103270000726CDB2ADF8041002F0C4F84FF4807206
:103280004FF001232060A01DA571A280E671A3600C
:1032900002B0BDE8704000F071BE00BF704700BFD3
:1032A000012910B506D0022915D051B1BDE8104052
:1032B00006F0E0BE0A46344834490BF0FBFAE8B1A8
:1032C000FEE7334B0A46334C334934481C600BF05D
:1032D000F1FA68B1FEE701222C492B480BF0EAFA1B
:1032E00000B1FEE72E4928480BF006FBC0B1FEE70F
:1032F0002B492A480BF000FB60B1FEE72849224821
:103300000BF0FAFA00B1FEE726491F480BF082FAEB
:1033100008B3FEE7244921480BF07CFAA8B1FEE788
:10332000204919480BF076FA00B1FEE716480BF079
:10333000F9FA024640B9164B164C174917481C605B
:103340000BF0B8FA68B1FEE7FEE714480BF0EAFAB2
:103350000028ABD0FEE70C480BF0E4FA0028A5D01B
:10336000FEE70F490D480BF0C7FA00B1FEE70E4922
:103370000A480BF04FFA00B1FEE708480BF0D2FA0A
:10338000002893D0FEE700BFF4120024A40000241C
:10339000901500249D320008880000245810002455
:1033A0000C0100246800002458000024084691B253
:1033B00008B502F00DFB003818BF012008BD00BFA2
:1033C000014806F035B900BFF0410024014806F07D
:1033D0002FB900BFF0410024014806F029B900BF11
:1033E000F041002400B583B04FF0000E4FF0030C05
:1033F0004274ADF80410BDF8043080F810E0A0F875
:1034000002C0038003B05DF804FB00BF00B583B0C9
:10341000082AADF804104FF00301ADF800304180E8
:10342000BDF800C0BDF81010BDF804E0A0F804C05D
:1034300001811146BDF814C028BF0821042A9DF857
:103440001830A0F800E0A0F80CC0017408D8022AD7
:103450000ED801D10122C280437403B05DF804FB91
:1034600001224374C2804281C28103B05DF804FB33
:1034700001224374C280428103B05DF804FB00BFA7
:103480002DE9F04FDFF81C8300258DB0C04C037090
:1034900008F140034260074601920E462022294669
:1034A0004046C4F86831C4F86481CDE90255CDE9DD
:1034B0000455CDE90655CDE90855CDE90A5511F079
:1034C000E9F82022294604F5A170C4F83151C4F866
:1034D0003551C4F83951C4F83D5111F0DBF8019B66
:1034E00084F8485284F830317A68002A6AD02B4632
:1034F00004F59871454606F1100A9E46F01856F8F4
:1035000003B0E2180EF1010ED0F80CC0D0F8049010
:10351000D0F8088044F803B0C2F80CC04FF0000C9B
:10352000C2F80490C2F80880008A25F802CB108205
:103530001AF8032001F8012F002A70D07A684FF0A2
:1035400001001233724584F84802D7D84FF4802224
:1035500090489DF8043008214FF000084FF0000912
:10356000C4F884310023C4E95B020122C4F8743139
:1035700084F88031C4E95E2194F84812C4E9648972
:10358000A9B3C4F89821002284F8813184F88831E5
:103590003B78C4E96722002B38D0012200200121AA
:1035A000013B84F8A421C4E96C01082B30D8DFE882
:1035B00013F0BD00C200C700CC00D100D600DB0074
:1035C000E100E8009DF804300121C4F87421C4F83A
:1035D00084314FF4802384F880216E4AC4E95B2350
:1035E00008230022C4E95E130023C4E964230123F5
:1035F000002284F88131002384F888310323C4F841
:1036000098313B78C4E96722002BC6D184F8A431F5
:10361000614803F019FB034638B1FFBEFEE77A6844
:10362000123372453FF66AAF90E702A95A480293F7
:1036300003F068FC8246002876D1042240F2FF7134
:103640000A90CDE9081294F83021002A00F0F380A6
:103650004FF006080AEBCA034FEACA0904EB43031A
:103660005B7C072B07D8DFE803F0595C5653504DBD
:103670004A04072307930FFA8AF6D14406EBC606DD
:1036800004EB490904EB46077500384600F076FC68
:1036900099F81030042B00F3AA80022B00F3BD80B0
:1036A00000F0B98004EB0A03002283F8202114F80B
:1036B0001630002B78D0022B00F08A80012B40F0CE
:1036C000B2807B78012B00F0B080002B334B18BF09
:1036D000002305A93048CDE9053802F0E1FE0028B5
:1036E00040F0AC800AF1010A94F830315FFA8AFAAE
:1036F000534540F2A0802A4B53F82A80AAE70623BC
:103700000793B8E705230793B5E704230793B2E7C8
:1037100003230793AFE702230793ACE70023079344
:10372000A9E701230793A6E7FFBEFEE70322402394
:10373000C4E96A236CE707226023C4E96A2367E7C8
:103740000F228023C4E96A2362E71F22A023C4E971
:103750006A235DE73F22C023C4E96A2358E77F223A
:10376000E023C4E96A2353E7FF224FF48073C4E9DE
:103770006A234DE740F2FF124FF49073C4E96A23C5
:1037800046E740F2FF324FF4A073C4E96A233FE7F3
:103790009815002400200240041700240002B025E0
:1037A00074760108004000307B78062B37D0072B59
:1037B0003DD0022B4AD0032B4AD0002B4CD0012BFA
:1037C00048D0042B4AD0052B254B18BF002380E797
:1037D0007B78042B25D0052B2BD08BB3012B31D03C
:1037E000022B31D0032B1F4B18BF002371E703239B
:1037F000043504EB0A0B4FF0000925448BF8203107
:10380000284609F1010900F0B9FB9BF82031043585
:103810004B45F5DC4BE70123EAE70223E8E7124BCF
:1038200057E7124B55E7002353E7114B51E7114B74
:103830004FE7114B4DE70DB0BDE8F08FFFBEFEE73F
:103840000E4B46E70E4B44E70E4B42E70E4B40E76C
:103850000E4B3EE70E4B3CE70E4B3AE70E4B38E77C
:103860000000B84F002090360800900C1000C010E7
:103870002000F0148000501D000180210004002A67
:103880000008302E001060320040C03A0080F03E48
:1038900000005247000021430000844B38B5094C1A
:1038A00040F2FF724FF0011104F5B675284603F09F
:1038B000D7FA94F83021D4F864112846BDE838408E
:1038C00003F042B898150024064B0F29D3F8643151
:1038D00098BF03EB41031B8800EE103ABBEEC80A09
:1038E000704700BF98150024064B0F29D3F86831A4
:1038F00098BF03EB011333F8123000EE103ABBEE21
:10390000C80A704798150024214B02689A4200D0DB
:103910007047204A00232048D2F8D81030B51F4CF9
:1039200041F0200183B0C4F8D001092004F5E87506
:10393000C4E975034FF48060C2F8D810D2F8D820DB
:103940004FF40061C4E9773094F8480202F0200295
:10395000C4F8E4114FF40051984201922846C4F88B
:10396000E811C4E97C33019B14BF00234FF480733A
:10397000C4F8EC3103F0D2FD08B1FFBEFEE704F558
:10398000B673C4F8B851C4F8083203B030BD00BFF4
:1039900000200240004402584000024098150024D4
:1039A000014804F033B900BF6817002402682DE90C
:1039B000F84F4B4B9A4201D0BDE8F88F494D95F82E
:1039C0004832002BF8D095F83031002B77D0002406
:1039D00005F10C0905F5A17605F59877A04613E0E9
:1039E00003F0010117F811BCA9F1080000F0A2FBD7
:1039F000BBF1010F25D895F83031013409F11209D6
:103A00000236A2B293422BD917F8012F002AF4D024
:103A1000D5F864310021327833F81400D5F86831D4
:103A200003EB041323F81200338801339BB2338075
:103A30005FFA83FA3A789A42D2D88A46A6F800808A
:103A4000D0E7CAF34001A9F1040000F073FBBBF119
:103A5000020FCAF38001CED0484600F06BFBCAE7E4
:103A6000002395F84802204909229842C5F8D83128
:103A70004FF48060C5F8D011C5F8D4214FF400612F
:103A80004FF40052C5F8DC3108BF4FF48073C5F81D
:103A9000E821C5E9780100221448C5E97B32C5F860
:103AA000F42103F03BFD08B1FFBEFEE795F830219D
:103AB000D5F864110E48BDE8F84F02F045BF0A4939
:103AC00009224FF48060C5F8D831C5E974124FF46B
:103AD00000614FF40052C5E97730C5E97912DAE7A1
:103AE000002002409815002440000240681700247E
:103AF00004170024704700BF4F4B02689A4200D061
:103B000070474E4BD3F8E81030B541F000514C4CA3
:103B100085B0D4F84821C3F8E810D3F8E81001F0D4
:103B2000005101910199D3F8E01041F00101C3F86F
:103B3000E010D3F8E03003F001030293029B32F06F
:103B400002033DD0013A012A6BD9D4F84C31012B44
:103B50000AD000223620114603F048FA362005B07C
:103B6000BDE8304003F080BAD4F8483133F00202A7
:103B700034D0013B012BECD8442240233149324D53
:103B8000C4F88C1000212846C4F8B010C4E92423DE
:103B900000224FF48063C4E926234FF400624FF4FF
:103BA0000053C4E928234FF480724FF48033C4E9F2
:103BB0002A2303F0B3FC80B9E560C4F8C440C8E729
:103BC0004FF48062032303A8ADF80C208DF80E306B
:103BD00000F0D4F9D4F84821B4E7FEE71B4BA26308
:103BE0004322636140231A4DC4E9062300224FF4A7
:103BF00080632846C4E908234FF400624FF4005361
:103C0000C4E90A234FF480724FF48033C4E90C23D3
:103C100003F084FC20B9D4F84831A560E464A8E737
:103C2000FEE74FF4A062032303A8ADF80C208DF843
:103C30000E3000F0A3F988E70074004000440258F9
:103C4000E8170024280402407418002410040240DD
:103C5000FC170024014803F0D9BF00BFFC17002463
:103C6000014803F0D3BF00BF7418002410B5054C01
:103C7000204603F09FFA04F58270BDE8104009F079
:103C8000B1BA00BFE817002430B58C463A4C3B4D22
:103C90008DB0046004F5A27EBCE80F00AEE80F0012
:103CA000DCF8003020462560CEF8003003F06AFAD8
:103CB0000023D4F84C510393C5B11622012D049270
:103CC00017D00022D4F85411D4F848319142CDE9EC
:103CD000062218BF0222059233F0020235D0013BC2
:103CE000012B3CD9002528460DB030BD022304939A
:103CF000E7E7234A0093C4F80C31C4F81431C4F840
:103D00000421C4F81C31CDE9013301F025FDD4F8BC
:103D100044314BF68032C4F80851002B08BF1346DB
:103D2000B0FBF3F304F58270C4F8103109F0C4F865
:103D30000028D8D120230290694604F582700093B0
:103D400009F008FB0028BCD0CDE703A90A4803F01E
:103D500065FA78B9D4F84831013B012BC2D810225A
:103D600003A9054803F05AFA051E18BF0125284685
:103D70000DB030BD0125B6E7E817002400740040FF
:103D80000010004010B592B0ADF804100180C9B227
:103D9000149C0B29C460C0E901233FD090F801C0F6
:103DA000BCF10F0F3AD8022A3FD0032A02D0012AD1
:103DB00000D000220E92012B02D0022B18BF00234C
:103DC000022C0F932CD0032C2AD0012C28D00023B6
:103DD0000A29109327D85C4A02EB812202610A2942
:103DE00014D8DFE801F0A39587796B5D4F41332547
:103DF0000600564BD3F8E01041F48061C3F8E010A0
:103E0000D3F8E03003F480630C930C9B01230DA9DD
:103E1000104603FA0CF30D9304F04AFA12B010BDE9
:103E20000A291094D7D90022D8E711220E92C2E7AE
:103E3000464BD3F8E01041F40071C3F8E010D3F81A
:103E4000E03003F400730B930B9BDFE73F4BD3F899
:103E5000E01041F48071C3F8E010D3F8E03003F4CF
:103E600080730A930A9BD1E7384BD3F8E01041F0F6
:103E70008001C3F8E010D3F8E03003F08003099329
:103E8000099BC3E7314BD3F8E01041F04001C3F880
:103E9000E010D3F8E03003F040030893089BB5E747
:103EA0002A4BD3F8E01041F02001C3F8E010D3F81A
:103EB000E03003F020030793079BA7E7234BD3F8D9
:103EC000E01041F01001C3F8E010D3F8E03003F047
:103ED00010030693069B99E71C4BD3F8E01041F0C2
:103EE0000801C3F8E010D3F8E03003F008030593AD
:103EF000059B8BE7154BD3F8E01041F00401C3F8A4
:103F0000E010D3F8E03003F004030493049B7DE752
:103F10000E4BD3F8E01041F00201C3F8E010D3F8E3
:103F2000E03003F002030393039B6FE7074BD3F8E2
:103F3000E01041F00101C3F8E010D3F8E03003F0E5
:103F400001030293029B61E70000025800440258FB
:103F500008B5012143780069994089B204F0B0FBAB
:103F6000003818BF012008BD01230A4641780069C6
:103F700003FA01F189B204F0A9BB00BF8378022BD8
:103F800030B504468FB037D0032B33D0012B31D05E
:103F900000230A93E378012B2AD0022B28D0002398
:103FA0000B93002320460C9302F0F4F805462046BC
:103FB00002F0F8F823780990082B13D8DFE803F013
:103FC0001F3245586B7E91A40500594BD3F8E02071
:103FD00042F48072C3F8E020D3F8E03003F4807339
:103FE0000893089B09A9284604F062F90FB030BD78
:103FF0000B93D6E70A93CDE711230A93CAE74C4BFC
:1040000009A92846D3F8E02042F00102C3F8E020D5
:10401000D3F8E03003F001030093009B04F048F96B
:104020000FB030BD424B09A92846D3F8E02042F03A
:104030000202C3F8E020D3F8E03003F0020301935A
:10404000019B04F035F90FB030BD394B09A9284662
:10405000D3F8E02042F00402C3F8E020D3F8E030C7
:1040600003F004030293029B04F022F90FB030BD69
:104070002F4B09A92846D3F8E02042F00802C3F8E4
:10408000E020D3F8E03003F008030393039B04F02F
:104090000FF90FB030BD264B09A92846D3F8E02010
:1040A00042F01002C3F8E020D3F8E03003F0100330
:1040B0000493049B04F0FCF80FB030BD1C4B09A91D
:1040C0002846D3F8E02042F02002C3F8E020D3F8DD
:1040D000E03003F020030593059B04F0E9F80FB0EE
:1040E00030BD134B09A92846D3F8E02042F0400226
:1040F000C3F8E020D3F8E03003F040030693069BBA
:1041000004F0D6F80FB030BD094B09A92846D3F802
:10411000E02042F08002C3F8E020D3F8E03003F062
:1041200080030793079B04F0C3F80FB030BD00BFB6
:104130000044025870B506460D4602F02BF80446BE
:10414000304602F02FF82A1E0146204618BF0122F1
:10415000BDE8704004F0BABA0023122270B586B0F0
:10416000CDE9022304930368032B01D804230593AC
:10417000061D841D304602F00DF80546304602F05B
:1041800011F8034601A92846019304F091F820464E
:1041900002F000F8034620461C4602F003F801A98D
:1041A00003462046019304F083F806B070BD00BFBB
:1041B000634A0368934210B58CB028D0614A934299
:1041C00058D0614A934200F09480604A934201D0F3
:1041D0000CB010BD5E4C5F48D4F8E03043F00203F1
:1041E000C4F8E030D4F8E03003F002030A930A9BED
:1041F000FFF7B2FFD4F8F43043F08003C4F8F43092
:10420000D4F8F43003F080030B930B9BE0E7504CA1
:104210005148D4F8E03043F00203C4F8E030D4F859
:10422000E03003F002030193019BFFF795FFD4F800
:10423000E83000221F2043F400131146C4F8E83090
:10424000D4F8E83003F400130293029BD4F8D8307A
:1042500043F00103C4F8D830D4F8D83003F0010398
:104260000393039B02F0C2FE1F200CB0BDE8104078
:1042700002F0FABE364C3948D4F8E03043F08003FF
:10428000C4F8E030D4F8E03003F080030493049BDA
:10429000D4F8E03043F00203C4F8E030D4F8E03062
:1042A00003F002030593059BFFF756FFD4F8E830AF
:1042B0000022212043F480031146C4F8E830D4F8EA
:1042C000E83003F480030693069BD4F8D83043F01B
:1042D0000103C4F8D830D4F8D83003F001030793B1
:1042E000079B02F083FE21200CB0BDE8104002F0D5
:1042F000BBBE1B48FFF730FF154B00224820D3F808
:10430000E840114644F40004C3F8E840D3F8E8401C
:1043100004F400040894089CD3F8D84044F0010445
:10432000C3F8D840D3F8D83003F001030993099BB0
:1043300002F05CFE48200CB0BDE8104002F094BED4
:104340000054004000580040005C0040001C005831
:1043500000440258DC1B0024541900242C1A0024A9
:10436000041B00242DE9F0431A4B87B000254FF0C1
:1043700010099E46EC46184BFF22E04667461A702D
:104380000EF118060EF13004CDE90055CDE90255C5
:10439000ADF80090BCE80F00CDE90455AEE80F0081
:1043A0009CE803000095ADF800908EE80300B8E8A3
:1043B0000F000FC69CE803000095ADF8009086E85A
:1043C00003000FCF0FC49CE8030084E8030007B08C
:1043D000BDE8F083080000245019002410B5EFF365
:1043E000108472B6084B1A78120602D504B962B668
:1043F00010BD1B78D82205485BB202FB03001430C5
:1044000003F004FCF2E700BF501900245419002403
:10441000014804F0F3BF00BFE0190024014804F094
:10442000EDBF00BFB81A0024014804F0E7BF00BF89
:10443000901B00242DE9F0430F68D8243F4D85B030
:1044400007FB04F4032F05EB0403036040DCCB6897
:104450000E46012B3CD84DD04FF0D808B646DFF8B9
:10446000FC9008FB0758BEE80F00C446ACE80F00FC
:10447000DEF800300DF1100ECCF80030D8F808C08E
:1044800099E80F000EE90F000EEB8703BCF1010F56
:1044900053F8103CC8F88C3031D0BCF1020F42D038
:1044A000BCF1000F35D0317C8C34D82300220120A0
:1044B0002C4403FB07534900C3E92602C3F89410B8
:1044C0002046C3E92822C3E92A2204F089FD18B155
:1044D000012005B0BDE8F0830146204604F09AFFB4
:1044E0000028F5D10146204604F0BEFF003818BF71
:1044F0000120EEE70B7C103B672BADD9E8E701F01C
:1045000023F90F4B98420CBF0E4B0F4BC8F890305D
:10451000C9E701F019F90A4B98420CBF0B4B0C4B41
:10452000C8F89030BFE701F00FF9054B98420CBF77
:10453000084B094BC8F89030B5E700BF5419002468
:10454000000E27072D0FB0303211D0205F4390604E
:104550008A62E030200BA0101A098010AC740108A8
:104560002DE9F041D0F8008082B00D4617461E4676
:1045700008F18C04204604F049FF2028FAD1D8F82D
:104580000C3073B96D002046089C33463A46A9B2F8
:10459000009404F07BFD003818BF012002B0BDE894
:1045A000F081089B32463946204604F043FEF2E78C
:1045B000044B10221A7483F8E82083F8C02183F892
:1045C000982270475419002430B5002395B04FF459
:1045D0008071062204460B9306921393CDE90C13C7
:1045E000CDE90E33CDE9113301F0B8F807282BD00F
:1045F00004F1100541F2883206A9284605F086FE2E
:1046000028B10123184684F85C3015B030BD022271
:10461000022306A92846CDE9002310220123CDE973
:10462000022300224FF48003CDE9042305224FF03A
:10463000807306926A460F9341F2883305F0D2FFE9
:104640000028DED115B030BD0323012084F85C3092
:1046500015B030BD0000000070B50023A4B04FF0CD
:1046600080724FF480750446ADF806300D93CDE9A5
:1046700010320122CDE90E53CDE91223CDE91433D6
:10468000002943D0F02300F1100508AEADF8063044
:10469000C02341F2883231462846089305F036FEA1
:1046A00028B10123184684F85C3024B070BD41F273
:1046B00088320DF10601284605F092FE03460028D7
:1046C000EFD105224FF480711E93284616924FF0C9
:1046D00080721B9321931F9202AA9FED1F7BCDE94D
:1046E0001C13CDE922338DED027B9FED1D7B41F242
:1046F000883316A98DED047B9FED1B7B8DED067B2A
:1047000005F070FF0028CCD124B070BD00F1100579
:1047100008AE612341F2883231462846089305F0FD
:10472000F5FD0028BDD141F288320DF10601284681
:1047300005F0D4FE0028B4D1BDF80630204623F0A1
:10474000780343F04003ADF80630FFF73DFF002843
:104750009ED0A6E7AFF3008000000000010000003B
:1047600010000000010000000000000000004000F8
:104770002DE9F04F00234FF4807501264FF080782B
:1047800004462DED028BABB08DF8073013932193C7
:10479000299314950E96CDF85C80CDE91533CDE9BB
:1047A0001863CDE91A33CDE92253CDE92433CDE99D
:1047B000273306231C9300F0D1FF072808D004F10B
:1047C000100741F288321CA9384605F09FFD40B120
:1047D0000123184684F85C302BB0BDEC028BBDE899
:1047E000F08F4FF0020A4FF0020B4FF0050941F233
:1047F000883308AA1CA93846CDF89480CDF870906B
:104800009FED2D8BCDE908AB4FF0000A4FF4800BE4
:104810008DED0A8BCDE90CAB05F0E4FE0028D7D175
:1048200041F2883238460EA905F070FD0028CFD13C
:10483000402341F288320DF1070138468DF80730E8
:1048400005F0CEFD0028C3D141F288330EA902AA9B
:104850003846CDF83890CDF85C809FED197B8DED12
:10486000048BCDE906AB8DED027B05F0BBFE034664
:104870000028ADD1CDF870904FF00109CDF89480AB
:104880004FF00008219308AA29931CA938462295C5
:10489000CDE92333CDE9273341F288338DED0A8BFF
:1048A000CDE90CABCDE9088905F09CFE002893D03A
:1048B000304684F85C608FE71000000001000000C3
:1048C00040000000400000002DE9F043624CA3B01E
:1048D0000D46046000F042FF072800F0A980286818
:1048E00023466968AA6807C31E46AB8926F8043BBD
:1048F0003046257B677B05F0EBFCE0B9574B012D7B
:104900004FF00108E061236114BF4FF480134FF4AE
:104910000003C4E9058893FAA3F3B3FA83F34FF4D1
:104920008079013BC4F82490C4E90B00304623622F
:1049300005F062FC38B10122134684F85C20184669
:1049400023B0BDE8F08366230B90139041F28832C8
:1049500006A90693CDE90C90CDE90E00CDE9110032
:10496000304605F0D3FC0028E5D1992341F2883286
:1049700006A93046069305F0C9FC0028DBD10523C3
:104980001C9019906A4614934FF08073219014A9DB
:104990001D9341F288339FED2A7BCDE91A90CDE932
:1049A0001F008DED007B9FED287B30468DED027B57
:1049B0009FED277B8DED047B05F014FE0028BAD116
:1049C00029462046FFF748FE0028B4D12046FFF7CD
:1049D000CFFE03460028AED1002FB0D11893304649
:1049E0000027002606AA14A9CDF86890CDE91F3348
:1049F000EB2314934FF440631B934FF4005317932E
:104A00004FF440431C93A0231693062319934FF0B1
:104A1000805321934FF04073CDE906671D9305F055
:104A200059FE034600288AD0434684F85C8086E716
:104A300001230322184684F85C2023B0BDE8F083EC
:104A40000000000001000000100000000100000054
:104A50000000000000004000B41C00240050005280
:104A60002DE9F04F8FB0414B0024026800AF9A420D
:104A70007C63C7E90944C7E90B4403D03C37BD4612
:104A8000BDE8F08F3A4B40F609213A48EB46D3F89F
:104A9000D42007F11C0607F1220A4FF0020942F464
:104AA00080424FF00308C3F8D420D3F8D42002F496
:104AB0008042BA60BA68D3F8E02042F04002C3F8FE
:104AC000E020D3F8E02002F04002FA60FA68D3F860
:104AD000E02042F02002C3F8E020D3F8E02002F00A
:104AE00020023A613A69D3F8E02042F01002C3F89C
:104AF000E020D3F8E02002F010027A617A69D3F85E
:104B0000E02042F00202C3F8E020D3F8E030F86180
:104B100003F002033984BB61174B7B60BB697B6880
:104B200053F8040F7B6001F035FB7B68054618687D
:104B300001F038FB16F8013B786207F124012846A2
:104B4000C7F830807B63C7E90A9403F0B1FB564590
:104B5000E5D100225C20114602F048FA5C2002F008
:104B600083FA3C37DD46BD46BDE8F08F0050005269
:104B7000004402580A0A0909101D0024114B02685A
:104B80009A4200D07047104A70B5D2F8D4300F4C1A
:104B900023F4804304F11806C2F8D43054F8040F0B
:104BA00001F0F8FA0546206801F0FCFA01462846B3
:104BB00003F0BEFCB442F1D15C20BDE8704002F0CD
:104BC00061BA00BF0050005200440258101D00247A
:104BD000014805F00BBE00BFC41C0024084B1A1D81
:104BE000981D03F1080110B49C1C9A6603F10A0297
:104BF000C3E91834C3E91B015DF8044B5A677047D9
:104C0000B41C002438B5036871B9026A00F12805A4
:104C100000F5AC74012A0CBF002140218BBB1D4B59
:104C20005722C0F858310DE0426A00F1C00500F586
:104C3000E874012A0CBF00214021EBB1164B5A2227
:104C4000C0F8D03100232046C4E901214FF480523E
:104C50004FF48061636262614FF48042C4E90331C2
:104C60004FF48073C4E906234FF40033236202F04B
:104C700055FC58B1FFBEFEE7084B5822C0F8D031B2
:104C8000E0E7074B5922C0F85831DBE7C5E920447B
:104C9000A56338BD100002407000024028000240A9
:104CA000580002402DE9F043821D05468BB0031DDC
:104CB00005F10A010830CDE9052305F10C02AB69C5
:104CC000CDE907010992002B3DD0EB69B3FA83F8D7
:104CD0004FEA58180123022205AE0AAF4FF0060929
:104CE0000393CDE9012356F8044B2B7922789342A4
:104CF00016D02B68F3B1012B02D1F2B10A23049331
:104D0000204601F04FFA03462046009301F042FA94
:104D1000694603F0CDFABE42E5D10BB0BDE8F083A1
:104D2000697963789942E4D1B8F1000FF3D02B6828
:104D3000002BE0D1CDF81090E2E76378022B14BF8E
:104D40000A230823DBE74FF00108C3E7534A03684F
:104D5000934230B505468BB055D02032934252D0A5
:104D60004F4A934204D02032934201D00BB030BD61
:104D70004C4C4D48D4F8E03043F00103C4F8E03027
:104D8000D4F8E03003F001030593059BD4F8E0303C
:104D900043F00803C4F8E030D4F8E03003F008032F
:104DA0000693069BD4F8E03043F04003C4F8E030AB
:104DB000D4F8E03003F040030793079BD4F8F030B9
:104DC00043F40003C4F8F030D4F8F03003F40003E7
:104DD0000893089BFFF766FFD4F8D830296843F0A2
:104DE00001032F4A3048C4F8D830891AD4F8D83093
:104DF00018BF012103F001030993099B0BB0BDE823
:104E00003040FFF7FFBE274C2848D4F8E03043F08D
:104E10000103C4F8E030D4F8E03003F0010300935C
:104E2000009BD4F8E03043F01003C4F8E030D4F82D
:104E3000E03003F010030193019BD4F8E03043F01D
:104E40004003C4F8E030D4F8E03003F040030293AC
:104E5000029BD4F8F03043F48003C4F8F030D4F867
:104E6000F03003F480030393039BFFF71BFFD4F898
:104E7000D830296843F00103084A0C48C4F8D830F8
:104E8000891AD4F8D83018BF012103F00103049324
:104E9000049B0BB0BDE83040FFF7B4BE045801409E
:104EA000045C014000440258881F00242C1D00248B
:104EB000014802F0ABBE00BF841E0024014802F08E
:104EC000A5BE00BFFC1E0024014802F09FBE00BF2B
:104ED000E0200024014802F099BE00BF58210024C0
:104EE0001A4A0368934210B40BD02032934208D080
:104EF000174A934216D02032934213D05DF8044BE8
:104F00007047144B0022D3F85442C3F85822002CA7
:104F1000F4D0D3F84802D3E9931223465DF8044B4A
:104F2000520818470B4B0022D3F8B044C3F8B424FE
:104F3000002CE3D0D3F8AC24D3F8A814D3F8A404FD
:104F4000520823465DF8044B184700BF045801403F
:104F5000045C01402C1D0024184A0368934210B4DD
:104F60000BD02032934208D0154A934217D02032FA
:104F7000934214D05DF8044B7047124BD3E994244C
:104F80005208C3F85822002CF4D0D3E992012346EA
:104F900001EB820100EB82005DF8044B1847094BDE
:104FA000D3F8AC24D3F8B0445208C3F8B424002C8E
:104FB000E0D0D3F8A814D3F8A404E8E704580140DB
:104FC000045C01402C1D00242DE9F04F0C684FF4C7
:104FD0001776754F87B004FB06F6012C07EB060A1F
:104FE000C0F800A000F3A0800D468E464FF00008E8
:104FF000D44669A3D3E9002369A1D1E90001CDE931
:10500000022306ABCAF8508203EB8403CDE9040106
:1050100053F810BC53F8083CCAE992880193BEE8E3
:105020000F00ACE80F00BEE80F00ACE80F00019BDA
:105030009EE80300CAF828B0CAF8C0308CE8030024
:105040002B69042B0CD8DFE803F0737D87910300F4
:105050004FF41773554A03FB04739A64C3F8E020B6
:10506000AA692B6A002A43D0002B4FF4177308BF9C
:10507000022203FB047318BF0322DA6201221A63BF
:10508000EA696B6A002A40D1191E4FF4177318BFE2
:10509000012103FB0473C3E931126B69022B05D8AC
:1050A000434A12F80380434A52F823904FF417738F
:1050B00006F128004246494603FB047400233844A5
:1050C00063646363E365C4F8DC30C4F8CC30C4F8CF
:1050D000F430C4E90F33C4E91533C4E93533C4E906
:1050E0003B33022307F024FC002849D0FFBEFEE733
:1050F000191E4FF4177318BF012103FB0473C3E992
:105100000B12EA696B6A002ABED0002B4FF41773AA
:1051100008BF022203FB047318BF0322C3F8C42094
:105120000122C3F8C820B8E7012007B0BDE8F08F1E
:105130004FF417734FF4FA5203FB04739A64C3F8E5
:10514000E0208DE74FF417734FF47A5203FB04739A
:105150009A64C3F8E02083E74FF417734FF4FA42E0
:1051600003FB04739A64C3F8E02079E74FF41773E4
:105170004BF6803203FB04739A64C3F8E0206FE7B8
:1051800006F1C000022342464946384407F0D0FBEE
:105190000028CAD0FFBEFEE704580140045C01406D
:1051A00024580140245C01402C1D0024007701009C
:1051B000B4760108B87601080068704770B50468D5
:1051C00082B015460E46C4F85032C4E99212069ACF
:1051D000C4F85422A269012A26D0626A012A9AB22E
:1051E00011D0294604F1C000019207F05DFC236A4A
:1051F000019A012B10D0294604F1280007F054FC35
:10520000002002B070BD04F1C000019207F0DEFC86
:10521000236A019A012BEED1314604F1280007F0F0
:10522000D5FC002002B070BD226A012A9AB211D0CA
:10523000294604F12800019207F036FC636A019ABE
:10524000012B10D0294604F1C00007F02DFC0020EE
:1052500002B070BD04F12800019207F0B7FC636A48
:10526000019A012BEED1314604F1C00007F0AEFCEB
:10527000002002B070BD00BF03681B69042B05D875
:10528000044A02EB830393ED000A70479FED020A84
:10529000704700BFC476010800803B470368D3F81D
:1052A00058027047704700BF08B501F083F8BDE8A9
:1052B000084001F063BF00BF064808B503680BB1A2
:1052C00003F008FA044803681BB1BDE8084004F085
:1052D000AFB908BD004C0024F8450024064808B5C5
:1052E00003680BB103F0F6F9044803681BB1BDE88D
:1052F000084004F09DB908BD004C0024F845002486
:10530000064808B503680BB103F0E4F904480368E4
:105310001BB1BDE8084004F08BB908BD004C002467
:10532000F8450024364BDA6A520062D59A6A9A6AC6
:105330009A6A9B6A180600D500BE314B9B6A990693
:1053400000D500BE2E4B9B6ADA0600D500BE2C4B62
:105350009B6A1B0700D500BE294B9B6A980700D5A6
:1053600000BE274B9B6AD90700D500BE244B9B6A21
:105370001A0400D500BE224B9B6A9B0400D500BED8
:105380001F4B9B6AD80400D500BE1D4B9B6A1905B4
:1053900000D500BE1A4B9B6A5A0500D500BE184BBB
:1053A0009B6A9B0500D500BE154B9B6AD80500D5AE
:1053B00000BE134B9B6A990100D500BE104B9B6A3F
:1053C000DA0100D500BE0E4B9B6A1B0300D500BE60
:1053D0000B4B9B6A580300D500BE094B9B6A99038F
:1053E00000D500BE064B9B6ADA0306D400BE00BEA1
:1053F000FEE7DB6A9B07FAD5F8E700BEF6E700BFD9
:1054000000ED00E000F0E2BF01480AF069BF00BF14
:10541000E421002400F0E0BF0A4B9B6803F17843CD
:10542000B3F5003F0BD3084B986848B19868012842
:1054300006D09868022803D09B680320704701209B
:10544000704700BF00ED00E0000080382DE9F0411A
:10545000CEB004464C2200210AA80FF01BF92022EE
:10546000002102A80FF016F9BC2200211EA80FF09F
:1054700011F9022004F0D8FD2368012B4FF000033E
:1054800054D0534A02250193C820D16A514B21F0D0
:105490000101D162D26A02F0010201929A6942F4DA
:1054A00040429A619B6903F440430193019B494A3E
:1054B00093699B04FCD548490224002201268B6A8B
:1054C00004274FF0080823F0030323438B620523CE
:1054D00016900AA818934FF48033109617941994D5
:1054E0001597CDF86880CDE91B222122CDE9134420
:1054F000CDE90A2305F082FA00B1FEE73F2203233B
:10550000294602A8CDE9022300220823CDE904237D
:1055100040224023CDE9062340234FF48062CDE9A9
:10552000082305F099FD0346B8B1FEE7294A042592
:105530000093F0209169264B41F4404191619269BA
:1055400002F440420092DA6A42F00102DA62DB6A57
:1055500003F001030093009BA9E720224FF4805140
:1055600025934FF440152B9280222D931EA8309343
:10557000269135914FF48071249234920C22339409
:10558000439140F2271120921022CDF884802A976F
:105590001F96CDE92E34CDE93B334FF48033CDE96E
:1055A00022463193002446930623CDE93E452793B6
:1055B0004FF48063094C2C931E94CDE9281205F01A
:1055C000A7FF00B1FEE704F055FD4EB0BDE8F08145
:1055D0000004005800480258004402580F130F03FB
:1055E00070B584B0012401F077FD4FF480764FF060
:1055F0004052194B68460025ADF800400396CDE9AE
:10560000012301F087FD19224FF0404368468DF8D1
:10561000082001938DF80F40ADF80D608DF8014022
:105620008DF80A5001F076FD02230B2268468DF8B2
:105630000F508DF801304FF062538DF80820019320
:10564000ADF80D408DF80A4001F064FD042001F032
:1056500051FD04B070BD00BF0E00010330B50D4612
:10566000044685B0D1E9000184E8030000F072FE31
:10567000AB79A3B30BF034FDFEF774FE0AF096F994
:105680000BF026FA2B798BBB6B799BB1BFF34F8F55
:10569000BFF36F8F2A4B0022C3F85022BFF34F8F06
:1056A000BFF36F8F5A6942F400325A61BFF34F8FD4
:1056B000BFF36F8F4FF0FF320023002400256946AF
:1056C000204802928DF80C30CDE900450AF08EFD9D
:1056D0001C480AF0F3FD09F099FD05B030BD2046E5
:1056E000FFF7B4FE2046FFF77BFFC3E7144C00230F
:1056F000C4F88430BFF34F8FD4F8801043F6E07EB7
:10570000C1F34E3CC1F3C9014FEA4C1C0CEA0E0038
:105710000B4640EA8372013BC4F860225A1CF8D160
:10572000ACF1200C1CF1200FF0D1BFF34F8F636957
:1057300043F480336361BFF34F8FBFF36F8FA3E7F1
:1057400000ED00E0E421002405F0B6BD08B505F049
:10575000B3FD400008BD00BF05F0CABD1C4B9B68EF
:1057600003F17842B2F5003F25D3B3F5803F20D353
:1057700003F16042B2F5003F1FD303F15C42B2F582
:10578000002F1CD303F17042B2F5902F19D303F10F
:105790004842B2F5803F16D303F18042B2F1806FE8
:1057A00013D303F1E043B3F5000F2CBF082007200B
:1057B0007047012070470020704702207047032087
:1057C000704704207047052070470620704700BFCF
:1057D00000ED00E003480023034A044903600EF093
:1057E000CFB900BFE421002400000024A552000826
:1057F00010B4204C0022204B83B0D4F888101F48EE
:1058000041F47001C4F8881019681D4C41F0010181
:1058100019601A61196808401A4918609A61DA61BA
:105820001A629A62DA621A635A639A63DA631A64D2
:105830005A64186820F4802018601A66D3F8DC20B7
:1058400042F06042C3F8DC20D3F8DC300193019BC6
:1058500023681940B1F1005F03D20B4B0122C3F85A
:105860000821044B4FF000629A6003B05DF8044BCE
:10587000704700BF00ED00E0004402587FEDF6EAFB
:105880000010005C0000FFFF00800051704700BF67
:105890000020704770B50446074E0D46304621463D
:1058A00008F0CAFF304608F0E9FF044B20462946BD
:1058B0001B689847002070BD58100024E841002460
:1058C00070B50446074E0D463046214608F0B4FF39
:1058D000304608F0D3FF044B204629461B68984702
:1058E000002070BDF4120024EC410024002209497C
:1058F000094808B508F096FF0849074808F09CFFDA
:10590000074B1A680AB1002008BD064A00201A6039
:1059100008BD00BFE831002458100024E82100240D
:10592000E84100248D58000800220949094808B5BB
:1059300008F078FF0849074808F07EFF074B1A680F
:105940000AB1002008BD064A00201A6008BD00BF49
:10595000E8390024F4120024E8290024EC41002452
:105960008D58000820280AD0212806D1094B186834
:105970009A889B7908608A808B7100207047054B5C
:105980000868B1F804C08A7918600020A3F804C040
:105990009A7170477800002420280AD0212806D167
:1059A000094B18689A889B7908608A808B7100205F
:1059B0007047054B0868B1F804C08A791860002068
:1059C000A3F804C09A71704780000024002070473B
:1059D00010B5094CD4F89032D3F814320BB1012031
:1059E00010BD0A460146204608F01CFF2046BDE8CF
:1059F000104008F029BF00BF581000244B4A03682C
:105A000030B593428BB04FF00004CDE90444CDE9AA
:105A10000644089404D0464A934249D00BB030BDA6
:105A2000444D4FF4C0524448D5F8E03043F00103F0
:105A3000C5F8E030D5F8E03003F00103009302230D
:105A4000009904A9CDE904230A23089302F030FC4D
:105A50004FF40072002304A937480694CDE90423CB
:105A600002F026FCD5F8D8302246214643F00063E8
:105A70006220C5F8D830D5F8D83003F00063019320
:105A8000019B01F0B3FA622001F0EEFA22462146B2
:105A9000632001F0ABFA632001F0E6FA22462146CA
:105AA000652001F0A3FA652001F0DEFA0BB030BDED
:105AB000204D4FF4404204A9D5F8E03043F00203F2
:105AC000C5F8E030D5F8E03003F00203029302237A
:105AD00002981A48CDE904230C23089302F0E8FB4E
