:020000040800F2
:1000000000000220010A0008FD090008154C000844
:10001000FD090008FD090008FD09000800000000B6
:10002000000000000000000000000000FD090008C2
:10003000FD09000800000000FD090008994B0008B8
:10004000FD090008FD090008FD090008FD09000878
:10005000FD090008FD090008FD090008FD09000868
:10006000FD090008FD090008FD090008A147000876
:10007000AD47000805350008B9470008C547000826
:1000800045ED0008D13C0008FD090008FD09000805
:10009000FD090008FD090008FD090008FD09000828
:1000A000FD090008FD090008FD090008FD09000818
:1000B0005DE1000869E1000875E10008053D000800
:1000C000FD090008113D0008FD090008CDD9000810
:1000D000D9D9000879EB0008A5EB0008D9EB000896
:1000E000FD090008FD09000800000000FD090008E6
:1000F000FD090008FD090008FD090008FD090008C8
:10010000FD090008FD09000881E10008E5D90008A3
:100110000DEC000841EC0008FD090008FD0900088D
:10012000FD090008FD09000809DA00083DDA0008A9
:1001300079ED0008FD090008FD090008FD09000827
:1001400000000000000000000000000000000000AF
:10015000FD090008FD090008FD09000875EC00080C
:100160001D3D0008FD090008A94B0008CD4B000803
:10017000FD090008F14B0008FD090008FD09000811
:10018000FD090008FD090008A9EC0008DDEC0008E5
:10019000F1D90008FDD90008FD090008FD09000893
:1001A000FD090008FD090008FD090008FD09000817
:1001B000C1440008FD090008FD090008FD09000808
:1001C000FD090008FD090008252F0008312F00084F
:1001D000FD0900083D2F0008FD090008FD09000881
:1001E000FD090008FD090008FD090008FD090008D7
:1001F000FD090008FD090008FD090008FD090008C7
:10020000FD090008FD090008FD090008FD090008B6
:10021000FD090008FD090008FD090008FD090008A6
:10022000FD090008FD090008FD09000800000000A4
:10023000FD090008FD09000800000000FD09000894
:10024000FD090008FD090008FD090008FD09000876
:10025000FD090008FD090008FD090008FD09000866
:10026000FD090008FD090008FD090008FD09000856
:10027000FD090008FD09000811ED0008000000005C
:10028000FD090008FD090008FD0900080000000044
:0802900000000000FD09000858
:1002A00010B5054C237833B9044B13B10448AFF3B0
:1002B00000800123237010BDE8030024000000002B
:1002C000BC42010808B5034B1BB103490348AFF317
:1002D000008008BD00000000EC030024BC420108BF
:1002E00001F0FF01102A2BDB10F0070F08D010F8E7
:1002F000013B013A8B422DD010F0070F42B3F6D1EB
:10030000F0B441EA012141EA014122F007047FF003
:1003100000070023F0E80256083C85EA010586EA5A
:10032000010685FA47F5A3FA87F586FA47F6A5FA96
:1003300087F68EB9EED1F0BC01F0FF0102F00702A2
:1003400032B110F8013B013A83EA010313B1F8D14D
:100350000020704701387047002D06BF354603382E
:10036000073815F0010F07D1013015F4807F02BF67
:10037000013015F4C03F0130F0BC0138704700BFB8
:1003800081F0004102E000BF83F0004330B54FEA46
:1003900041044FEA430594EA050F08BF90EA020FB3
:1003A0001FBF54EA000C55EA020C7FEA645C7FEA46
:1003B000655C00F0E2804FEA5454D4EB5555B8BF69
:1003C0006D420CDD2C4480EA020281EA030382EADA
:1003D000000083EA010180EA020281EA0303362D6C
:1003E00088BF30BD11F0004F4FEA01314FF4801C3F
:1003F0004CEA113102D0404261EB410113F0004F51
:100400004FEA03334CEA133302D0524263EB430307
:1004100094EA050F00F0A780A4F10104D5F1200EA5
:100420000DDB02FA0EFC22FA05F2801841F1000100
:1004300003FA0EF2801843FA05F359410EE0A5F1D4
:1004400020050EF1200E012A03FA0EFC28BF4CF005
:10045000020C43FA05F3C01851EBE37101F00045BB
:1004600007D54FF0000EDCF1000C7EEB00006EEBC8
:100470000101B1F5801F1BD3B1F5001F0CD3490852
:100480005FEA30004FEA3C0C04F101044FEA4452A9
:1004900012F5800F80F09A80BCF1004F08BF5FEA30
:1004A000500C50F1000041EB045141EA050130BD10
:1004B0005FEA4C0C404141EB0101013C28BFB1F522
:1004C000801FE9D291F0000F04BF01460020B1FA6D
:1004D00081F308BF2033A3F10B03B3F120020CDA40
:1004E0000C3208DD02F1140CC2F10C0201FA0CF01E
:1004F00021FA02F10CE002F11402D8BFC2F1200C83
:1005000001FA02F120FA0CFCDCBF41EA0C01904038
:10051000E41AA2BF01EB0451294330BD6FEA040481
:100520001F3C1CDA0C340EDC04F11404C4F120026C
:1005300020FA04F001FA02F340EA030021FA04F37E
:1005400045EA030130BDC4F10C04C4F1200220FAD5
:1005500002F001FA04F340EA0300294630BD21FA13
:1005600004F0294630BD94F0000F83F4801306BFD9
:1005700081F480110134013D4EE77FEA645C18BFCD
:100580007FEA655C29D094EA050F08BF90EA020F64
:1005900005D054EA000C04BF1946104630BD91EA5C
:1005A000030F1EBF0021002030BD5FEA545C05D15F
:1005B0004000494128BF41F0004130BD14F580049E
:1005C0003CBF01F5801130BD01F0004545F0FE4112
:1005D00041F470014FF0000030BD7FEA645C1ABF47
:1005E000194610467FEA655C1CBF0B46024650EA7E
:1005F000013406BF52EA033591EA030F41F40021AA
:1006000030BD00BF90F0000F04BF0021704730B52F
:100610004FF4806404F132044FF000054FF0000104
:1006200050E700BF90F0000F04BF0021704730B5C5
:100630004FF4806404F1320410F0004548BF40429A
:100640004FF000013EE700BF42004FEAE2014FEAEF
:1006500031014FEA02701FBF12F07F4393F07F4FCA
:1006600081F06051704732F07F4208BF704793F0CD
:100670007F4F04BF41F40021704730B54FF46074E0
:1006800001F0004521F000411CE700BF50EA0102E3
:1006900008BF704730B54FF000050AE050EA01028C
:1006A00008BF704730B511F0004502D5404261EBFC
:1006B00041014FF4806404F132045FEA915C3FF43D
:1006C000D8AE4FF003025FEADC0C18BF03325FEADA
:1006D000DC0C18BF033202EBDC02C2F1200300FA8B
:1006E00003FC20FA02F001FA03FE40EA0E0021FAB0
:1006F00002F11444BDE600BF53B94AB9002908BF4E
:1007000000281CBF4FF0FF314FF0FF3000F074B9EC
:10071000ADF1080C6DE904CE00F006F8DDF804E058
:10072000DDE9022304B070472DE9F047089D044637
:100730008E46002B4DD18A42944669D9B2FA82F294
:1007400052B101FA02F3C2F1200120FA01F10CFAD0
:1007500002FC41EA030E94404FEA1C48210CBEFB08
:10076000F8F61FFA8CF708FB16E341EA034306FB91
:1007700007F199420AD91CEB030306F1FF3080F020
:100780001F81994240F21C81023E63445B1AA4B26D
:10079000B3FBF8F008FB103344EA034400FB07F70F
:1007A000A7420AD91CEB040400F1FF3380F00A8150
:1007B000A74240F207816444023840EA0640E41B45
:1007C00000261DB1D4400023C5E900433146BDE8F1
:1007D000F0878B4209D9002D00F0EF800026C5E993
:1007E000000130463146BDE8F087B3FA83F6002EAB
:1007F0004AD18B4202D3824200F2F980841A61EB23
:10080000030301209E46002DE0D0C5E9004EDDE740
:1008100002B9FFDEB2FA82F2002A40F09280A1EB28
:100820000C014FEA1C471FFA8CFE0126200CB1FB7D
:10083000F7F307FB131140EA01410EFB03F0884276
:1008400008D91CEB010103F1FF3802D2884200F203
:10085000CB804346091AA4B2B1FBF7F007FB101195
:1008600044EA01440EFB00FEA64508D91CEB040433
:1008700000F1FF3102D2A64500F2BB800846A4EB8E
:100880000E0440EA03409CE7C6F12007B34022FA79
:1008900007FC4CEA030C20FA07F401FA06F31C43A8
:1008A000F9404FEA1C4900FA06F3B1FBF9F8200CB5
:1008B0001FFA8CFE09FB181140EA014108FB0EF0FB
:1008C000884202FA06F20BD91CEB010108F1FF3A4B
:1008D00080F08880884240F28580A8F10208614457
:1008E000091AA4B2B1FBF9F009FB101144EA014165
:1008F00000FB0EFE8E4508D91CEB010100F1FF3410
:100900006CD28E456AD90238614440EA0840A0FBA7
:100910000294A1EB0E01A142C846A64656D353D07D
:100920005DB1B3EB080261EB0E0101FA07F722FAA1
:1009300006F3F1401F43C5E9007100263146BDE8CA
:10094000F087C2F12003D8400CFA02FC21FA03F32D
:10095000914001434FEA1C471FFA8CFEB3FBF7F0AE
:1009600007FB10360B0C43EA064300FB0EF69E42D3
:1009700004FA02F408D91CEB030300F1FF382FD26C
:100980009E422DD9023863449B1B89B2B3FBF7F614
:1009900007FB163341EA034106FB0EF38B4208D9ED
:1009A0001CEB010106F1FF3816D28B4214D9023E2E
:1009B0006144C91A46EA004638E72E46284605E74C
:1009C0000646E3E61846F8E64B45A9D2B9EB02081D
:1009D00064EB0C0E0138A3E74646EAE7204694E7AD
:1009E0004046D1E7D0467BE7023B614432E73046E0
:1009F00009E76444023842E7704700BFFEE700BFE2
:100A00000B480C4A904203D0121A0B4912F098F886
:100A10000A480B4A904203D0121A002112F0B8F88B
:100A200004F050FB12F068F800F02AF8FEE700BF6F
:100A300000000024E4030024F0420108E80300243D
:100A4000F03A0024704700BF704700BFA2B170B5F4
:100A50000D4616460024094800F0CEFED5E90003F5
:100A600000EB840003EB8403013480ED000AA6420E
:100A700083ED000AEFD170BD704700BF3806002437
:100A800008B50023012164481A462DED028B00F0C1
:100A900013FA052304226048194600F00DFA0323D7
:100AA0005D481A46194600F007FA072204235A48FF
:100AB000114600F001FA022357481A46194600F081
:100AC000FBF9062207235448114600F0F5F90123EB
:100AD000042151481A4600F0EFF9052206230821A7
:100AE0004D4800F0E9F900214B4800F0C3FC4B4BA6
:100AF0004B48196800F064FF0421494800F040FFAA
:100B00004849474800F038FF454800F055FFB0EE2F
:100B1000408A454800F0E4FC4448B0EE480A00F042
:100B2000DFFC04F0E7F801463D48C1F30901B1F5E7
:100B3000FF7F8CBF0021012100F05EFF03213648BA
:100B400000F03AFA384800F043FE0721324800F03E
:100B500033FA364800F03CFE02212F4800F02CFA10
:100B6000314800F011FE06212B4800F025FA2F48ED
:100B700000F00AFE0421284800F01EFA2A4800F07E
:100B800015FE0821244800F017FA284800F00EFE50
:100B9000274802F03BFF03460121264803BBA0F58E
:100BA000A47000F009FA204800F076FD224802F017
:100BB0002DFF0346052121485BB102F027FF0346C4
:100BC0000521154803B300F0F7F9184800F092FD2D
:100BD000A7E7114800F0F0F9144800F05DFDA0E728
:100BE00002F014FF034601210B482BB100F0E4F999
:100BF0000D4800F07FFDD9E70121074800F0DCF93E
:100C0000094800F09DFDD1E70521034800F0D4F923
:100C1000064800F095FD84E7040400240400002445
:100C20006C0500244D0A000838060024EC07002457
:100C3000480500244C0500245005002454050024D8
:100C40004A484FF60B72052138B500244FF0FF33A8
:100C50001725C0E90124C0E90624C0E90B24C0E936
:100C60001024C0E91524C0E91A24C0E91F24C0E9F2
:100C70002424C0E90344C0E90844C0E90D44C0E9A4
:100C80001244C0E91744C0E91C44C0E92144C0E94A
:100C90002644C0E92924C0E92E24C0E93324C0E950
:100CA0003824C0E93D24C0E94224C0E94724C0E912
:100CB0004C24C0E92B44C0E93044C0E93544C0E9C4
:100CC0003A44C0E93F44C0E94444C0E94944C0E96A
:100CD0004E44C0F86841C0F80C12C0F87C41C0F81E
:100CE0008841234AC0E97B41C0E97D11C0E97F11F9
:100CF000C0E981110221C0E96943C0E97934C0E942
:100D00006B33C0E96D33C0E96F33C0E97133C0E9BB
:100D10007333C0E97533C0E97733C0E98433C0E980
:100D20008633C0E98833C0E98A33C0F830121149EC
:100D300011F0A2F9104B20460D4ADD65C3F81052A0
:100D40000E49C3E90F44C3E91144C3E91344C3E99D
:100D50001544C3E97C44C3E97E44C3E98044C3E944
:100D60008244BDE8384011F087B900BF0404002474
:100D700000000024450A000838060024490A00083B
:100D8000D0F8C8318B4220D0D0F8CC318B4225D05E
:100D9000D0F8D0318B421BD0D0F8D4318B4220D048
:100DA000D0F8D83199421FD0D0F8DC3199421ED00A
:100DB000D0F8E03199420ED0D0F8E43199420CBF1E
:100DC000D0F82C024FF0FF307047D0F81002704777
:100DD000D0F818027047D0F828027047D0F81402F3
:100DE0007047D0F81C027047D0F820027047D0F846
:100DF0002402704762B9D0F830320422C0F8C8111A
:100E0000C0F81032C0F8F8210133C0F83032704712
:100E1000012A0CD1D0F830320422C0F8CC11C0F82D
:100E200014320133C0F8FC21C0F830327047022A76
:100E30000CD1D0F830320422C0F8D011C0F81832EA
:100E40000133C0F80022C0F830327047032AD0F8CE
:100E500030320AD10422C0F81C320133C0F8D41158
:100E6000C0F8F021C0F830327047042A06D1C0F82B
:100E7000D811C0F82032C0F80422C5E7052A07D1EE
:100E80000422C0F8DC11C0F82432C0F80822BBE705
:100E9000062A07D10422C0F8E011C0F82832C0F8B1
:100EA0000C22B1E7072AAFD10422C0F8E411C0F840
:100EB0002C32C0F8F421A7E770B51C460546FFF7B1
:100EC00099FF14B9C5F8A81170BD012C02D1C5F85D
:100ED000AC1170BD022C02D1C5F8B01170BD032C4D
:100EE00002D1C5F8B41170BD042C02D1C5F8B811F7
:100EF00070BD052C02D1C5F8BC1170BD062C02D105
:100F0000C5F8C01170BD072CDED1C5F8C41170BD85
:100F1000D0F8A8318B421FD0D0F8B0318B421BD013
:100F2000D0F8B4318B4217D0D0F8B8318B4213D0FF
:100F3000D0F8AC318B4211D0D0F8BC318B420DD0FF
:100F4000D0F8C031994209D0D0F8C40181420CBF19
:100F500001204FF0FF30704700207047012070479C
:100F6000D0F8A8318B421FD0D0F8B0318B421FD0BF
:100F7000D0F8B4318B421DD0D0F8B8318B4215D0A7
:100F8000D0F8AC318B420FD0D0F8BC318B420DD0B1
:100F9000D0F8C03199420DD0D0F8C40181420CBFC5
:100FA00001204FF0FF30704700207047022070474B
:100FB000012070470320704770B504460D4604F5C4
:100FC000C0762DED028BFFF7DBFEF7EE008AC1B293
:100FD000304602F02BFA2946204638EEC00AFFF7C9
:100FE00097FF03462046B6EE008A1C46FFF7B8FF7F
:100FF00002463046E1B230EE488AD2B202F026FA1A
:1010000038EEC00A30EE080ABDEC028B70BD00BF9E
:101010002DE9F04F62490025044600F1040800F173
:10102000180600F12C07403001222B46096804F114
:10103000540A04F17C0B04F190092DED028B85B06C
:1010400002904046009502F009FB564A2B46304676
:1010500011680122009502F001FB534A2B463846E5
:1010600011680122009502F0F9FA504A2B460298C5
:1010700011680122009502F0F1FA4D4A2B465046C4
:1010800011680122009502F0E9FA04F16803494A67
:10109000184608EE103A11682B460122009502F01E
:1010A000DDFA454A2B46584611680122009502F0A8
:1010B000D5FA424A2B46484611680122009502F0B3
:1010C000CDFAD4F8E821CAB1012A5CD0D4F8EC7189
:1010D00017B3012F5BD0D4F8F031DA1E012A28D9DA
:1010E000022B41D0D4F8F431DA1E012A2ED9022B7A
:1010F00043D005B0BDEC028BBDE8F08F4046012126
:10110000039202F09DFB039A3846114602F098FBC9
:10111000D4F8EC71002FDCD13046012102F090FBB5
:101120003946029802F08CFBD4F8F031DA1E012A1D
:10113000D6D85846012102F083FB0021504602F028
:101140007FFBD4F8F431DA1E012AD0D801214846B9
:1011500002F076FB002118EE100A05B0BDEC028B00
:10116000BDE8F04F02F06CBB5846002102F068FB6E
:101170000121504602F064FBB4E70021484602F02A
:101180005FFB0121E7E7294640460392B9E7304675
:10119000002102F055FB3946029802F051FB9AE714
:1011A000883B0108903B0108843B01088C3B010807
:1011B000983B0108A03B0108943B01089C3B0108B7
:1011C000F8B5044601250026042300F5A27084F832
:1011D000445184F84531062784F8466184F8475124
:1011E00002F038FB0B2304F5A47084F8487184F8EE
:1011F000493184F84A6184F84B5102F02BFB0723F4
:1012000004F5A67084F84C5184F84E6184F84D3191
:1012100084F84F5102F01EFB04F5A87084F8505179
:1012200084F8517184F8526184F85351BDE8F84054
:1012300002F010BB2DE9F04F97B000264FF00B02E3
:101240004FF0060BD0F8303204AF4FF00A0A03EB30
:10125000C303022587F840204FF00C095B0087F894
:10126000416087F810B00446073387F811A03E723A
:10127000042223F007037D723D73ADEB030DB7F835
:10128000403087F80D90ADF804300DF110083B8A1E
:10129000B9684046ADF800300295FB6801F068FE81
:1012A0004FF00B0287F81CB00DF1220087F81DA04B
:1012B00087F84420BB8B87F84560B7F8442087F84F
:1012C00019903E757E753D76ADF804200422ADF888
:1012D00000307969BB69029501F04AFED4F8F83113
:1012E000042B2DD0D4F8FC31042B3BD0D4F80032A1
:1012F000042B4BD0D4F8F031042B5BD0D4F804325B
:10130000042B69D0D4F80832042B79D0D4F80C32ED
:10131000042B00F08980D4F8F431042B00F098807D
:1013200004F5C0700423D4F830224146786001F0FF
:1013300059FE786802F064F84C37BD46BDE8F08F7E
:10134000D4F810022A4687F8205000EBC00087F836
:101350002160396A08EB400001F0F6FDD4F8FC3159
:10136000042BC3D1D4F8140206230021022200EB7F
:10137000C00087F8253087F82410796A08EB400010
:1013800001F0E2FDD4F80032042BB3D1D4F81802F6
:1013900001230021022200EBC00087F8293087F8E2
:1013A0002810B96A08EB400001F0CEFDD4F8F03106
:1013B000042BA3D1D4F81C02022287F82D3000EBB5
:1013C000C00087F82C20F96A08EB400001F0BCFD52
:1013D000D4F80432042B95D1D4F820020323002141
:1013E000022200EBC00087F8313087F83010396BEB
:1013F00008EB400001F0A8FDD4F80832042B85D199
:10140000D4F824020123022200EBC00087F8353013
:1014100087F83420796B08EB400001F095FDD4F893
:101420000C32042B7FF477AFD4F828020123022278
:1014300000EBC00087F8383087F83930B96B08EB1B
:10144000400001F081FDD4F8F431042B7FF468AF43
:10145000D4F82C0200210723022200EBC00087F8F9
:101460003C1087F83D30F96B08EB400001F06CFD53
:1014700056E700BF30B500F5B475044683B0284682
:1014800000F07AFB2046FFF7C3FD2046FFF798FEE9
:10149000012205239FED0A0A8DF8042004F5AA70A5
:1014A0008DF80530019901F023FD2046FFF7C2FEBB
:1014B0000021284603B0BDE8304000F09DBA00BFCF
:1014C0000000000008B5034AB921034B034811F09E
:1014D000CFFA00BF243C0108183C0108E03B01089A
:1014E000F8B50025044600F1100618272DED048BF1
:1014F000F0EE408A40F8085BB7EE009A10F0D2FB9D
:101500009FED568A4FF07C533046C4ED088AC9EEF1
:10151000287A84ED068AA5626361E361B0EE480A29
:10152000C4ED097A10F0A2FDF0EE407A40F201120B
:101530000523304684ED059AC4ED0B7AB0EE480AD7
:10154000228784ED068A237410F090FD444B4549B0
:10155000C4F82031C4F87831434B444AC4F8281108
:10156000C4F87011C4F830314149C4F868314148B9
:10157000414B424EC4F83821C4F86021C4F84031D0
:101580003F4AC4F85831C4F84C013E4B3E48C4F8B9
:101590004811C4F850113D4984ED0B0AC4F8245198
:1015A000C4F87C31C4F88421C4F82C51C4F83451F7
:1015B000C4F83C51C4F84451C4F85451C4F85C51C7
:1015C000C4F86451C4F86C51C4F87451C4F8805123
:1015D000C4F88851C4F89051C4F89851C4F88C11DB
:1015E000C4F89401C4F89C61C4F8D431284BC4F801
:1015F000B46104F59076C4F8BC0104F16000C4F84D
:10160000A051C4F8B051C4F8B851C4F8C051C4F8DE
:10161000C851C4F8D051C4F8A431E56DC4F8AC3158
:101620001C4BC4F8C4110021C4F8CC216022E06333
:10163000A764C4F8A831C4E9106511F0A9FA04F14F
:10164000C000A7656022E0640021BDEC048BC4E902
:101650001465BDE8F84011F09BBA00BF0000C84215
:10166000FBB5EBBB87195F3C8C4AD7BCC218473D22
:101670006048A13EA800003F2D8EC5BD2D8E45BE01
:101680008719DF3CFBB56BBCC218C73D8C4A57BD00
:101690006048213FA800803FF0EE406A9FED127A3B
:1016A000DFED127AF2EE080AB0EE000AE6EE877A73
:1016B00010B52DED028B9FED0E8A0446C7EEA00AF1
:1016C00010F052FD04F1100020EE088AB0EE480A36
:1016D00084ED068A10F0CAFC84ED018A84ED0B0AC1
:1016E000BDEC028B10BD00BF0000F04200008AC2BA
:1016F0000000DC4310B52DED028B9FED0E8A0446F1
:10170000DFED0D6A1030F0EE487A9FED0C7AE0EED6
:10171000267AC7FE887A87FEC78AB0EE480A84ED2B
:10172000068A10F0A3FC84ED018A84ED0B0ABDEC5F
:10173000028B10BD0000484200B09A4500409C4515
:1017400010B52DED028B9FED0E8A0446DFED0D6A7C
:10175000B3EE0E7AF0EE487A1030E0EE267AC7FE4D
:10176000887A87FEC78AB0EE480A84ED068A10F0B0
:101770007DFC84ED018A84ED0B0ABDEC028B10BD6B
:10178000CDCC4C3D9A99EF41B7EE007AB2EE046AA7
:10179000F2EE066AF0EE477AE0EE067AC7FE877A46
:1017A000C7FEE67AC0ED027A704700BFBFEE007A4E
:1017B000B0EE006AF7EE006AF0EE477AE0EE067AE5
:1017C000C7FE877AC7FEE67AC0ED037A704700BF8E
:1017D00030EE000ADFED077A10B520EE270A044646
:1017E00010F050FCF7EE007A30EE670A84ED000A44
:1017F00010BD00BF8E5D134070B5044610302DED56
:10180000048B82B010F078FA616D002900F0AF808F
:101810006FF04042E36C0129256D0A44DFED557AF3
:101820004FEA820603EB820282ED000A0FD02946BE
:101830001A1D03EB060C52F8040BD3ED006AB1EC51
:10184000017A43F8040B9C45E6EE877AF3D13544E0
:1018500004F1080095ED007A0190E0EE077AB0EE11
:10186000670A10F025FAD4ED008A20EE280A10F05D
:101870000FFEB0EE408AB0EE680A10F009FE616C0F
:10188000C8EE006A002972D06FF04042E36B012974
:10189000266C0A449FED370A019803EB8205C5EDDB
:1018A000006A4FEA82050FD031461A1D05EB030E80
:1018B00052F804CB93ED007AF1EC017A43F804CBB3
:1018C0009E45A7EE270AF3D17219616DD2ED007A19
:1018D000A6EEA70AB0EE408A002948D06FF0404239
:1018E000E36C9FED240A01290A44266D03EB82056F
:1018F00085ED000A4FEA82050FD031461A1D03EB31
:10190000050E52F804CB93ED007AF1EC017A43F81E
:1019100004CB7345A7EE270AF3D17219DFED157AD0
:1019200092ED007AA7EE270A10F0C2F994ED009A22
:1019300020EE090A10F0ACFDF0EE408AB0EE490A44
:1019400010F0A6FD626CC8EE807A82B1E06B00EB0D
:101950008203013A43ED017A03D09200011D11F098
:10196000FDF8B0EE480A02B0BDEC048B70BDFFF785
:10197000A9FD00BF00000000143001F06DBA00BFE7
:1019800038B500F1140504462DED028B284601F010
:101990001FFA284601F018FA2846B0EE408A01F0F6
:1019A00001FAD0ED007AF8EE677A88EE277ABDEC7E
:1019B000028B84ED0E7A38BD143001F005BA00BFF9
:1019C00038B500F1140504462DED028B284601F0D0
:1019D000EDF9284601F0F8F92846B0EE408A01F00A
:1019E000E1F9D0ED007AF8EE677A88EE277ABDEC5F
:1019F000028B84ED0E7A38BD253002F015B800BF99
:101A000010B540F203338EB000244FF60B7240F253
:101A10000341ADF8083009A80123ADF81020ADF856
:101A200024202246ADF80C100094029907940C94DF
:101A3000CDE90544CDE90A4401F010FE04A80123D4
:101A400022460399009401F009FE09A801F0ECFE7A
:101A500010B901200EB010BD04A801F0E5FEA042AF
:101A60000CBF022020460EB010BD00BF2DE9F04192
:101A700003239AB0012700240646CDE914373B4BD7
:101A8000CDE9104340F20453CDE91647ADF8483094
:101A9000FFF7B6FFB842054625D0022845D040F6EC
:101AA0000132334B0DF12C081894ADF82C200B9813
:101AB0001997CDF84A3000F0E3F810A906F13C0080
:101AC00002F0FAFE302003224FF07E5341460D9380
:101AD0000E93CDE90B02F26B06F1140001F02AF926
:101AE0001AB0BDE8F0811023214A06A906908DF8AE
:101AF00028300DF12C081F4BCDF84A200793029493
:101B0000CDE91804CDE9080402A802F00DF9082374
:101B1000029A03A94046ADF80C508DF80E4004958A
:101B200005930B9400F0ECF8C7E700200121104B5F
:101B30000DF12C083A460094CDF84A304FF60B735D
:101B40000C94ADF82C302346CDE9180140F6013154
:101B50004046ADF818100699CDE90D4401F07EFD20
:101B60002146404601F06CFEA7E700BF04020404D2
:101B7000040604030704010B2DE9F04704462DED8C
:101B8000028B82B000294DD0012140F201120023C6
:101B90000091ADF804208DF80630364A0127364B07
:101BA00004F10409354904F12908626040F2027227
:101BB000A36040F60663E16004F1250AA4F825203D
:101BC000A4F82930278284F8277084F82B7003F05A
:101BD0002FFA054603F092F86946064650BB4DB30E
:101BE00004F130008DF8067003F0AAF9072D3CD1FE
:101BF00004F114052046FFF739FF284601F0E4F808
:101C00002846B0EE408A01F0CDF8D0ED007AF8EE2B
:101C1000677A88EE277A84ED0E7A02B0BDEC028BEB
:101C2000BDE8F08740F2011300918DF80610ADF881
:101C30000430B2E704F1300003F082F9072D11D02F
:101C40004946204602F0B8FA0EB9002DD0D15046D0
:101C500001F000FE404601F0FDFD04F1120000F02D
:101C600079F9C5E7002EF2D1C2E74946204602F0D5
:101C7000A3FABDE70508050905070506050A0606D6
:101C800010B584B003460124ADF8040003A8ADF8F4
:101C90000C30ADF80E4001F0DDFD214603A801F047
:101CA000C3FE204603F028F8002103A801F0BCFE83
:101CB000204603F021F8214603A801F0B5FE04B048
:101CC00010BD00BF10B5C2F3002384B00C46017CE8
:101CD0008DF80D2043EA4402FA2402238DF80C20EB
:101CE00003AA009402F0B6F818B10124204604B00B
:101CF00010BD04460A2002F0FFFF204604B010BDCC
:101D0000034670B543F8042B044684B007C983E842
:101D10000700A37983B91A210B461E22FA252374E2
:101D20002046ADF80C20022303AA009502F092F899
:101D300028B1012004B070BD1B210B46EDE70A203D
:101D400002F0DAFF4FF4B85200950223ADF80C20F0
:101D5000204603AA217C02F07DF80028E9D10A2060
:101D600002F0CAFF41F2027200950223ADF80C2086
:101D7000204603AA217C02F06DF80028D9D10A2060
:101D800002F0BAFF042200950223ADF80C20204691
:101D900003AA217C02F05EF80028CAD10A2002F0D2
:101DA000ABFF062200950223ADF80C20204603AAC3
:101DB000217C02F04FF80028BBD10A2002F09CFFE2
:101DC00041F2082200950223ADF80C20204603AA18
:101DD000217C02F03FF80028ABD10A20064602F031
:101DE0008BFF0095022303AA217C2046ADF80C60EE
:101DF00002F030F800289CD1304602F07DFF0095BB
:101E000022790C232046002A8DF80C3003AA4FF0CB
:101E1000020314BF622142218DF80D10217C02F0D3
:101E200019F8002885D1304602F066FF2279D4E9FE
:101E300002310B43DBB20AB943F0400362790AB1C5
:101E400043F020030E22FA258DF80D302046009530
:101E500002238DF80C2003AA217C01F0FBFF00284F
:101E60007FF467AF0A2002F047FF1022009502239B
:101E7000ADF80C20204603AA217C01F0EBFF0028DE
:101E80007FF457AF0A2002F037FF1221009502239A
:101E9000ADF80C1003AA217C204601F0DBFF0028DE
:101EA0007FF447AF0A2002F027FF012209212046D4
:101EB000FFF708FF003818BF01203BE7F0B51023FB
:101EC00087B0234C012200250126002702A92046C5
:101ED0000195CDE902234FF48052CDE9046709F062
:101EE0005FFE642003F04AFB02A94FF480522046B3
:101EF000CDE9046702261027CDE9026709F050FEFC
:101F00000322102302A92046CDE902230023042244
:101F1000CDE904234FF4805209F042FE40F232230F
:101F2000042202A9019310232046CDE90223019A3D
:101F3000012305924FF48052049309F031FE40F6DC
:101F40000601204609F04CFE284607B0F0BD00BF50
:101F5000A80900241C4B00221C494FF0400C30B54E
:101F6000054689B00220596007219A601A6201244F
:101F7000DA620A224FF4006EDC6006922022CDE97C
:101F8000000104200821CDE9020103201021CDE940
:101F9000040108206946C3E904024FF4C072181D09
:101FA000C3E906C24FF48052C3E909E209F0CEFD4D
:101FB00038B92846FFF782FF003818BF012009B062
:101FC00030BD204609B030BDA40900244041005274
:101FD000614A0021D0B513688EB00A91002B40F001
:101FE000B9805E4B01214FF683700C2411600221F1
:101FF000D3F8D4200026032742F48052C3F8D4201B
:10200000D3F8D42002F480520092009AD3F8E02052
:1020100042F01002C3F8E020D3F8E02002F01002F2
:102020000192019AD3F8E02042F04002C3F8E02088
:10203000D3F8E02002F040020292029AD3F8E020A6
:1020400042F00802C3F8E020D3F8E02002F00802D2
:102050000392039AD3F8E02042F48072C3F8E020A0
:10206000D3F8E02002F480720492049AD3F8E020BE
:1020700042F08002C3F8E020D3F8E02002F08002B2
:102080000592059AD3F8E02042F02002C3F8E02040
:10209000D3F8E02002F020020692069AD3F8E0205E
:1020A00042F00402C3F8E020D3F8E0300C9403F0CF
:1020B000040307930323079A0B93CDE9080108A9AA
:1020C000274805F0E1F848F23712022308A925480D
:1020D0000C94CDE90823CDE90A6705F0D5F84CF258
:1020E0000372022308A920480C94CDE90823CDE906
:1020F0000A6705F0C9F840F2FF62022308A91B48ED
:102100000C94CDE90823CDE90A6705F0BDF84FF638
:102110000C72022308A916480C94CDE90823CDE9D6
:102120000A6705F0B1F84FF63F02022308A91148EB
:102130000C94CDE90823CDE90A6705F0A5F8202223
:10214000022308A90A480C94CDE90A67CDE90823BF
:1021500005F09AF80EB0D0BDA00900240044025842
:102160000010025800180258000C025800200258B3
:10217000001C0258001402582DE9F04FDFF81084BB
:1021800006460D46144608F118002DED028B89B065
:1021900000AF02F089FCD8F8183073B3D8F81C30BF
:1021A000D8F80490002B43690BBF4FF0080A4FF09A
:1021B000100A4FF0020B4FF0040BB9F1000F2AD0B8
:1021C000A200EA46012B02F1070222F00702ADEB62
:1021D000020D6846ADEB020D694600F03F81022B0F
:1021E00000F0D680002B6FD02246C847D546243752
:1021F000BD46BDEC028BBDE8F08FD8F81C30002B3B
:10220000F5D0D8F804904FF0080A4FF0020B43695C
:10221000B9F1000FD4D1FB61D8F80030BB61002BBD
:10222000E5D0D54802F0B2FC6B46BBF1020F7861F5
:1022300008EE103AFB6900F083816A465146A2EB32
:10224000C40295466200EA46B2FBFBF2AAEBC40068
:1022500085460AEB8200EE46F861ADEB010DF869A8
:102260000EEB820CC7F810C0EC46ADEB010D00EB95
:102270008201CCF80400CCF8081001EB8201386927
:10228000E946CCF80C1000EB8201CCF800A001EB81
:102290008202C9E900E0C9E90212012B00F064835F
:1022A000022B00F06C82002B00F08081620849460E
:1022B0006046BB69984718EE103A24379D46BD46E4
:1022C000BDEC028BBDE8F08F002C8DD01A46D8ED06
:1022D0000C6A9FEDB27A8446331D36F922E00CF188
:1022E000080C07EE90EA33F922E00232F8EEE77AC2
:1022F000944267EE877A67EEA67A4CED027A07EE93
:1023000090EAF8EEE77A67EE877A67EEA67A4CED08
:10231000017AE2D8F9612246C847984ED8ED0D6A95
:102320000020F9692B1D9FED9E7A9FED9E6ADFEDDF
:102330009E5A22E0F4EEC67AF1EE10FAC0F2C8849A
:1023400047F6FE72D1ED017A45F8202066EEA77AB5
:10235000F4EEC77AF1EE10FA40F2F080F4EEC67AAD
:10236000F1EE10FAC0F2D58447F6FE7243F8202051
:102370000230083184427FF639AFD1ED007A66EE43
:10238000A77AF4EEC77AF1EE10FAD3D83246D9E73D
:10239000002C3FF429AFD8ED0C6A84469FED787A83
:1023A0000022331D8E4656F822100CF1080C07EE61
:1023B000901A53F822100232F8EEE77A944267EE50
:1023C000877A67EEA67A4CED027A07EE901AF8EE5D
:1023D000E77A67EE877A67EEA67A4CED017AE2D863
:1023E00071462246C7F81CE0C847664ED8ED0D6A14
:1023F0000020F9692B1D9FED6A7A9FED6A6ADFF86C
:1024000094C120E0F4EEC67AF1EE10FAC0F27984BD
:102410003246D1ED017A45F8202066EEA77AF4EE37
:10242000C77AF1EE10FA40F28780F4EEC67AF1EE48
:1024300010FAC0F25E84324643F8202002300831A0
:1024400084427FF6D3AED1ED007A66EEA77AF4EE41
:10245000C77AF1EE10FAD5D86246DAE7002C3FF4DD
:10246000C3AED8ED0C6A86469FED477A4FF0000C5C
:10247000331D56F82C200EF1080E82F40002A2F54E
:10248000000207EE902A53F82C200CF1020CF8EE13
:10249000E77A82F400026445A2F5000267EE877ACB
:1024A00067EEA67A4EED027A07EE902AF8EEE77A0A
:1024B00067EE877A67EEA67A4EED017AD9D8F96190
:1024C0002246C847314ED8ED0D6A0020F9692B1D10
:1024D0009FED337A9FED336ADFF8BCC01FE0F4EE66
:1024E000C67AF1EE10FAC0F2FC833246D1ED017AE1
:1024F00045F8202066EEA77AF4EEC77AF1EE10FADE
:1025000018D9F4EEC67AF1EE10FAC0F2DA83324648
:1025100043F820200230083184427FF667AED1EDC7
:10252000007A66EEA77AF4EEC77AF1EE10FAD6D802
:102530006246DBE76246EBE762467DE7324615E737
:10254000A100D6466208073121F00701ADEB010D6D
:10255000EA46ADEB010D6946ADEB0E0D0AEB8200CC
:10256000EC46ADEB0E0D01EB8202F861E946CCE9D9
:1025700000A0C9E9001290E6F80900240280FFFFDC
:10258000000000300082FF7F0000003482FF7F00E7
:10259000DC090024007E00807E0080FF00000038FF
:1025A00004FF7FBF04FF7F3F00FEFF46002C00F0CA
:1025B000C982BBF1020FD8F8242000F0FA827969B1
:1025C000C7F8049002EB810E5FED0C5A8A00DCF82C
:1025D00008100EF104007A611A46DCF80C303B61F9
:1025E000331DD7F810903D61FD69C7E902CB8C46D9
:1025F000834636F92210D8ED0C7A06EE101A33F91C
:10260000221006EE901A3EF92210B8EEC66A07EEC6
:10261000101AF8EEE66A3BF92210B8EEC77A26EEF9
:10262000256A66EEA56A27EE257A26EE276A66EE0B
:10263000A76A27EE277A07EE901A51080232F8EEC1
:10264000E77A0AEB8100944280ED006A05EB810095
:1026500067EEA57AC0ED006A0CEB810009EB810101
:1026600080ED007A98ED0C7A67EE877AC1ED007AFA
:10267000BFD8D7F804903D69D7E902CB604662081D
:10268000BB6949469847D8F82C307A69D8ED0D6A6D
:102690001A441FED3D7A1FED3D6A2B1D904602F155
:1026A000040A5FED3F5A0022A84ED9E900EC51E040
:1026B000F4EEC67AF1EE10FAC0F2C78247F6FE7069
:1026C00045F822000CEB0100D0ED007A66EEA77A07
:1026D000F4EEC77AF1EE10FA4BD9F4EEC67AF1EEC9
:1026E00010FAC0F2BA8247F6FE70BBF1020F43F84F
:1026F00022002BD0D9F808000844D0ED007A66EE0D
:10270000A77AF4EEC77AF1EE10FA36D9F4EEC67A6B
:10271000F1EE10FAC0F2CD8247F6FE7048F82200C2
:10272000D9F80C000144D1ED007A66EEA77AF4EEF8
:10273000C77AF1EE10FA1ED9F4EEC67AF1EE10FA6D
:10274000C0F2AF8247F6FE714AF82210023294427C
:102750007FF6B1AD51080EEB81008900D0ED007A13
:1027600066EEA77AF4EEC77AF1EE10FAA0D83046FA
:10277000A6E73046B9E73146E6E73046CEE7002C1B
:1027800000F0E081BBF1020FD8F8243000F0E181C5
:102790007A69DCF8081003EB820EC7F80490930006
:1027A000DFED6B5A0EF1040000227B61DCF80C3087
:1027B0003B61331DD7F810903D61FD69C7E902CB3D
:1027C0008C46834656F82210D8ED0C7A07EE101A84
:1027D00053F82210B8EEC76A07EE101A5EF82210FE
:1027E000F8EEC76A07EE101A26EE256A5BF822108B
:1027F000B8EEC77A66EEA56A26EE276A27EE257A36
:1028000066EEA76A27EE277A07EE901A5108023281
:10281000F8EEE77A0AEB8100944280ED006A05EB5E
:10282000810067EEA57AC0ED006A0CEB810009EB30
:10283000810180ED007A98ED0C7A67EE877AC1ED20
:10284000007ABFD8D7F804903D69D7E902CB60463B
:102850006208BB6949469847D8F82C307A69D8EDA8
:102860000D6A1A449FED3E7A9FED3E6A131D924613
:10287000DFF8E4C00022FB612B1D364ED9E9008E43
:102880004EE0F4EEC67AF1EE10FAC0F2FC8130466A
:1028900045F822000EEB0100D0ED007A66EEA77A33
:1028A000F4EEC77AF1EE10FA49D9F4EEC67AF1EEF9
:1028B00010FAC0F2EF813046BBF1020F43F822005C
:1028C0002AD0D9F808000844D0ED007A66EEA77A3D
:1028D000F4EEC77AF1EE10FA35D9F4EEC67AF1EEDD
:1028E00010FAC0F2C98130464AF82200D9F80C002B
:1028F0000144D1ED007A66EEA77AF4EEC77AF1EEE4
:1029000010FA1ED9F4EEC67AF1EE10FAC0F2AD81DB
:102910003146F86940F82210023294427FF6CBAC7F
:10292000510808EB81008900D0ED007A66EEA77AA5
:10293000F4EEC77AF1EE10FAA3D86046A8E7604635
:10294000BAE76146E5E76046CEE700BF0280FFFFD9
:10295000000000300082FF7F007E00800000003415
:1029600004FF7FBF04FF7F3F002C00F0EB807A69FB
:102970000021D8F82430C7F8109003EB820ED7F866
:102980001C909300FD610EF104021FED0C6A7B6147
:10299000331D154656F821204808D8ED0C6ABBF1C6
:1029A000020F82F40002A2F5000207EE902A53F80B
:1029B000212082F40002B8EEE77AA2F5000227EEA9
:1029C000067A07EE902A0AEB8002F8EEE77A27EE05
:1029D000267A67EE867A82ED007A09EB80024FEA6A
:1029E000800067EEA67AC2ED007A27D05EF821203B
:1029F00082F40002A2F5000207EE902A55F8212089
:102A000082F40002B8EEE77AA2F5000227EE067A19
:102A100007EE902ADCF80820F8EEE77A024427EE69
:102A2000267A67EE867A82ED007A98ED0C7ADCF8E9
:102A30000C2067EE877A0244C2ED007A02318C42A4
:102A4000A8D8D7F8109060466208BB694946FD696E
:102A50009847D8F82C307A69D8ED0D6A1A441FEDE2
:102A6000407A1FED406A131D9246DFF8C4C200226F
:102A7000FB612B1DAB4ED9E9008E4EE0F4EEC67A19
:102A8000F1EE10FAC0F2C580304645F822000EEB98
:102A90000100D0ED007A66EEA77AF4EEC77AF1EE87
:102AA00010FA49D9F4EEC67AF1EE10FAC0F2BF80FE
:102AB0003046BBF1020F43F822002AD0D9F80800B3
:102AC0000844D0ED007A66EEA77AF4EEC77AF1EE0C
:102AD00010FA35D9F4EEC67AF1EE10FAC0F2AE80F3
:102AE00030464AF82200D9F80C000144D1ED007AB2
:102AF00066EEA77AF4EEC77AF1EE10FA1ED9F4EE7C
:102B0000C67AF1EE10FAC0F28B803146F86940F8CF
:102B10002210023294427FF6CEAB510808EB8100BE
:102B20008900D0ED007A66EEA77AF4EEC77AF1EE6E
:102B300010FAA3D86046A8E76046BAE76146E5E721
:102B40006046CEE7224649466046BB699847FFF794
:102B5000B2BBC7F810B0002298ED0C6A331DDFED50
:102B6000726AD7F81CB0786956F8221007EE901AEE
:102B700053F82210B8EEE77A07EE901A51080232A5
:102B8000F8EEE77A27EE267A0AEB810E94420BEBF9
:102B9000810167EEA67A27EE067A67EE867A8EEDD9
:102BA000007AC1ED007ADFD88300D7F810B07B61DE
:102BB0004DE61A46C7F810B098ED0C6A331DDFEDEC
:102BC0005B6AD7F81CB0786936F9221007EE101A44
:102BD00033F9221007EE901AB8EEC77A5108023284
:102BE000F8EEE77A27EE267A0AEB810E94420BEB99
:102BF000810167EEA67A27EE067A67EE867A8EED79
:102C0000007AC1ED007ADFD88300D7F810B07B617D
:102C100034E5F0EE675AFEEEE45A15EE900A34E71A
:102C2000F0EE675AFEEEE45A15EE901A6EE7F0EEFB
:102C3000675AFEEEE45A15EE900A3AE7F0EE675A4C
:102C4000FEEEE45A15EE900A4BE767EEA57AFDEE2C
:102C5000E77A17EE900A00B232E567EEA57AFDEE4C
:102C6000E77A17EE900A00B23FE5F0EE675AFEEE03
:102C7000E05A15EE901A4CE6F0EE675AFEEEE05A76
:102C800015EE900A30E6F0EE675AFEEEE05A15EEC9
:102C9000900AFDE5F0EE675AFEEEE05A15EE900A56
:102CA0000AE667EEA57AFDEEE77A17EE901A09B20A
:102CB0004AE567EEA57AFDEEE77A17EE900A00B2D4
:102CC0002CE5F0EE675AFEEEE45A15EE902A1FE46A
:102CD00067EEA57AFDEEE77A17EE902A12B2FFF7BB
:102CE00031BBF0EE675AFEEEE45A15EE902AFFF77C
:102CF000FDBBF0EE675AFEEEE05A15EE902AFFF7A4
:102D00009BBBF0EE675AFEEEE05A15EE902AFFF7F5
:102D100080BB67EEA57AFDEEE77A17EE902A12B235
:102D2000FFF724BB82FF7F00000000300000003866
:102D30007E0080FF30B5184C154685B0046004F164
:102D4000080EEC460FC98EE80F00D4ED047AF5EEBC
:102D5000C07A8CE80F00F1EE10FA1ADDB7EE006AC7
:102D600094ED057A27EE277AC6EE276A84ED0D7A70
:102D7000C4ED0C6A6DB1204640F8185F01F094FE76
:102D8000064903690020064A2162A262E36005B099
:102D900030BD012005B030BDDC090024002000302A
:102DA0000000003000680830704700BFB1F5807F38
:102DB00003680A4628BF4FF48072B1F5807F9A609D
:102DC00094BF0020012070470068183001F0CCBE8D
:102DD00070B504688AB0A369E160CBB104F118054D
:102DE000284601F061FE8446EE46E668BCE80F0026
:102DF000AEE80F00BCE80F00AEE80F009CE803004F
:102E00008EE8030069462846049601F055FDF8B99E
:102E1000E069D8B104F11C05284601F045FE84465E
:102E2000EE46E468BCE80F00AEE80F00BCE80F0017
:102E3000AEE80F009CE803008EE8030069462846D0
:102E4000049401F039FD003818BF01200AB070BDAC
:102E500001200AB070BD00BF30B5046883B00D46D4
:102E6000E3694BB1A3680020E26A616A9B000090AD
:102E700004F11C0001F01AFEA3680748A26A9B0037
:102E8000216A009004F1180001F010FE0020C4E94E
:102E9000005003B030BD00BF7921000810B4074BCB
:102EA0004FF07E5130240022032019619C60D860CD
:102EB0005DF8044B5961C3E906227047DC09002420
:102EC000704700BF064A0749074808B50FF0D4F815
:102ED000034A04490548BDE808400FF0CDB800BFDB
:102EE00000000024C12E0008140A0024180A00243F
:102EF00070B5044682B0C1F30726CDB2ADF8041018
:102F000001F0F8FE4FF480724FF001232060A01D05
:102F1000A571A280E671A36002B0BDE8704000F028
:102F200099BC00BF014805F0B7BA00BF08150024DE
:102F3000014805F0B1BA00BF08150024014805F0AA
:102F4000ABBA00BF0815002400B583B04FF0000EE7
:102F50004FF0030C4274ADF80410BDF8043080F853
:102F600010E0A0F802C0038003B05DF804FB00BFCE
:102F700000B583B0082AADF804104FF00301ADF896
:102F800000304180BDF800C0BDF81010BDF804E06D
:102F9000A0F804C001811146BDF814C028BF082163
:102FA000042A9DF81830A0F800E0A0F80CC00174C5
:102FB00008D8022A0ED801D10122C280437403B07E
:102FC0005DF804FB01224374C2804281C28103B0D8
:102FD0005DF804FB01224374C280428103B05DF8B6
:102FE00004FB00BF2DE9F04FDFF81C8300258DB0F6
:102FF000C04C037008F140034260074601920E4640
:10300000202229464046C4F86831C4F86481CDE9DD
:103010000255CDE90455CDE90655CDE90855CDE970
:103020000A550FF0B5FD2022294604F5A170C4F819
:103030003151C4F83551C4F83951C4F83D510FF03D
:10304000A7FD019B84F8485284F830317A68002A41
:103050006AD02B4604F59871454606F1100A9E4643
:10306000F01856F803B0E2180EF1010ED0F80CC0BB
:10307000D0F80490D0F8088044F803B0C2F80CC02F
:103080004FF0000CC2F80490C2F80880008A25F8BE
:1030900002CB10821AF8032001F8012F002A70D009
:1030A0007A684FF001001233724584F84802D7D88D
:1030B0004FF4802290489DF8043008214FF000081A
:1030C0004FF00009C4F884310023C4E95B020122F7
:1030D000C4F8743184F88031C4E95E2194F8481250
:1030E000C4E96489A9B3C4F89821002284F8813125
:1030F00084F888313B78C4E96722002B38D001225C
:1031000000200121013B84F8A421C4E96C01082BB3
:1031100030D8DFE813F0BD00C200C700CC00D100FA
:10312000D600DB00E100E8009DF804300121C4F87E
:103130007421C4F884314FF4802384F880216E4ACE
:10314000C4E95B2308230022C4E95E130023C4E919
:1031500064230123002284F88131002384F888311C
:103160000323C4F898313B78C4E96722002BC6D109
:1031700084F8A431614802F039FE034638B1FFBE3D
:10318000FEE77A68123372453FF66AAF90E702A90C
:103190005A48029302F088FF8246002876D1042222
:1031A00040F2FF710A90CDE9081294F83021002A0C
:1031B00000F0F3804FF006080AEBCA034FEACA0991
:1031C00004EB43035B7C072B07D8DFE803F0595C73
:1031D0005653504D4A04072307930FFA8AF6D144F9
:1031E00006EBC60604EB490904EB460775003846B2
:1031F00000F030FB99F81030042B00F3AA80022B6A
:1032000000F3BD8000F0B98004EB0A03002283F8CC
:10321000202114F81630002B78D0022B00F08A8081
:10322000012B40F0B2807B78012B00F0B080002BA6
:10323000334B18BF002305A93048CDE9053802F00B
:1032400001FA002840F0AC800AF1010A94F830310C
:103250005FFA8AFA534540F2A0802A4B53F82A803D
:10326000AAE706230793B8E705230793B5E70423E6
:103270000793B2E703230793AFE702230793ACE773
:1032800000230793A9E701230793A6E7FFBEFEE704
:1032900003224023C4E96A236CE707226023C4E9C0
:1032A0006A2367E70F228023C4E96A2362E71F22AB
:1032B000A023C4E96A235DE73F22C023C4E96A234F
:1032C00058E77F22E023C4E96A2353E7FF224FF443
:1032D0008073C4E96A234DE740F2FF124FF4907304
:1032E000C4E96A2346E740F2FF324FF4A073C4E911
:1032F0006A233FE7200A0024002002408C0B0024B0
:103300000002B025AC3C0108004000307B78062B61
:1033100037D0072B3DD0022B4AD0032B4AD0002BAD
:103320004CD0012B48D0042B4AD0052B254B18BF7D
:10333000002380E77B78042B25D0052B2BD08BB383
:10334000012B31D0022B31D0032B1F4B18BF002390
:1033500071E70323043504EB0A0B4FF00009254401
:103360008BF82031284609F1010900F073FA9BF827
:10337000203104354B45F5DC4BE70123EAE7022316
:10338000E8E7124B57E7124B55E7002353E7114B81
:1033900051E7114B4FE7114B4DE70DB0BDE8F08FF2
:1033A000FFBEFEE70E4B46E70E4B44E70E4B42E7EF
:1033B0000E4B40E70E4B3EE70E4B3CE70E4B3AE719
:1033C0000E4B38E70000B84F002090360800900CF4
:1033D0001000C0102000F0148000501D000180215A
:1033E0000004002A0008302E001060320040C03A6D
:1033F0000080F03E00005247000021430000844B53
:1034000038B5094C40F2FF724FF0011104F5B67562
:10341000284602F0F7FD94F83021D4F864112846CC
:10342000BDE8384002F062BB200A0024064B0F2999
:10343000D3F8643198BF03EB41031B8800EE103AC8
:10344000BBEEC80A704700BF200A0024064B0F29B4
:10345000D3F8683198BF03EB011333F8123000EE54
:10346000103ABBEEC80A7047200A0024214B0268BC
:103470009A4200D07047204A00232048D2F8D81042
:1034800030B51F4C41F0200183B0C4F8D0010920B1
:1034900004F5E875C4E975034FF48060C2F8D810EC
:1034A000D2F8D8204FF40061C4E9773094F848028C
:1034B00002F02002C4F8E4114FF400519842019246
:1034C0002846C4F8E811C4E97C33019B14BF0023EB
:1034D0004FF48073C4F8EC3103F00CF808B1FFBE70
:1034E000FEE704F5B673C4F8B851C4F8083203B067
:1034F00030BD00BF0020024000440258400002409E
:10350000200A0024014803F06DBB00BFF00B00242B
:1035100002682DE9F84F4B4B9A4201D0BDE8F88F75
:10352000494D95F84832002BF8D095F83031002BF2
:1035300077D0002405F10C0905F5A17605F59877FB
:10354000A04613E003F0010117F811BCA9F108002F
:1035500000F06AFABBF1010F25D895F8303101343B
:1035600009F112090236A2B293422BD917F8012FA2
:10357000002AF4D0D5F864310021327833F81400F1
:10358000D5F8683103EB041323F8120033880133B4
:103590009BB233805FFA83FA3A789A42D2D88A464D
:1035A000A6F80080D0E7CAF34001A9F1040000F0BA
:1035B0003BFABBF1020FCAF38001CED0484600F0BF
:1035C00033FACAE7002395F84802204909229842B5
:1035D000C5F8D8314FF48060C5F8D011C5F8D421B2
:1035E0004FF400614FF40052C5F8DC3108BF4FF4CE
:1035F0008073C5F8E821C5E9780100221448C5E9BF
:103600007B32C5F8F42102F075FF08B1FFBEFEE77A
:1036100095F83021D5F864110E48BDE8F84F02F056
:1036200065BA0A4909224FF48060C5F8D831C5E966
:1036300074124FF400614FF40052C5E97730C5E9C8
:103640007912DAE700200240200A002440000240FC
:10365000F00B00248C0B0024704700BF10B592B013
:10366000ADF804100180C9B2149C0B29C460C0E9F4
:1036700001233FD090F801C0BCF10F0F3AD8022AC5
:103680003FD0032A02D0012A00D000220E92012B43
:1036900002D0022B18BF0023022C0F932CD0032C36
:1036A0002AD0012C28D000230A29109327D85C4A5D
:1036B00002EB812202610A2914D8DFE801F0A39508
:1036C00087796B5D4F4133250600564BD3F8E010E8
:1036D00041F48061C3F8E010D3F8E03003F4806374
:1036E0000C930C9B01230DA9104603FA0CF30D93C8
:1036F00003F0CAFD12B010BD0A291094D7D90022D8
:10370000D8E711220E92C2E7464BD3F8E01041F4FD
:103710000071C3F8E010D3F8E03003F400730B93AA
:103720000B9BDFE73F4BD3F8E01041F48071C3F807
:10373000E010D3F8E03003F480730A930A9BD1E7DA
:10374000384BD3F8E01041F08001C3F8E010D3F813
:10375000E03003F080030993099BC3E7314BD3F8B2
:10376000E01041F04001C3F8E010D3F8E03003F07E
:1037700040030893089BB5E72A4BD3F8E01041F0CB
:103780002001C3F8E010D3F8E03003F020030793E2
:10379000079BA7E7234BD3F8E01041F01001C3F8D3
:1037A000E010D3F8E03003F010030693069B99E78E
:1037B0001C4BD3F8E01041F00801C3F8E010D3F837
:1037C000E03003F008030593059B8BE7154BD3F816
:1037D000E01041F00401C3F8E010D3F8E03003F04A
:1037E00004030493049B7DE70E4BD3F8E01041F0F3
:1037F0000201C3F8E010D3F8E03003F002030393B2
:10380000039B6FE7074BD3F8E01041F00101C3F8C9
:10381000E010D3F8E03003F001030293029B61E76C
:10382000000002580044025808B50121437800699D
:10383000994089B203F030FF003818BF012008BD5D
:1038400001230A464178006903FA01F189B203F0C5
:1038500029BF00BF8378022B30B504468FB037D024
:10386000032B33D0012B31D000230A93E378012BB3
:103870002AD0022B28D000230B93002320460C9340
:1038800001F05AFD0546204601F05EFD23780990BF
:10389000082B13D8DFE803F01F3245586B7E91A444
:1038A0000500594BD3F8E02042F48072C3F8E020C1
:1038B000D3F8E03003F480730893089B09A92846E5
:1038C00003F0E2FC0FB030BD0B93D6E70A93CDE7CF
:1038D00011230A93CAE74C4B09A92846D3F8E020E4
:1038E00042F00102C3F8E020D3F8E03003F0010316
:1038F0000093009B03F0C8FC0FB030BD424B09A9F8
:103900002846D3F8E02042F00202C3F8E020D3F8C2
:10391000E03003F002030193019B03F0B5FC0FB00C
:1039200030BD394B09A92846D3F8E02042F0040203
:10393000C3F8E020D3F8E03003F004030293029BC5
:1039400003F0A2FC0FB030BD2F4B09A92846D3F8D5
:10395000E02042F00802C3F8E020D3F8E03003F0A2
:1039600008030393039B03F08FFC0FB030BD264B7D
:1039700009A92846D3F8E02042F01002C3F8E0205D
:10398000D3F8E03003F010030493049B03F07CFCB5
:103990000FB030BD1C4B09A92846D3F8E02042F0F7
:1039A0002002C3F8E020D3F8E03003F020030593B1
:1039B000059B03F069FC0FB030BD134B09A92846E5
:1039C000D3F8E02042F04002C3F8E020D3F8E03022
:1039D00003F040030693069B03F056FC0FB030BD86
:1039E000094B09A92846D3F8E02042F08002C3F829
:1039F000E020D3F8E03003F080030793079B03F047
:103A000043FC0FB030BD00BF0044025838B5054636
:103A100001F092FC0446284601F096FC014620463F
:103A2000BDE8384003F038BE70B506460D4601F0DB
:103A300083FC0446304601F087FC2A1E01462046DE
:103A400018BF0122BDE8704003F02CBE00231222F3
:103A500070B586B0CDE9022304930368032B01D827
:103A600004230593061D841D304601F065FC0546C0
:103A7000304601F069FC034601A92846019303F092
:103A800003FC204601F058FC034620461C4601F08A
:103A90005BFC01A903462046019303F0F5FB06B049
:103AA00070BD00BF634A0368934210B58CB028D044
:103AB000614A934258D0614A934200F09480604A30
:103AC000934201D00CB010BD5E4C5F48D4F8E0309A
:103AD00043F00203C4F8E030D4F8E03003F002030E
:103AE0000A930A9BFFF7B2FFD4F8F43043F0800347
:103AF000C4F8F430D4F8F43003F080030B930B9B3C
:103B0000E0E7504C5148D4F8E03043F00203C4F8E9
:103B1000E030D4F8E03003F002030193019BFFF79B
:103B200095FFD4F8E83000221F2043F4001311461B
:103B3000C4F8E830D4F8E83003F400130293029B91
:103B4000D4F8D83043F00103C4F8D830D4F8D830D2
:103B500003F001030393039B02F01AFB1F200CB038
:103B6000BDE8104002F052BB364C3948D4F8E03082
:103B700043F08003C4F8E030D4F8E03003F0800371
:103B80000493049BD4F8E03043F00203C4F8E0301F
:103B9000D4F8E03003F002030593059BFFF756FFCE
:103BA000D4F8E8300022212043F480031146C4F801
:103BB000E830D4F8E83003F480030693069BD4F889
:103BC000D83043F00103C4F8D830D4F8D83003F02B
:103BD00001030793079B02F0DBFA21200CB0BDE83C
:103BE000104002F013BB1B48FFF730FF154B0022BB
:103BF0004820D3F8E840114644F40004C3F8E840F4
:103C0000D3F8E84004F400040894089CD3F8D840A2
:103C100044F00104C3F8D840D3F8D83003F00103CE
:103C20000993099B02F0B4FA48200CB0BDE810409B
:103C300002F0ECBA0054004000580040005C004024
:103C4000001C005800440258F80E0024700C002498
:103C5000480D0024200E00242DE9F0431A4B87B0B4
:103C600000254FF010099E46EC46184BFF22E04617
:103C700067461A700EF118060EF13004CDE90055B2
:103C8000CDE90255ADF80090BCE80F00CDE9045530
:103C9000AEE80F009CE803000095ADF800908EE8B8
:103CA0000300B8E80F000FC69CE803000095ADF8CC
:103CB000009086E803000FCF0FC49CE8030084E85F
:103CC000030007B0BDE8F083080000246C0C00245A
:103CD00010B5EFF3108472B6084B1A78120602D5AD
:103CE00004B962B610BD1B78D82205485BB202FB4E
:103CF0000300143002F076FFF2E700BF6C0C0024E2
:103D0000700C0024014804F065BB00BFFC0C0024CB
:103D1000014804F05FBB00BFD40D0024014804F04B
:103D200059BB00BFAC0E00242DE9F0430F68D82426
:103D30003F4D85B007FB04F4032F05EB040303603C
:103D400040DCCB680E46012B3CD84DD04FF0D80854
:103D5000B646DFF8FC9008FB0758BEE80F00C446E3
:103D6000ACE80F00DEF800300DF1100ECCF800309A
:103D7000D8F808C099E80F000EE90F000EEB870392
:103D8000BCF1010F53F8103CC8F88C3031D0BCF1B5
:103D9000020F42D0BCF1000F35D0317C8C34D823D7
:103DA000002201202C4403FB07534900C3E92602EB
:103DB000C3F894102046C3E92822C3E92A2204F05C
:103DC000FBF818B1012005B0BDE8F083014620469C
:103DD00004F00CFB0028F5D10146204604F030FB2E
:103DE000003818BF0120EEE70B7C103B672BADD9E4
:103DF000E8E701F01BF90F4B98420CBF0E4B0F4B3D
:103E0000C8F89030C9E701F011F90A4B98420CBF8D
:103E10000B4B0C4BC8F89030BFE701F007F9054B8E
:103E200098420CBF084B094BC8F89030B5E700BF6B
:103E3000700C0024000E27072D0FB0303211D02057
:103E40005F4390608A62E030200BA0101A09801056
:103E5000503B01082DE9F041D0F8008082B00D46BA
:103E600017461E4608F18C04204604F0BBFA2028B1
:103E7000FAD1D8F80C3073B96D002046089C33464F
:103E80003A46A9B2009404F0EDF8003818BF0120BA
:103E900002B0BDE8F081089B32463946204604F066
:103EA000B5F9F2E7044B10221A7483F8E82083F87E
:103EB000C02183F898227047700C002430B500238D
:103EC00095B04FF48071062204460B93069213932B
:103ED000CDE90C13CDE90E33CDE9113301F0A8F88B
:103EE00007282BD004F1100541F2883206A9284694
:103EF00005F0B8F828B10123184684F85C3015B0F5
:103F000030BD0222022306A92846CDE90023102253
:103F10000123CDE9022300224FF48003CDE90423DD
:103F200005224FF0807306926A460F9341F2883360
:103F300005F004FA0028DED115B030BD03230120BE
:103F400084F85C3015B030BD70B50023A4B04FF0DC
:103F500080724FF480750446ADF806300D93CDE9BC
:103F600010320122CDE90E53CDE91223CDE91433ED
:103F7000002943D0F02300F1100508AEADF806305B
:103F8000C02341F2883231462846089305F06AF88A
:103F900028B10123184684F85C3024B070BD41F28A
:103FA00088320DF10601284605F0C6F803460028C0
:103FB000EFD105224FF480711E93284616924FF0E0
:103FC00080721B9321931F9202AA9FED1F7BCDE964
:103FD0001C13CDE922338DED027B9FED1D7B41F259
:103FE000883316A98DED047B9FED1B7B8DED067B41
:103FF00005F0A4F90028CCD124B070BD00F1100563
:1040000008AE612341F2883231462846089305F014
:1040100029F80028BDD141F288320DF10601284669
:1040200005F008F90028B4D1BDF80630204623F089
:10403000780343F04003ADF80630FFF73FFF002858
:104040009ED0A6E7AFF30080000000000100000052
:10405000100000000100000000000000000040000F
:104060002DE9F04F00234FF4807501264FF0807842
:1040700004462DED028BABB08DF8073013932193DE
:10408000299314950E96CDF85C80CDE91533CDE9D2
:104090001863CDE91A33CDE92253CDE92433CDE9B4
:1040A000273306231C9300F0C3FF072808D004F130
:1040B000100741F288321CA9384604F0D3FF40B102
:1040C0000123184684F85C302BB0BDEC028BBDE8B0
:1040D000F08F4FF0020A4FF0020B4FF0050941F24A
:1040E000883308AA1CA93846CDF89480CDF8709082
:1040F0009FED2D8BCDE908AB4FF0000A4FF4800BFC
:104100008DED0A8BCDE90CAB05F018F90028D7D15D
:1041100041F2883238460EA904F0A4FF0028CFD11E
:10412000402341F288320DF1070138468DF80730FF
:1041300005F002F80028C3D141F288330EA902AA83
:104140003846CDF83890CDF85C809FED197B8DED29
:10415000048BCDE906AB8DED027B05F0EFF803464D
:104160000028ADD1CDF870904FF00109CDF89480C2
:104170004FF00008219308AA29931CA938462295DC
:10418000CDE92333CDE9273341F288338DED0A8B16
:10419000CDE90CABCDE9088905F0D0F8002893D023
:1041A000304684F85C608FE71000000001000000DA
:1041B00040000000400000002DE9F043624CA3B035
:1041C0000D46046000F034FF072800F0A98028683D
:1041D00023466968AA6807C31E46AB8926F8043BD4
:1041E0003046257B677B04F01FFFE0B9574B012D5C
:1041F0004FF00108E061236114BF4FF480134FF4C6
:104200000003C4E9058893FAA3F3B3FA83F34FF4E8
:104210008079013BC4F82490C4E90B003046236246
:1042200004F096FE38B10122134684F85C2018464B
:1042300023B0BDE8F08366230B90139041F28832DF
:1042400006A90693CDE90C90CDE90E00CDE9110049
:10425000304604F007FF0028E5D1992341F2883267
:1042600006A93046069304F0FDFE0028DBD10523A5
:104270001C9019906A4614934FF08073219014A9F2
:104280001D9341F288339FED2A7BCDE91A90CDE949
:104290001F008DED007B9FED287B30468DED027B6E
:1042A0009FED277B8DED047B05F048F80028BAD1FF
:1042B00029462046FFF748FE0028B4D12046FFF7E4
:1042C000CFFE03460028AED1002FB0D11893304660
:1042D0000027002606AA14A9CDF86890CDE91F335F
:1042E000EB2314934FF440631B934FF40053179345
:1042F0004FF440431C93A0231693062319934FF0C9
:10430000805321934FF04073CDE906671D9305F06C
:104310008DF8034600288AD0434684F85C8086E7FF
:1043200001230322184684F85C2023B0BDE8F08303
:10433000000000000100000010000000010000006B
:104340000000000000004000D00F00240050005288
:104350002DE9F04F8FB0414B0024026800AF9A4224
:104360007C63C7E90944C7E90B4403D03C37BD4629
:10437000BDE8F08F3A4B40F609213A48EB46D3F8B6
:10438000D42007F11C0607F1220A4FF0020942F47B
:1043900080424FF00308C3F8D420D3F8D42002F4AD
:1043A0008042BA60BA68D3F8E02042F04002C3F815
:1043B000E020D3F8E02002F04002FA60FA68D3F877
:1043C000E02042F02002C3F8E020D3F8E02002F021
:1043D00020023A613A69D3F8E02042F01002C3F8B3
:1043E000E020D3F8E02002F010027A617A69D3F875
:1043F000E02042F00202C3F8E020D3F8E030F86198
:1044000003F002033984BB61174B7B60BB697B6897
:1044100053F8040F7B6000F08FFF7B680546186837
:1044200000F092FF16F8013B786207F1240128465C
:10443000C7F830807B63C7E90A9402F025FF564530
:10444000E5D100225C20114601F0A2FE5C2001F0C3
:10445000DDFE3C37DD46BD46BDE8F08F0050005222
:10446000004402580A0A09092C100024114B026862
:104470009A4200D07047104A70B5D2F8D4300F4C31
:1044800023F4804304F11806C2F8D43054F8040F22
:1044900000F052FF0546206800F056FF014628460E
:1044A00003F032F8B442F1D15C20BDE8704001F075
:1044B000BBBE00BF00500052004402582C10002424
:1044C000014805F03FB800BFE00F0024084B1A1D5B
:1044D000981D03F1080110B49C1C9A6603F10A02AE
:1044E000C3E91834C3E91B015DF8044B5A677047F0
:1044F000D00F002438B5036871B9026A00F12805AD
:1045000000F5AC74012A0CBF002140218BBB1D4B70
:104510005722C0F858310DE0426A00F1C00500F59D
:10452000E874012A0CBF00214021EBB1164B5A223E
:10453000C0F8D03100232046C4E901214FF4805255
:104540004FF48061636262614FF48042C4E90331D9
:104550004FF48073C4E906234FF40033236201F063
:10456000C9FF58B1FFBEFEE7084B5822C0F8D03152
:10457000E0E7074B5922C0F85831DBE7C5E9204492
:10458000A56338BD100002407000024028000240C0
:10459000580002402DE9F043821D05468BB0031DF3
:1045A00005F10A010830CDE9052305F10C02AB69DC
:1045B000CDE907010992002B3DD0EB69B3FA83F8EE
:1045C0004FEA58180123022205AE0AAF4FF0060940
:1045D0000393CDE9012356F8044B2B7922789342BB
:1045E00016D02B68F3B1012B02D1F2B10A23049348
:1045F000204600F0A9FE03462046009300F09CFEF2
:10460000694602F041FEBE42E5D10BB0BDE8F08341
:10461000697963789942E4D1B8F1000FF3D02B683F
:10462000002BE0D1CDF81090E2E76378022B14BFA5
:104630000A230823DBE74FF00108C3E7534A036866
:10464000934230B505468BB055D02032934252D0BC
:104650004F4A934204D02032934201D00BB030BD78
:104660004C4C4D48D4F8E03043F00103C4F8E0303E
:10467000D4F8E03003F001030593059BD4F8E03053
:1046800043F00803C4F8E030D4F8E03003F0080346
:104690000693069BD4F8E03043F04003C4F8E030C2
:1046A000D4F8E03003F040030793079BD4F8F030D0
:1046B00043F40003C4F8F030D4F8F03003F40003FE
:1046C0000893089BFFF766FFD4F8D830296843F0B9
:1046D00001032F4A3048C4F8D830891AD4F8D830AA
:1046E00018BF012103F001030993099B0BB0BDE83A
:1046F0003040FFF7FFBE274C2848D4F8E03043F0A5
:104700000103C4F8E030D4F8E03003F00103009373
:10471000009BD4F8E03043F01003C4F8E030D4F844
:10472000E03003F010030193019BD4F8E03043F034
:104730004003C4F8E030D4F8E03003F040030293C3
:10474000029BD4F8F03043F48003C4F8F030D4F87E
:10475000F03003F480030393039BFFF71BFFD4F8AF
:10476000D830296843F00103084A0C48C4F8D8300F
:10477000891AD4F8D83018BF012103F0010304933B
:10478000049B0BB0BDE83040FFF7B4BE04580140B5
:10479000045C014000440258A41200244810002484
:1047A000014802F01FBA00BFA0110024014802F026
:1047B00019BA00BF18120024014802F013BA00BF52
:1047C000FC130024014802F00DBA00BF7414002449
:1047D0001A4A0368934210B40BD02032934208D097
:1047E000174A934216D02032934213D05DF8044BFF
:1047F0007047144B0022D3F85442C3F85822002CBF
:10480000F4D0D3F84802D3E9931223465DF8044B61
:10481000520818470B4B0022D3F8B044C3F8B42415
:10482000002CE3D0D3F8AC24D3F8A814D3F8A40414
:10483000520823465DF8044B184700BF0458014056
:10484000045C014048100024184A0368934210B4E5
:104850000BD02032934208D0154A934217D0203211
:10486000934214D05DF8044B7047124BD3E9942463
:104870005208C3F85822002CF4D0D3E99201234601
:1048800001EB820100EB82005DF8044B1847094BF5
:10489000D3F8AC24D3F8B0445208C3F8B424002CA5
:1048A000E0D0D3F8A814D3F8A404E8E704580140F2
:1048B000045C0140481000242DE9F04F0C684FF4CF
:1048C0001776754F87B004FB06F6012C07EB060A36
:1048D000C0F800A000F3A0800D468E464FF00008FF
:1048E000D44669A3D3E9002369A1D1E90001CDE948
:1048F000022306ABCAF8508203EB8403CDE904011E
:1049000053F810BC53F8083CCAE992880193BEE8FA
:104910000F00ACE80F00BEE80F00ACE80F00019BF1
:104920009EE80300CAF828B0CAF8C0308CE803003B
:104930002B69042B0CD8DFE803F0737D879103000B
:104940004FF41773554A03FB04739A64C3F8E020CD
:10495000AA692B6A002A43D0002B4FF4177308BFB3
:10496000022203FB047318BF0322DA6201221A63D6
:10497000EA696B6A002A40D1191E4FF4177318BFF9
:10498000012103FB0473C3E931126B69022B05D8C3
:10499000434A12F80380434A52F823904FF41773A6
:1049A00006F128004246494603FB047400233844BC
:1049B00063646363E365C4F8DC30C4F8CC30C4F8E6
:1049C000F430C4E90F33C4E91533C4E93533C4E91D
:1049D0003B33022306F058FE002849D0FFBEFEE715
:1049E000191E4FF4177318BF012103FB0473C3E9A9
:1049F0000B12EA696B6A002ABED0002B4FF41773C2
:104A000008BF022203FB047318BF0322C3F8C420AB
:104A10000122C3F8C820B8E7012007B0BDE8F08F35
:104A20004FF417734FF4FA5203FB04739A64C3F8FC
:104A3000E0208DE74FF417734FF47A5203FB0473B1
:104A40009A64C3F8E02083E74FF417734FF4FA42F7
:104A500003FB04739A64C3F8E02079E74FF41773FB
:104A60004BF6803203FB04739A64C3F8E0206FE7CF
:104A700006F1C000022342464946384406F004FECF
:104A80000028CAD0FFBEFEE704580140045C014084
:104A900024580140245C01404810002400770100A4
:104AA000EC3C0108F03C01080068704770B50468F0
:104AB00082B015460E46C4F85032C4E99212069AE6
:104AC000C4F85422A269012A26D0626A012A9AB245
:104AD00011D0294604F1C000019206F091FE236A2C
:104AE000019A012B10D0294604F1280006F088FE17
:104AF000002002B070BD04F1C000019206F012FF68
:104B0000236A019A012BEED1314604F1280006F008
:104B100009FF002002B070BD226A012A9AB211D0AA
:104B2000294604F12800019206F06AFE636A019AA0
:104B3000012B10D0294604F1C00006F061FE0020D0
:104B400002B070BD04F12800019206F0EBFE636A2A
:104B5000019A012BEED1314604F1C00006F0E2FECD
:104B6000002002B070BD00BF03681B69042B05D88C
:104B7000044A02EB830393ED000A70479FED020A9B
:104B8000704700BFFC3C010800803B470368D3F836
:104B900058027047704700BF08B500F0DDFCBDE863
:104BA000084001F0BDBB00BF064808B503680BB163
:104BB00002F07CFD044803681BB1BDE8084003F027
:104BC0006BBC08BD181D002410190024064808B548
:104BD00003680BB102F06AFD044803681BB1BDE82D
:104BE000084003F059BC08BD181D0024101900240A
:104BF000064808B503680BB102F058FD0448036885
:104C00001BB1BDE8084003F047BC08BD181D0024D7
:104C100010190024364BDA6A520062D59A6A9A6AF1
:104C20009A6A9B6A180600D500BE314B9B6A9906AA
:104C300000D500BE2E4B9B6ADA0600D500BE2C4B79
:104C40009B6A1B0700D500BE294B9B6A980700D5BD
:104C500000BE274B9B6AD90700D500BE244B9B6A38
:104C60001A0400D500BE224B9B6A9B0400D500BEEF
:104C70001F4B9B6AD80400D500BE1D4B9B6A1905CB
:104C800000D500BE1A4B9B6A5A0500D500BE184BD2
:104C90009B6A9B0500D500BE154B9B6AD80500D5C5
:104CA00000BE134B9B6A990100D500BE104B9B6A56
:104CB000DA0100D500BE0E4B9B6A1B0300D500BE77
:104CC0000B4B9B6A580300D500BE094B9B6A9903A6
:104CD00000D500BE064B9B6ADA0306D400BE00BEB8
:104CE000FEE7DB6A9B07FAD5F8E700BEF6E700BFF0
:104CF00000ED00E000F03CBC00F040BC0A4B9B68BB
:104D000003F17843B3F5003F0BD3084B986848B1E3
:104D10009868012806D09868022803D09B68032071
:104D200070470120704700BF00ED00E000008038B0
:104D30002DE9F041CEB004464C2200210AA80DF026
:104D400027FF2022002102A80DF022FFBC22002113
:104D50001EA80DF01DFF022004F012F82368012B9D
:104D60004FF0000354D0534A02250193C820D16A62
:104D7000514B21F00101D162D26A02F0010201928D
:104D80009A6942F440429A619B6903F4404301935B
:104D9000019B494A93699B04FCD54849022400229F
:104DA00001268B6A04274FF0080823F003032343EE
:104DB0008B62052316900AA818934FF4803310963F
:104DC000179419941597CDF86880CDE91B222122FC
:104DD000CDE91344CDE90A2304F0BCFC00B1FEE7A1
:104DE0003F220323294602A8CDE9022300220823FB
:104DF000CDE9042340224023CDE9062340234FF48C
:104E00008062CDE9082304F0D3FF0346B8B1FEE782
:104E1000294A04250093F0209169264B41F4404132
:104E20009161926902F440420092DA6A42F0010212
:104E3000DA62DB6A03F001030093009BA9E72022FA
:104E40004FF4805125934FF440152B9280222D93DF
:104E50001EA83093269135914FF48071249234929C
:104E60000C223394439140F2271120921022CDF866
:104E700084802A971F96CDE92E34CDE93B334FF439
:104E80008033CDE922463193002446930623CDE9B1
:104E90003E4527934FF48063094C2C931E94CDE933
:104EA000281205F0E1F900B1FEE703F08FFF4EB0E4
:104EB000BDE8F08100040058004802580044025840
:104EC0000F130F0370B584B0012401F0D7F94FF42C
:104ED00080764FF04052194B68460025ADF80040EF
:104EE0000396CDE9012301F0E7F919224FF0404381
:104EF00068468DF8082001938DF80F40ADF80D60DD
:104F00008DF801408DF80A5001F0D6F902230B22EA
:104F100068468DF80F508DF801304FF062538DF8D0
:104F200008200193ADF80D408DF80A4001F0C4F956
:104F3000042001F0B1F904B070BD00BF0E00010300
:104F400030B50D46044685B0D1E9000184E8030080
:104F500000F0D2FAAB79A3B30AF08EF8FEF77CFE2C
:104F600008F0F4FC09F080FD2B798BBB6B799BB1C9
:104F7000BFF34F8FBFF36F8F2A4B0022C3F850222D
:104F8000BFF34F8FBFF36F8F5A6942F400325A61FB
:104F9000BFF34F8FBFF36F8F4FF0FF32002300241A
:104FA00000256946204802928DF80C30CDE9004575
:104FB00009F0ECF81C4809F051F908F0F7F805B0D1
:104FC00030BD2046FFF7B4FE2046FFF77BFFC3E766
:104FD000144C0023C4F88430BFF34F8FD4F88010F2
:104FE00043F6E07EC1F34E3CC1F3C9014FEA4C1CCD
:104FF0000CEA0E000B4640EA8372013BC4F86022C3
:105000005A1CF8D1ACF1200C1CF1200FF0D1BFF3E9
:105010004F8F636943F480336361BFF34F8FBFF3F6
:105020006F8FA3E700ED00E00015002404F0F0BF4F
:105030001C4B9B6803F17842B2F5003F25D3B3F5D2
:10504000803F20D303F16042B2F5003F1FD303F14C
:105050005C42B2F5002F1CD303F17042B2F5902FE1
:1050600019D303F14842B2F5803F16D303F18042D1
:10507000B2F1806F13D303F1E043B3F5000F2CBFFF
:105080000820072070470120704700207047022049
:1050900070470320704704207047052070470620A2
:1050A000704700BF00ED00E003480023034A0449B5
:1050B00003600CF0E1BF00BF0015002400000024D5
:1050C000954B000810B4204C0022204B83B0D4F83C
:1050D00088101F4841F47001C4F8881019681D4CED
:1050E00041F0010119601A61196808401A491860F5
:1050F0009A61DA611A629A62DA621A635A639A638F
:10510000DA631A645A64186820F4802018601A66FA
:10511000D3F8DC2042F06042C3F8DC20D3F8DC3066
:105120000193019B23681940B1F1005F03D20B4B3F
:105130000122C3F80821044B4FF000629A6003B0CB
:105140005DF8044B704700BF00ED00E000440258DA
:105150007FEDF6EA0010005C0000FFFF00800051C8
:1051600000F57171D0F8040407F008BCC1EBC1036D
:1051700000EB8303D0F80404D3F8082207F02CBC1A
:10518000C1EBC10300EB8303D0F804049A6C07F071
:1051900061BC00BFD0F8040407F000BDC16810B5C1
:1051A000044619B1022900D0FEE70121D4F8040415
:1051B00007F0DEFCD4F80404BDE8104007F0B0BCF2
:1051C00010B50446D0F8040407F0D6FC2268D2F8E3
:1051D000003E43F00103C2F8003E236A23B1034AB4
:1051E000136943F00603136110BD00BF00ED00E03A
:1051F000D0F8040407F0CABCD0F8040407F0DEBC01
:10520000D0F8040407F0D8BCD0F8040407F0D8BCE8
:10521000D0F8040407F0D6BC9446D0F898021A4699
:1052200008B5634603F09CFC032802D8024B185CC7
:1052300008BD022008BD00BF203D0108D0F898023B
:1052400008B503F01BFD032802D8024B185C08BD0B
:10525000022008BD203D0108D0F8980208B503F0EF
:1052600051FD032802D8024B185C08BD022008BD7E
:10527000203D01080A06D0F8983206D4C1EBC101DE
:1052800003EB810191F8FE01704701F07F01C1EB52
:10529000C10103EB810191F83E007047D0F89802FC
:1052A00008B503F047FC032802D8024B185C08BD80
:1052B000022008BD203D0108D0F8980208B503F08F
:1052C000B5FC032802D8024B185C08BD022008BDBB
:1052D000203D0108D0F8980208B503F07FFC0328B0
:1052E00002D8024B185C08BD022008BD203D010811
:1052F000D0F8C00207F014BFD0F8C00207F028BFF2
:10530000D0F8C00207F030BF704700BFD0F8C0022D
:1053100007F016BFD0F8C00207F016BFD0F8D003D0
:1053200008B502F083FD032802D8024B185C08BDC3
:10533000022008BD243D0108024B027853F82200E8
:10534000704700BF483D0108024B427833F8120015
:10535000704700BF283D01088CB00A2814D8DFE848
:1053600000F01523313F4D5B6977859306004D4B67
:10537000D3F8E02042F48062C3F8E020D3F8E030B4
:1053800003F480630B930B9B0CB07047454BD3F831
:10539000E02042F00102C3F8E020D3F8E03003F04F
:1053A00001030193019BEFE73E4BD3F8E02042F06D
:1053B0000202C3F8E020D3F8E03003F002030293C6
:1053C000029BE1E7374BD3F8E02042F00402C3F838
:1053D000E020D3F8E03003F004030393039BD3E70A
:1053E000304BD3F8E02042F00802C3F8E020D3F8B5
:1053F000E03003F008030493049BC5E7294BD3F87E
:10540000E02042F01002C3F8E020D3F8E03003F0CF
:1054100010030593059BB7E7224BD3F8E02042F039
:105420002002C3F8E020D3F8E03003F02003069315
:10543000069BA9E71B4BD3F8E02042F04002C3F8DB
:10544000E020D3F8E03003F040030793079B9BE78D
:10545000144BD3F8E02042F08002C3F8E020D3F8E8
:10546000E03003F080030893089B8DE70D4BD3F8E1
:10547000E02042F48072C3F8E020D3F8E03003F477
:1054800080730993099B7FE7064BD3F8E02042F431
:105490000072C3F8E020D3F8E03003F400730A93FD
:1054A0000A9B71E700440258704700BF0F4B1B78FE
:1054B0000BB90120704710B504464FF47A700C4ABE
:1054C000B0FBF3F31068B0FBF3F000F0C1FE0F2C5B
:1054D00000D808B1012010BD002221464FF0FF3056
:1054E00000F056FE034B00201C6010BD5800002445
:1054F000500000245C00002438B50320124D00F059
:1055000035FE124C04F0B4FB114A12499369C3F3FF
:105510000323CB5C03F01F0320FA03F30E202B6060
:10552000926902F00F028A5C02F01F02D3402360EE
:10553000FFF7BCFF10B10124204638BD0446FFF739
:10554000B3FF204638BD00BF5000002454000024A3
:1055500000440258103D0108034A044B11681B78AF
:105560000B441360704700BFDC1F00245800002468
:10557000014B1868704700BFDC1F002438B5044693
:10558000FFF7F6FF0546631C02D0044B1B781C4452
:10559000FFF7EEFF431BA342FAD338BD58000024A7
:1055A000014B1868000C70470010005C704700BF8A
:1055B000806B08B5FFF7FAFF08BD00BF836B5A6D1B
:1055C00012F0500F5A6D10B51DD1196842F40072D7
:1055D0005A650A6812F0080FCA681BD012F4406FAF
:1055E0000DD1CA6894040AD45A6D22F480725A65A7
:1055F0005A6DD10403D45A6D42F001025A6518461F
:10560000FDF786FF10BDD2060AD4DB6CBDE8104062
:10561000DB6C18479007E7D01846FDF779FFF1E7F4
:105620001846FEF719F810BD806B08B5436D43F0BE
:1056300040034365836D43F004038365FEF70CF874
:1056400008BD00BFF0B5002283B0019290F8502051
:10565000012A00F01C81034601201A6883F85000DB
:105660009468640700F18A800C68C4F31305002D68
:1056700040F08F80C4F38464A0404D684FF01F0E4B
:10568000D6694FEA951C30430CF00C0CD06105F044
:105690001F0002F1300584400EFA00FE5CF80500A0
:1056A00020EA0E0004434CF80540906840076ED491
:1056B000956815F0080547D10C68072002F114061B
:1056C000B94F4FEAD45CC4F304540CF0040C00FA54
:1056D00004FE886800FA04F45CF8060020EA0E0074
:1056E00020434CF80600386800F07040B0F1805F4D
:1056F00000F0C580D068D668C70600F1E880C6F320
:1057000082064869760000FA06F60F69042F00F059
:10571000C18002F16004086854F827C000F0F84026
:105720000CF0004C40EA0C00304344F82700487E5F
:105730000E69012854F8260008BF4FF0004520F0FC
:105740000040054344F826509068C40714D4CE683E
:10575000086806F01807954CD2F8C050FC40C0F31A
:105760001307044025EA07052C43C2F8C040904CBB
:10577000A64246D0002816DB002003E05A6D42F016
:1057800020025A65002283F8502003B0F0BD9068D3
:10579000DAE794FAA4F5B5FA85F5C4F3846405F064
:1057A0001F05A84069E783498A4200F0B68001F5E9
:1057B00080718A4200F0B1807F4D804CA968A46856
:1057C00001F0E076E44304F00104002C00F0B48022
:1057D0007B4CA04200F0FC807A4CA04200F01A8181
:1057E000794CA042C8D14902C6D474498A42C3D177
:1057F000AA68002022F0E072324342F48002AA60DC
:10580000C0E7002F6AD090FAA0F4B4FA84F401340F
:1058100004F01F04092C00F2A48090FAA0F4B4FA5A
:1058200084F490FAA0F5B5FA85F501340126013526
:10583000A40605F01F0504F0F84406FA05F52C430C
:1058400090FAA0F0B0FA80F0304400F01F0000EBB6
:10585000400000052043C60D02F11405C0F30450BA
:10586000072406F0040604FA00F7745924EA070432
:105870008F6807FA00F02043705108687AE7D6680D
:105880004869C6F38206760000FA06F63DE7022074
:1058900003B0F0BD106E0C6800F0F840A506B0EB48
:1058A000846F30D0506E00F0F840854226D0906E64
:1058B00000F0F84085422BD0D06E00F0F8408542D1
:1058C0007FF442AFD06E20F00040D0663CE776080F
:1058D000486906F0080600FA06F616E7800E441C32
:1058E00004F01F06092E2DD8A406012004F0F84468
:1058F000B040044306EB46000005ABE7506E20F0D5
:1059000000405066D3E7106E20F000401066C9E7F3
:10591000906E20F000409066CEE7264C2B4D04F5AB
:105920008074A96854F8F86CA468344301F0E076F8
:10593000E44304F0010448E75A6D012042F02002DC
:105940005A651FE706EB4600A50601241E3805F040
:10595000F84504FA06F60005354340F00070284388
:1059600079E790FAA0F5B5FA85F590FAA0F4B4FAC3
:1059700084F4013501260134AD0604F01F0405F05E
:10598000F84506FA04F4254390FAA0F4B4FA84F436
:10599000344404F01F0404EB4404A4F11E00000589
:1059A00040F00070DBE700BF0010005CFFFF0F005D
:1059B0000000FF47002002400063025800600258C8
:1059C000000084CB000052C70000B8CF0023024083
:1059D00008023FF5D1AE17498A427FF4CDAE164A90
:1059E000A9681268154821F0E07192093143A0FBC3
:1059F000020241F400019209A96052000192019A49
:105A0000002A3FF4B9AE019A013A0192019A002AA4
:105A1000F9D1B1E611F080707FF4AEAE05498A424B
:105A20007FF4AAAEAA6822F0E072324342F080729C
:105A3000AA60A7E60060025850000024632D3E05CE
:105A400003689A68D20701D5002070479968214AF7
:105A5000114270B5044608D0636D012043F0100375
:105A60006365A36D0343A36570BD99681A4A0A4034
:105A700042F001029A60FFF77BFD2368174A054652
:105A800093421ED002F5807293421AD0144A926853
:105A9000114E0AE09A68324042F001029A60FFF724
:105AA00067FD401B0228D7D823681A68D2070FD495
:105AB0009A68D107EED5FFF75BFD401B0228F3D9AA
:105AC000CAE7084A9268D006E2D0074A9342DFD17B
:105AD000002070BD3F000080C0FFFF7F002002401B
