:020000040800F2
:1000000000000220E1050008DD050008FD4B0008A6
:10001000DD050008DD050008DD0500080000000022
:10002000000000000000000000000000DD050008E6
:10003000DD05000800000000DD050008814B000818
:10004000DD050008DD050008DD050008DD05000808
:10005000DD050008DD050008DD050008DD050008F8
:10006000DD050008DD050008DD05000889470008FA
:10007000954700080D320008A1470008AD47000869
:1000800095F40008B93C0008DD050008DD0500080E
:10009000DD050008DD050008DD050008DD050008B8
:1000A000DD050008DD050008DD050008DD050008A8
:1000B000ADE80008B9E80008C5E80008ED3C000814
:1000C000DD050008F93C0008DD0500081DE1000819
:1000D00029E10008C9F20008F5F2000829F3000838
:1000E000DD050008DD05000800000000DD05000852
:1000F000DD050008DD050008DD050008DD05000858
:10010000DD050008DD050008D1E8000835E100083C
:100110005DF3000891F30008D9340008DD050008FC
:10012000C1340008CD34000859E100088DE1000811
:10013000C9F40008DD050008DD050008DD0500083C
:1001400000000000000000000000000000000000AF
:10015000DD050008DD050008DD050008C5F3000821
:10016000053D0008DD050008914B0008B54B00086F
:10017000DD050008D94B0008DD050008DD05000895
:10018000DD050008DD050008F9F300082DF400087E
:1001900041E100084DE10008DD050008DD0500082B
:1001A000DD050008DD050008DD050008DD050008A7
:1001B000A9440008DD050008DD050008DD0500088C
:1001C000DD050008DD0500082D2C0008392C00088D
:1001D000DD050008452C0008DD050008DD050008E8
:1001E000DD050008DD050008DD050008DD05000867
:1001F000DD050008DD050008DD050008DD05000857
:10020000DD050008DD050008DD050008DD05000846
:10021000DD050008DD050008DD050008DD05000836
:10022000DD050008DD050008DD0500080000000010
:10023000DD050008DD05000800000000DD05000800
:10024000DD050008DD050008DD050008DD05000806
:10025000DD050008DD050008DD050008DD050008F6
:10026000DD050008DD050008DD050008DD050008E6
:10027000DD050008DD05000861F40008000000004D
:10028000DD050008DD050008DD05000800000000B0
:0802900000000000DD0500087C
:1002980010B5054C237833B9044B13B10448AFF3B8
:1002A80000800123237010BDE80300240000000033
:1002B800C830010808B5034B1BB103490348AFF325
:1002C800008008BD00000000EC030024C8300108CD
:1002D80053B94AB9002908BF00281CBF4FF0FF31A5
:1002E8004FF0FF3000F074B9ADF1080C6DE904CEA1
:1002F80000F006F8DDF804E0DDE9022304B07047F9
:100308002DE9F047089D04468E46002B4DD18A42C0
:10031800944669D9B2FA82F252B101FA02F3C2F1F3
:10032800200120FA01F10CFA02FC41EA030E944084
:100338004FEA1C48210CBEFBF8F61FFA8CF708FBA5
:1003480016E341EA034306FB07F199420AD91CEB7D
:10035800030306F1FF3080F01F81994240F21C81AF
:10036800023E63445B1AA4B2B3FBF8F008FB1033F7
:1003780044EA034400FB07F7A7420AD91CEB04042C
:1003880000F1FF3380F00A81A74240F207816444FC
:10039800023840EA0640E41B00261DB1D440002381
:1003A800C5E900433146BDE8F0878B4209D9002DE5
:1003B80000F0EF800026C5E9000130463146BDE86F
:1003C800F087B3FA83F6002E4AD18B4202D38242D9
:1003D80000F2F980841A61EB030301209E46002D88
:1003E800E0D0C5E9004EDDE702B9FFDEB2FA82F2DD
:1003F800002A40F09280A1EB0C014FEA1C471FFA3B
:100408008CFE0126200CB1FBF7F307FB131140EA21
:1004180001410EFB03F0884208D91CEB010103F1EE
:10042800FF3802D2884200F2CB804346091AA4B2B0
:10043800B1FBF7F007FB101144EA01440EFB00FE84
:10044800A64508D91CEB040400F1FF3102D2A645E9
:1004580000F2BB800846A4EB0E0440EA03409CE788
:10046800C6F12007B34022FA07FC4CEA030C20FA35
:1004780007F401FA06F31C43F9404FEA1C4900FA55
:1004880006F3B1FBF9F8200C1FFA8CFE09FB1811D2
:1004980040EA014108FB0EF0884202FA06F20BD945
:1004A8001CEB010108F1FF3A80F08880884240F295
:1004B8008580A8F102086144091AA4B2B1FBF9F0D9
:1004C80009FB101144EA014100FB0EFE8E4508D9D4
:1004D8001CEB010100F1FF346CD28E456AD9023859
:1004E800614440EA0840A0FB0294A1EB0E01A1423E
:1004F800C846A64656D353D05DB1B3EB080261EBAC
:100508000E0101FA07F722FA06F3F1401F43C5E985
:10051800007100263146BDE8F087C2F12003D840BB
:100528000CFA02FC21FA03F3914001434FEA1C47FD
:100538001FFA8CFEB3FBF7F007FB10360B0C43EAEF
:10054800064300FB0EF69E4204FA02F408D91CEB9F
:10055800030300F1FF382FD29E422DD9023863449D
:100568009B1B89B2B3FBF7F607FB163341EA03413D
:1005780006FB0EF38B4208D91CEB010106F1FF388C
:1005880016D28B4214D9023E6144C91A46EA004683
:1005980038E72E46284605E70646E3E61846F8E615
:1005A8004B45A9D2B9EB020864EB0C0E0138A3E75E
:1005B8004646EAE7204694E74046D1E7D0467BE73F
:1005C800023B614432E7304609E76444023842E7B7
:1005D800704700BFFEE700BF0B480C4A904203D0AB
:1005E800121A0B4912F028FA0A480B4A904203D013
:1005F800121A002112F02EFA04F056FD12F0F8F942
:1006080000F02EF8FEE700BF00000024E8030024F5
:10061800FC300108E803002444BB0724704700BFEE
:10062800704700BFC2B12DE9F0410746884616461B
:1006380000243D68D8F8003005EB840C074803EB2C
:10064800840501349CED000A00F0CAFEA64285ED3F
:10065800000AEED1BDE8F081704700BF0404002411
:1006680008B5012203230021524800F00FFA0023A5
:10067800022208214F4800F009FA052201214D48BD
:1006880000F0AEFA062202214A4800F0A9FA042234
:100698000321484800F0A4FA07220421454800F045
:1006A8009FFA012305220721424800F0EFF90223AF
:1006B800062209213F4800F0E9F9042205213D48B6
:1006C80000F010FA092206213A4800F04FF90021FB
:1006D800384800F02DFE384B3848196800F0F0FF14
:1006E8000321364800F0D0FF3448354900F0C8FFF0
:1006F800344B354893ED000A00F050FE04F0EAFA56
:1007080001462E48C1F30901B1F5FF7F8CBF0021D6
:10071800012100F0F1FF0021264800F0F1FA2A48F3
:1007280000F040FF0921234800F0EAFA264800F0CB
:100738006DFF01211F4800F0CFFA234800F0B0FEFA
:1007480002211C4800F0C8FA1F4800F0CBFE032124
:10075800184800F0C1FA1C4800F0E2FE04211548D0
:1007680000F0BAFA184800F0F3FE0721114800F02B
:10077800C7FA154800F02EFF08210E4800F0C0FA0D
:10078800114800F065FF05210A4800F0E5FA014626
:100798000D4800F0FBFE0C4800F0FCFE01460B483B
:1007A80003F04CF8084800F0F9FE0621014800F073
:1007B8001FFBA3E7AC86072404000024CC8707248A
:1007C8002D0600080800002404040024508707248C
:1007D80043484FF60B7201214FF0FF3310B5002448
:1007E800C0E90124C0E90624C0E90B24C0E91024AB
:1007F800C0E91524C0E91A24C0E91F24C0E924244B
:10080800C0E90344C0E90844C0E90D44C0E9124402
:10081800C0E91744C0E91C44C0E92144C0E92644A2
:10082800C0E92924C0E92E24C0E93324C0E93824CA
:10083800C0F8181106220221C0F83441C0F840411E
:10084800C0E95743C0E92B44C0E93044C0E9354406
:10085800C0E93A44C0E94744C0E95933C0E95B33C9
:10086800C0E95D33C0E95F33C0E96133C0E9693489
:10087800C0E96B42C0E97323C0E96333C0E965335B
:10088800C0E96733C0E96D22C0E96F22C0E971226F
:10089800C0E97533134AC0F8EC31C0F8F0111249B9
:1008A800C0E97733C0E9793311F0CEFD0F48002352
:1008B800DFF840C0A0F854400A4A0D498362C36279
:1008C800C0F830C04363C0F838C0C0F83CC0C0F8B6
:1008D80040C043648364C364BDE8104011F0B4BDF4
:1008E800AC86072400000024250600080404002420
:1008F80029060008000080BFD0F880318B4220D044
:10090800D0F884318B4225D0D0F888318B421BD067
:10091800D0F88C318B4220D0D0F8903199421FD03A
:10092800D0F8943199421ED0D0F8983199420ED01F
:10093800D0F89C3199420CBFD0F8EC014FF0FF3051
:100948007047D0F8D0017047D0F8D8017047D0F878
:10095800E8017047D0F8D4017047D0F8DC0170473F
:10096800D0F8E0017047D0F8E401704710B472B9CC
:10097800D0F8F0310524C0F880115A1CC0F8D031E5
:10098800C0F8B841C0F8F0215DF8044B7047012A5F
:100998000ED1D0F8F0310524C0F884115A1CC0F8E3
:1009A800BC41C0F8D4315DF8044BC0F8F021704761
:1009B800022A0ED1D0F8F0310524C0F888115A1C4B
:1009C800C0F8C041C0F8D8315DF8044BC0F8F02138
:1009D8007047032A0ED1D0F8F0310524C0F88C11E5
:1009E8005A1CC0F8B041C0F8DC315DF8044BC0F8BF
:1009F800F0217047042A0CD1D0F8F0310524C0F852
:100A080090115A1CC0F8E031C0F8C441C0F8F02178
:100A1800BAE7052A0BD1D0F8F031C0F8C8215A1C22
:100A2800C0F89411C0F8E431C0F8F021ACE7062A08
:100A38000CD1D0F8F0310524C0F898115A1CC0F830
:100A4800E831C0F8CC41C0F8F0219DE7072A0CD165
:100A5800D0F8F0310524C0F89C115A1CC0F8EC31CC
:100A6800C0F8B441C0F8F0218EE7082A05D1012367
:100A7800C0F8A011C0F8A83186E7092A84D101235B
:100A8800C0F8A411C0F8AC317EE700BF70B51C46B1
:100A98000546FFF76BFF14B9C5F8601170BD012C4E
:100AA80002D1C5F8641170BD022C02D1C5F86811D5
:100AB80070BD032C02D1C5F86C1170BD042C02D195
:100AC800C5F8701170BD052C02D1C5F8741170BD40
:100AD800062C02D1C5F8781170BD072CDED1C5F8F7
:100AE8007C1170BD10B472B9D0F8F0310524C0F88B
:100AF80080115A1CC0F8B841C0F8D031C0F8F021B4
:100B08005DF8044B7047012A0ED1D0F8F031052466
:100B1800C0F884115A1CC0F8BC41C0F8D4315DF843
:100B2800044BC0F8F0217047022A0ED1D0F8F031FA
:100B38000524C0F888115A1CC0F8C041C0F8D83143
:100B48005DF8044BC0F8F0217047032A0ED1D0F8A5
:100B5800F0310524C0F88C115A1CC0F8B041C0F817
:100B6800DC315DF8044BC0F8F0217047042A0CD141
:100B7800D0F8F0310524C0F890115A1CC0F8C441CF
:100B8800C0F8E031C0F8F021BAE7052A0BD1D0F857
:100B9800F031C0F8C8215A1CC0F89411C0F8E431EB
:100BA800C0F8F021ACE7062A0CD1D0F8F0310524C2
:100BB800C0F898115A1CC0F8CC41C0F8E831C0F808
:100BC800F0219DE7072A9BD1D0F8F0310524C0F821
:100BD8009C115A1CC0F8B441C0E97B3290E700BFB1
:100BE80012B9C0F860117047012A02D1C0F8641127
:100BF8007047022A02D1C0F868117047032A02D14F
:100C0800C0F86C117047042A02D1C0F870117047FF
:100C1800052A02D1C0F874117047062A02D1C0F81B
:100C280078117047072A02D1C0F87C1170477047C5
:100C3800D0F860318B421FD0D0F868318B421BD07E
:100C4800D0F86C318B4217D0D0F870318B4213D06A
:100C5800D0F864318B4211D0D0F874318B420DD06A
:100C6800D0F87831994209D0D0F87C0181420CBF84
:100C780001204FF0FF307047002070470120704777
:100C8800D0F860318B421FD0D0F868318B421FD02A
:100C9800D0F86C318B421DD0D0F870318B4215D012
:100CA800D0F864318B420FD0D0F874318B420DD01C
:100CB800D0F8783199420DD0D0F87C0181420CBF30
:100CC80001204FF0FF307047002070470220704726
:100CD800012070470320704738B50446FFF7A8FF86
:100CE80005462046FFF7CCFF0246E9B204F59C70A2
:100CF800D2B202F02BFAF7EE007A37EEC00A38BD0E
:100D080070B504460D4604F59C762DED028BFFF771
:100D1800F3FDF7EE008AC1B2304602F007FA294621
:100D2800204638EEC00AFFF783FF03462046B6EE9A
:100D3800008A1C46FFF7A4FF02463046E1B230EEB7
:100D4800488AD2B202F002FA38EEC00A30EE080A37
:100D5800BDEC028B70BD00BFD0F88021914208B570
:100D6800034600F59C701FD0D3F88421914233D0FC
:100D7800D3F88821914229D0D3F88C2191422ED0E2
:100D8800D3F8902191422DD0D3F8942191422CD0C0
:100D9800D3F8982191421CD0D3F89C2191420CBFE2
:100DA80093F8EC11FF2101E093F8D01102F0BEF99D
:100DB800F7EE007AB6EE087A37EEC00AB4EEC70A44
:100DC800F1EE10FACCBF0120002008BD93F8D8112D
:100DD800ECE793F8E811E9E793F8D411E6E793F81C
:100DE800DC11E3E793F8E011E0E793F8E411DDE7BD
:100DF800F7EE007A9FED267A30B577EEC07A044692
:100E08000D46FEEECA7A2DED028BB8EEE78A83B066
:100E1800B4EEC78AF1EE10FA10DCB5EEC08AF1EE36
:100E280010FA31D4D4F8A031AB420DD0D4F8A431A3
:100E3800AB4219D003B0BDEC028B30BDD4F8A03161
:100E4800B0EE478AAB42F1D1FCEEC87AD4F818115B
:100E580004F5A070CDED017ABDF8042002F0C4FBC2
:100E6800D4F8A431AB42E5D1BCEEC88AD4F81C1141
:100E780004F5A07018EE103A9AB203B0BDEC028BDC
:100E8800BDE8304002F0B0BB9FED028ACAE700BF60
:100E980000F07F450000000030B52F4983B00024E2
:100EA80005460122096823460430009402F0D4FB69
:100EB8002A49234605F1180001220968009402F026
:100EC800CBFB2749234605F12C0001220968009431
:100ED80002F0C2FB2349234605F1400001220968BC
:100EE800009402F0B9FB2049234605F15400012281
:100EF8000968009402F0B0FB1C49234605F168001C
:100F080001220968009402F0A7FB1949234605F15C
:100F18007C0001220968009402F09EFB15492346D3
:100F280005F1900001220968009402F095FB12492E
:100F3800234605F1A40001220968009402F08CFB05
:100F48000E4923460122096805F1B800009402F011
:100F580083FB03B030BD00BFAC2A0108B42A0108E6
:100F6800A82A0108B02A0108BC2A0108C42A0108D5
:100F7800B82A0108C02A0108A02A0108A42A0108E1
:100F880038B5D0F8A8510446ADB1012D61D0D4F8D8
:100F9800AC51EDB1012D66D0D4F8B0311A1F012A39
:100FA80025D9032B3ED0D4F8B4311A1F012A2DD9E4
:100FB800032B42D038BD0430012102F03FFC294602
:100FC80004F12C0002F03AFCD4F8AC51002DE1D128
:100FD80004F11800012102F031FC294604F1400017
:100FE80002F02CFCD4F8B0311A1F012AD9D804F128
:100FF8007C00012102F022FC002104F1540002F0DF
:101008001DFCD4F8B4311A1F012AD1D804F190007C
:10101800012102F013FC04F168000021BDE838400A
:1010280002F00CBC04F17C00002102F007FC012155
:1010380004F1540002F002FCB5E704F1900000212D
:1010480002F0FCFB04F168000121BDE8384002F021
:10105800F5BB0430002102F0F1FB294604F12C0015
:1010680002F0ECFB93E704F11800002102F0E6FB24
:10107800294604F1400002F0E1FB8DE7F8B504468B
:10108800012500260423F43084F8F45084F8F53060
:10109800062784F8F66084F8F75002F0D9FB0B2392
:1010A80004F1F80084F8F87084F8F93084F8FA60EC
:1010B80084F8FB5002F0CCFB072304F1FC0084F811
:1010C800FC5084F8FE6084F8FD3084F8FF5002F08C
:1010D800BFFB04F5807084F8005184F8017184F82E
:1010E800026184F80351BDE8F84002F0B1BB00BFCB
:1010F8002DE9F04F97B000264FF00B024FF0060B8A
:10110800D0F8F03104AF4FF00A0A03EBC30302250D
:1011180087F840204FF00C095B0087F8416087F89A
:1011280010B00446073387F811A03E72042223F05A
:1011380007037D723D73ADEB030DB7F8403087F8B8
:101148000D90ADF804300DF110083B8AB96840469F
:10115800ADF800300295FB6801F08AFD4FF00B02F4
:1011680087F81CB00DF1220087F81DA087F84420ED
:10117800BB8B87F84560B7F8442087F819903E750F
:101188007E753D76ADF804200422ADF8003079690B
:10119800BB69029501F06CFDD4F8B831052B2DD050
:1011A800D4F8BC31052B3BD0D4F8C031052B4BD03B
:1011B800D4F8B031052B5BD0D4F8C431052B6AD0F4
:1011C800D4F8C831052B7AD0D4F8CC31052B00F0EF
:1011D8008A80D4F8B431052B00F0998004F59C700E
:1011E8000423D4F8F0214146786001F07BFD78684B
:1011F80001F086FF4C37BD46BDE8F08FD4F8D0012A
:101208002A4687F8205000EBC00087F82160396A29
:1012180008EB400001F018FDD4F8BC31052BC3D110
:10122800D4F8D40106230021022200EBC00087F87D
:10123800253087F82410796A08EB400001F004FD96
:10124800D4F8C031052BB3D1D4F8D801012300213B
:10125800022200EBC00087F8293087F82810B96A05
:1012680008EB400001F0F0FCD4F8B031052BA3D115
:10127800D4F8DC010423022200EBC00087F82D30EB
:1012880087F82C20F96A08EB400001F0DDFCD4F85F
:10129800C431052B94D1D4F8E001032300210222A4
:1012A80000EBC00087F8313087F83010396B08EB55
:1012B800400001F0C9FCD4F8C831052B84D1D4F81A
:1012C800E4010123022200EBC00087F8353087F8DB
:1012D8003420796B08EB400001F0B6FCD4F8CC312F
:1012E800052B7FF476AFD4F8E8010123022200EB46
:1012F800C00087F8383087F83930B96B08EB400000
:1013080001F0A2FCD4F8B431052B7FF467AFD4F810
:10131800EC0100210723022200EBC00087F83C10F3
:1013280087F83D30F96B08EB400001F08DFC55E77C
:10133800F0B500F59076044687B0002530460127C1
:1013480000F09AFA2046FFF7A7FD022301A904F549
:10135800A070CDE90235CDE9047502F0C7F8204642
:10136800FFF70EFE2046FFF789FE05238DF804706F
:1013780004F582708DF8053001999FED070A01F098
:1013880037FC2046FFF7B4FE2946304607B0BDE8D3
:10139800F04000F0B1B900BF0000000010B50446ED
:1013A8000121283084ED030A10F09AFD94ED030A18
:1013B80004F1580010F088FF0748084A002120442B
:1013C80004F5C02411F046FB00220123C4F8A02B29
:1013D800C4F8A43B10BD00BFA80B060000770100AD
:1013E80070B5044690F8241028302DED028BB0EE2D
:1013F800408A10F08BFE04F5C02C274AD4ED026A0F
:10140800F6EE007ADCF8A05B0CF69C31DCF8A43B25
:1014180070EE266A94ED067A68EE277A2B44D1EDB1
:10142800004AD4ED075AA2FB036E581C84ED000A4B
:1014380045F6C0544FEA5E2E9FED185A04FB1E3342
:1014480001EB830393ED030AA2FB00635B0A04FB31
:10145800130045F6BF5301EB80002B4401EB8501D7
:1014680090ED036A36EE406ABDEC028BA6EE240AC4
:1014780020EE050A20EE077A20EE250AA7EEA67AC6
:10148800A7EEA60A81ED037AA2FB0312520A04FB17
:101498001232CCF8A02B70BDF1197605CDCCCC3E1C
:1014A80010B5DFED0C0A044611F0FAF8DFED0A6A10
:1014B800F2EE047A9FED097A20EE260A04F128005C
:1014C80080FE070ADFED060A80FE670ABDE81040C5
:1014D80010F076BD33335340CFF71F416F12033BF3
:1014E8000000000010B5DFED0B0A044611F0D8F833
:1014F800DFED096AF2EE047A9FED087A20EE260AFB
:1015080004F1280080FE070ABDE8104080FE670A43
:1015180010F0ACBD33335340CFF71F416F12033B7C
:10152800B5EEC00AF1EE10FA0AD9F7EE007AB4EE79
:10153800670AF1EE10FA37FE800A80ED0A0A704752
:101548009FED020A80ED0A0A704700BF0AD723BC44
:1015580010B5DFED0B0A044611F0A2F8DFED096AB9
:10156800F2EE047A9FED087A20EE260A04F12800AC
:1015780080FE070ABDE8104080FE670A10F09EBD95
:1015880033335340CFF71F416F12033B80F82410C9
:10159800704700BF90F82400704700BF90ED000A24
:1015A800704700BF9FED086AB7EE007ADFED077A53
:1015B800DFED076AE0EE067AC7FEA67AC7FEC77AAD
:1015C800C0ED027A704700BFCDCC8C3FCDCC4CBD6E
:1015D800000000009FED097ADFED097ADFED096A66
:1015E800E0EE077A9FED087AC7FEA67AC7FEC77AAB
:1015F800C0ED067AC0ED167A704700BFCDCC8C3F9F
:10160800CDCC4CBD00000000A4707D3F90ED037A66
:1016180045F6BF53DFED0D6A00F5C020C6EE877AA8
:1016280000F69C3227EE800A20EE070AFDEEC07A0B
:1016380017EE901AB8EEE77A994230EE470A28BFBB
:10164800194682ED000AC0F8A41B70470080BB460B
:101658009FED086AB7EE007ADFED077ADFED076ADB
:10166800E0EE067AC7FEA67AC7FEC77AC0ED077A0B
:10167800704700BFCDCC8C3FCDCC4CBD00000000E6
:10168800143001F069BA00BF38B500F114050446FA
:101698002DED028B284601F01BFA284601F014FABA
:1016A8002846B0EE408A01F0FDF9D0ED007AF8EE58
:1016B800677A88EE277ABDEC028B84ED0E7A38BD06
:1016C80038B500F1140504462DED028B284601F0CB
:1016D800EDF9284601F0F8F92846B0EE408A01F005
:1016E800E1F9D0ED007AF8EE677A88EE277ABDEC5A
:1016F800028B84ED0E7A38BD253002F085B900BF23
:1017080010B540F203338EB000244FF60B7240F24E
:101718000341ADF8083009A80123ADF81020ADF851
:1017280024202246ADF80C100094029907940C94DA
:10173800CDE90544CDE90A4401F08EFF04A8012350
:1017480022460399009401F087FF09A802F06AF87D
:1017580010B901200EB010BD04A802F063F8A04231
:101768000CBF022020460EB010BD00BF2DE9F0418D
:1017780003239AB0012700240646CDE914373B4BD2
:10178800CDE9104340F20453CDE91647ADF848308F
:10179800FFF7B6FFB842054625D0022845D040F6E7
:1017A8000132334B0DF12C081894ADF82C200B980E
:1017B8001997CDF84A3000F0E3F810A906F13C007B
:1017C80003F06AF8302003224FF07E5341460D9310
:1017D8000E93CDE90B02F26B06F1140001F02AF921
:1017E8001AB0BDE8F0811023214A06A906908DF8A9
:1017F80028300DF12C081F4BCDF84A20079302948E
:10180800CDE91804CDE9080402A802F07DFA0823FE
:10181800029A03A94046ADF80C508DF80E40049585
:1018280005930B9400F0ECF8C7E700200121104B5A
:101838000DF12C083A460094CDF84A304FF60B7358
:101848000C94ADF82C302346CDE9180140F601314F
:101858004046ADF818100699CDE90D4401F0FCFE9C
:101868002146404601F0EAFFA7E700BF040204044E
:10187800040604030704010B2DE9F04704462DED87
:10188800028B82B000294DD0012140F201120023C1
:101898000091ADF804208DF80630364A0127364B02
:1018A80004F10409354904F12908626040F2027222
:1018B800A36040F60663E16004F1250AA4F8252038
:1018C800A4F82930278284F8277084F82B7003F055
:1018D800A1FB054603F002FA6946064650BB4DB324
:1018E80004F130008DF8067003F01AFB072D3CD187
:1018F80004F114052046FFF739FF284601F0E4F803
:101908002846B0EE408A01F0CDF8D0ED007AF8EE26
:10191800677A88EE277A84ED0E7A02B0BDEC028BE6
:10192800BDE8F08740F2011300918DF80610ADF87C
:101938000430B2E704F1300003F0F2FA072D11D0B9
:101948004946204602F028FC0EB9002DD0D1504659
:1019580001F07EFF404601F07BFF04F1120000F029
:1019680079F9C5E7002EF2D1C2E74946204602F0D0
:1019780013FCBDE70508050905070506050A06065F
:1019880010B584B003460124ADF8040003A8ADF8EF
:101998000C30ADF80E4001F05BFF214603A802F0C1
:1019A80033F8204603F098F9002103A802F02CF838
:1019B800204603F091F9214603A802F025F804B067
:1019C80010BD00BF10B5C2F3002384B00C46017CE3
:1019D8008DF80D2043EA4402FA2402238DF80C20E6
:1019E80003AA009402F026FA18B10124204604B094
:1019F80010BD04460A2003F06FF9204604B010BD5C
:101A0800034670B543F8042B044684B007C983E83D
:101A18000700A37983B91A210B461E22FA252374DD
:101A28002046ADF80C20022303AA009502F002FA22
:101A380028B1012004B070BD1B210B46EDE70A2038
:101A480003F04AF94FF4B85200950223ADF80C2080
:101A5800204603AA217C02F0EDF90028E9D10A20EA
:101A680003F03AF941F2027200950223ADF80C2016
:101A7800204603AA217C02F0DDF90028D9D10A20EA
:101A880003F02AF9042200950223ADF80C20204621
:101A980003AA217C02F0CEF90028CAD10A2003F05B
:101AA8001BF9062200950223ADF80C20204603AA54
:101AB800217C02F0BFF90028BBD10A2003F00CF901
:101AC80041F2082200950223ADF80C20204603AA13
:101AD800217C02F0AFF90028ABD10A20064603F0BA
:101AE800FBF80095022303AA217C2046ADF80C6080
:101AF80002F0A0F900289CD1304603F0EDF80095DB
:101B080022790C232046002A8DF80C3003AA4FF0C6
:101B1800020314BF622142218DF80D10217C02F0CE
:101B280089F9002885D1304603F0D6F82279D4E91E
:101B380002310B43DBB20AB943F0400362790AB1C0
:101B480043F020030E22FA258DF80D30204600952B
:101B580002238DF80C2003AA217C02F06BF90028DF
:101B68007FF467AF0A2003F0B7F81022009502232C
:101B7800ADF80C20204603AA217C02F05BF900286E
:101B88007FF457AF0A2003F0A7F81221009502232B
:101B9800ADF80C1003AA217C204602F04BF900286E
:101BA8007FF447AF0A2003F097F801220921204665
:101BB800FFF708FF003818BF01203BE7F0B51023F6
:101BC80087B0234C012200250126002702A92046C0
:101BD8000195CDE902234FF48052CDE904670AF05C
:101BE800FDF8642003F0BCFC02A94FF480522046A3
:101BF800CDE9046702261027CDE902670AF0EEF85E
:101C08000322102302A92046CDE90223002304223F
:101C1800CDE904234FF480520AF0E0F840F2322371
:101C2800042202A9019310232046CDE90223019A38
:101C3800012305924FF4805204930AF0CFF840F63E
:101C4800060120460AF0EAF8284607B0F0BD00BFB2
:101C5800A88807241C4B00221C494FF0400C30B5C3
:101C6800054689B00220596007219A601A6201244A
:101C7800DA620A224FF4006EDC6006922022CDE977
:101C8800000104200821CDE9020103201021CDE93B
:101C9800040108206946C3E904024FF4C072181D04
:101CA800C3E906C24FF48052C3E909E20AF06CF8AE
:101CB80038B92846FFF782FF003818BF012009B05D
:101CC80030BD204609B030BDA488072440410052E9
:101CD800614A0021D0B513688EB00A91002B40F0FC
:101CE800B9805E4B01214FF683700C2411600221EC
:101CF800D3F8D4200026032742F48052C3F8D42016
:101D0800D3F8D42002F480520092009AD3F8E0204D
:101D180042F01002C3F8E020D3F8E02002F01002ED
:101D28000192019AD3F8E02042F04002C3F8E02083
:101D3800D3F8E02002F040020292029AD3F8E020A1
:101D480042F00802C3F8E020D3F8E02002F00802CD
:101D58000392039AD3F8E02042F48072C3F8E0209B
:101D6800D3F8E02002F480720492049AD3F8E020B9
:101D780042F08002C3F8E020D3F8E02002F08002AD
:101D88000592059AD3F8E02042F02002C3F8E0203B
:101D9800D3F8E02002F020020692069AD3F8E02059
:101DA80042F00402C3F8E020D3F8E0300C9403F0CA
:101DB800040307930323079A0B93CDE9080108A9A5
:101DC800274805F07FFB48F23712022308A9254867
:101DD8000C94CDE90823CDE90A6705F073FB4CF2B2
:101DE8000372022308A920480C94CDE90823CDE901
:101DF8000A6705F067FB40F2FF62022308A91B4847
:101E08000C94CDE90823CDE90A6705F05BFB4FF692
:101E18000C72022308A916480C94CDE90823CDE9D1
:101E28000A6705F04FFB4FF63F02022308A9114845
:101E38000C94CDE90823CDE90A6705F043FB20227D
:101E4800022308A90A480C94CDE90A67CDE90823BA
:101E580005F038FB0EB0D0BDA08807240044025816
:101E68000010025800180258000C025800200258AE
:101E7800001C0258001402582DE9F04FDFF81084B6
:101E880006460D46144608F118002DED028B89B060
:101E980000AF02F0F9FDD8F8183073B3D8F81C3049
:101EA800D8F80490002B43690BBF4FF0080A4FF095
:101EB800100A4FF0020B4FF0040BB9F1000F2AD0B3
:101EC800A200EA46012B02F1070222F00702ADEB5D
:101ED800020D6846ADEB020D694600F03F81022B0A
:101EE80000F0D680002B6FD02246C847D54624374D
:101EF800BD46BDEC028BBDE8F08FD8F81C30002B36
:101F0800F5D0D8F804904FF0080A4FF0020B436957
:101F1800B9F1000FD4D1FB61D8F80030BB61002BB8
:101F2800E5D0D54802F022FE6B46BBF1020F78617E
:101F380008EE103AFB6900F083816A465146A2EB2D
:101F4800C40295466200EA46B2FBFBF2AAEBC40063
:101F580085460AEB8200EE46F861ADEB010DF869A3
:101F68000EEB820CC7F810C0EC46ADEB010D00EB90
:101F78008201CCF80400CCF8081001EB8201386922
:101F8800E946CCF80C1000EB8201CCF800A001EB7C
:101F98008202C9E900E0C9E90212012B00F064835A
:101FA800022B00F06C82002B00F080816208494609
:101FB8006046BB69984718EE103A24379D46BD46DF
:101FC800BDEC028BBDE8F08F002C8DD01A46D8ED01
:101FD8000C6A9FEDB27A8446331D36F922E00CF183
:101FE800080C07EE90EA33F922E00232F8EEE77ABD
:101FF800944267EE877A67EEA67A4CED027A07EE8E
:1020080090EAF8EEE77A67EE877A67EEA67A4CED03
:10201800017AE2D8F9612246C847984ED8ED0D6A90
:102028000020F9692B1D9FED9E7A9FED9E6ADFEDDA
:102038009E5A22E0F4EEC67AF1EE10FAC0F2C88495
:1020480047F6FE72D1ED017A45F8202066EEA77AB0
:10205800F4EEC77AF1EE10FA40F2F080F4EEC67AA8
:10206800F1EE10FAC0F2D58447F6FE7243F820204C
:102078000230083184427FF639AFD1ED007A66EE3E
:10208800A77AF4EEC77AF1EE10FAD3D83246D9E738
:10209800002C3FF429AFD8ED0C6A84469FED787A7E
:1020A8000022331D8E4656F822100CF1080C07EE5C
:1020B800901A53F822100232F8EEE77A944267EE4B
:1020C800877A67EEA67A4CED027A07EE901AF8EE58
:1020D800E77A67EE877A67EEA67A4CED017AE2D85E
:1020E80071462246C7F81CE0C847664ED8ED0D6A0F
:1020F8000020F9692B1D9FED6A7A9FED6A6ADFF867
:1021080094C120E0F4EEC67AF1EE10FAC0F27984B8
:102118003246D1ED017A45F8202066EEA77AF4EE32
:10212800C77AF1EE10FA40F28780F4EEC67AF1EE43
:1021380010FAC0F25E84324643F82020023008319B
:1021480084427FF6D3AED1ED007A66EEA77AF4EE3C
:10215800C77AF1EE10FAD5D86246DAE7002C3FF4D8
:10216800C3AED8ED0C6A86469FED477A4FF0000C57
:10217800331D56F82C200EF1080E82F40002A2F549
:10218800000207EE902A53F82C200CF1020CF8EE0E
:10219800E77A82F400026445A2F5000267EE877AC6
:1021A80067EEA67A4EED027A07EE902AF8EEE77A05
:1021B80067EE877A67EEA67A4EED017AD9D8F9618B
:1021C8002246C847314ED8ED0D6A0020F9692B1D0B
:1021D8009FED337A9FED336ADFF8BCC01FE0F4EE61
:1021E800C67AF1EE10FAC0F2FC833246D1ED017ADC
:1021F80045F8202066EEA77AF4EEC77AF1EE10FAD9
:1022080018D9F4EEC67AF1EE10FAC0F2DA83324643
:1022180043F820200230083184427FF667AED1EDC2
:10222800007A66EEA77AF4EEC77AF1EE10FAD6D8FD
:102238006246DBE76246EBE762467DE7324615E732
:10224800A100D6466208073121F00701ADEB010D68
:10225800EA46ADEB010D6946ADEB0E0D0AEB8200C7
:10226800EC46ADEB0E0D01EB8202F861E946CCE9D4
:1022780000A0C9E9001290E6F88807240280FFFF51
:10228800000000300082FF7F0000003482FF7F00E2
:10229800DC880724007E00807E0080FF0000003874
:1022A80004FF7FBF04FF7F3F00FEFF46002C00F0C5
:1022B800C982BBF1020FD8F8242000F0FA827969AC
:1022C800C7F8049002EB810E5FED0C5A8A00DCF827
:1022D80008100EF104007A611A46DCF80C303B61F4
:1022E800331DD7F810903D61FD69C7E902CB8C46D4
:1022F800834636F92210D8ED0C7A06EE101A33F917
:10230800221006EE901A3EF92210B8EEC66A07EEC1
:10231800101AF8EEE66A3BF92210B8EEC77A26EEF4
:10232800256A66EEA56A27EE257A26EE276A66EE06
:10233800A76A27EE277A07EE901A51080232F8EEBC
:10234800E77A0AEB8100944280ED006A05EB810090
:1023580067EEA57AC0ED006A0CEB810009EB8101FC
:1023680080ED007A98ED0C7A67EE877AC1ED007AF5
:10237800BFD8D7F804903D69D7E902CB6046620818
:10238800BB6949469847D8F82C307A69D8ED0D6A68
:102398001A441FED3D7A1FED3D6A2B1D904602F150
:1023A800040A5FED3F5A0022A84ED9E900EC51E03B
:1023B800F4EEC67AF1EE10FAC0F2C78247F6FE7064
:1023C80045F822000CEB0100D0ED007A66EEA77A02
:1023D800F4EEC77AF1EE10FA4BD9F4EEC67AF1EEC4
:1023E80010FAC0F2BA8247F6FE70BBF1020F43F84A
:1023F80022002BD0D9F808000844D0ED007A66EE08
:10240800A77AF4EEC77AF1EE10FA36D9F4EEC67A66
:10241800F1EE10FAC0F2CD8247F6FE7048F82200BD
:10242800D9F80C000144D1ED007A66EEA77AF4EEF3
:10243800C77AF1EE10FA1ED9F4EEC67AF1EE10FA68
:10244800C0F2AF8247F6FE714AF822100232944277
:102458007FF6B1AD51080EEB81008900D0ED007A0E
:1024680066EEA77AF4EEC77AF1EE10FAA0D83046F5
:10247800A6E73046B9E73146E6E73046CEE7002C16
:1024880000F0E081BBF1020FD8F8243000F0E181C0
:102498007A69DCF8081003EB820EC7F80490930001
:1024A800DFED6B5A0EF1040000227B61DCF80C3082
:1024B8003B61331DD7F810903D61FD69C7E902CB38
:1024C8008C46834656F82210D8ED0C7A07EE101A7F
:1024D80053F82210B8EEC76A07EE101A5EF82210F9
:1024E800F8EEC76A07EE101A26EE256A5BF8221086
:1024F800B8EEC77A66EEA56A26EE276A27EE257A31
:1025080066EEA76A27EE277A07EE901A510802327C
:10251800F8EEE77A0AEB8100944280ED006A05EB59
:10252800810067EEA57AC0ED006A0CEB810009EB2B
:10253800810180ED007A98ED0C7A67EE877AC1ED1B
:10254800007ABFD8D7F804903D69D7E902CB604636
:102558006208BB6949469847D8F82C307A69D8EDA3
:102568000D6A1A449FED3E7A9FED3E6A131D92460E
:10257800DFF8E4C00022FB612B1D364ED9E9008E3E
:102588004EE0F4EEC67AF1EE10FAC0F2FC81304665
:1025980045F822000EEB0100D0ED007A66EEA77A2E
:1025A800F4EEC77AF1EE10FA49D9F4EEC67AF1EEF4
:1025B80010FAC0F2EF813046BBF1020F43F8220057
:1025C8002AD0D9F808000844D0ED007A66EEA77A38
:1025D800F4EEC77AF1EE10FA35D9F4EEC67AF1EED8
:1025E80010FAC0F2C98130464AF82200D9F80C0026
:1025F8000144D1ED007A66EEA77AF4EEC77AF1EEDF
:1026080010FA1ED9F4EEC67AF1EE10FAC0F2AD81D6
:102618003146F86940F82210023294427FF6CBAC7A
:10262800510808EB81008900D0ED007A66EEA77AA0
:10263800F4EEC77AF1EE10FAA3D86046A8E7604630
:10264800BAE76146E5E76046CEE700BF0280FFFFD4
:10265800000000300082FF7F007E00800000003410
:1026680004FF7FBF04FF7F3F002C00F0EB807A69F6
:102678000021D8F82430C7F8109003EB820ED7F861
:102688001C909300FD610EF104021FED0C6A7B6142
:10269800331D154656F821204808D8ED0C6ABBF1C1
:1026A800020F82F40002A2F5000207EE902A53F806
:1026B800212082F40002B8EEE77AA2F5000227EEA4
:1026C800067A07EE902A0AEB8002F8EEE77A27EE00
:1026D800267A67EE867A82ED007A09EB80024FEA65
:1026E800800067EEA67AC2ED007A27D05EF8212036
:1026F80082F40002A2F5000207EE902A55F8212084
:1027080082F40002B8EEE77AA2F5000227EE067A14
:1027180007EE902ADCF80820F8EEE77A024427EE64
:10272800267A67EE867A82ED007A98ED0C7ADCF8E4
:102738000C2067EE877A0244C2ED007A02318C429F
:10274800A8D8D7F8109060466208BB694946FD6969
:102758009847D8F82C307A69D8ED0D6A1A441FEDDD
:10276800407A1FED406A131D9246DFF8C4C200226A
:10277800FB612B1DAB4ED9E9008E4EE0F4EEC67A14
:10278800F1EE10FAC0F2C580304645F822000EEB93
:102798000100D0ED007A66EEA77AF4EEC77AF1EE82
:1027A80010FA49D9F4EEC67AF1EE10FAC0F2BF80F9
:1027B8003046BBF1020F43F822002AD0D9F80800AE
:1027C8000844D0ED007A66EEA77AF4EEC77AF1EE07
:1027D80010FA35D9F4EEC67AF1EE10FAC0F2AE80EE
:1027E80030464AF82200D9F80C000144D1ED007AAD
:1027F80066EEA77AF4EEC77AF1EE10FA1ED9F4EE77
:10280800C67AF1EE10FAC0F28B803146F86940F8CA
:102818002210023294427FF6CEAB510808EB8100B9
:102828008900D0ED007A66EEA77AF4EEC77AF1EE69
:1028380010FAA3D86046A8E76046BAE76146E5E71C
:102848006046CEE7224649466046BB699847FFF78F
:10285800B2BBC7F810B0002298ED0C6A331DDFED4B
:10286800726AD7F81CB0786956F8221007EE901AE9
:1028780053F82210B8EEE77A07EE901A51080232A0
:10288800F8EEE77A27EE267A0AEB810E94420BEBF4
:10289800810167EEA67A27EE067A67EE867A8EEDD4
:1028A800007AC1ED007ADFD88300D7F810B07B61D9
:1028B8004DE61A46C7F810B098ED0C6A331DDFEDE7
:1028C8005B6AD7F81CB0786936F9221007EE101A3F
:1028D80033F9221007EE901AB8EEC77A510802327F
:1028E800F8EEE77A27EE267A0AEB810E94420BEB94
:1028F800810167EEA67A27EE067A67EE867A8EED74
:10290800007AC1ED007ADFD88300D7F810B07B6178
:1029180034E5F0EE675AFEEEE45A15EE900A34E715
:10292800F0EE675AFEEEE45A15EE901A6EE7F0EEF6
:10293800675AFEEEE45A15EE900A3AE7F0EE675A47
:10294800FEEEE45A15EE900A4BE767EEA57AFDEE27
:10295800E77A17EE900A00B232E567EEA57AFDEE47
:10296800E77A17EE900A00B23FE5F0EE675AFEEEFE
:10297800E05A15EE901A4CE6F0EE675AFEEEE05A71
:1029880015EE900A30E6F0EE675AFEEEE05A15EEC4
:10299800900AFDE5F0EE675AFEEEE05A15EE900A51
:1029A8000AE667EEA57AFDEEE77A17EE901A09B205
:1029B8004AE567EEA57AFDEEE77A17EE900A00B2CF
:1029C8002CE5F0EE675AFEEEE45A15EE902A1FE465
:1029D80067EEA57AFDEEE77A17EE902A12B2FFF7B6
:1029E80031BBF0EE675AFEEEE45A15EE902AFFF777
:1029F800FDBBF0EE675AFEEEE05A15EE902AFFF79F
:102A08009BBBF0EE675AFEEEE05A15EE902AFFF7F0
:102A180080BB67EEA57AFDEEE77A17EE902A12B230
:102A2800FFF724BB82FF7F00000000300000003861
:102A38007E0080FF30B5184C154685B0046004F15F
:102A4800080EEC460FC98EE80F00D4ED047AF5EEB7
:102A5800C07A8CE80F00F1EE10FA1ADDB7EE006AC2
:102A680094ED057A27EE277AC6EE276A84ED0D7A6B
:102A7800C4ED0C6A6DB1204640F8185F02F004F806
:102A8800064903690020064A2162A262E36005B094
:102A980030BD012005B030BDDC880724002000309F
:102AA8000000003000680830704700BFB1F5807F33
:102AB80003680A4628BF4FF48072B1F5807F9A6098
:102AC80094BF0020012070470068183002F03CB81D
:102AD80070B504688AB0A369E160CBB104F1180548
:102AE800284601F0D1FF8446EE46E668BCE80F00B0
:102AF800AEE80F00BCE80F00AEE80F009CE803004A
:102B08008EE8030069462846049601F0C5FEF8B928
:102B1800E069D8B104F11C05284601F0B5FF8446E8
:102B2800EE46E468BCE80F00AEE80F00BCE80F0012
:102B3800AEE80F009CE803008EE8030069462846CB
:102B4800049401F0A9FE003818BF01200AB070BD36
:102B580001200AB070BD00BF30B5046883B00D46CF
:102B6800E3694BB1A3680020E26A616A9B000090A8
:102B780004F11C0001F08AFFA3680748A26A9B00C1
:102B8800216A009004F1180001F080FF0020C4E9D8
:102B9800005003B030BD00BF811E000810B4074BC1
:102BA8004FF07E5130240022032019619C60D860C8
:102BB8005DF8044B5961C3E906227047DC88072495
:102BC800704700BF064A0749074808B50FF03CFCA4
:102BD800034A04490548BDE808400FF035BC00BF6A
:102BE80000000024C92B0008148907241889072429
:102BF80070B5044682B0C1F30726CDB2ADF8041013
:102C080002F068F84FF480724FF001232060A01D95
:102C1800A571A280E671A36002B0BDE8704000F023
:102C280017BE00BF014805F055BD00BF70950724C9
:102C3800014805F04FBD00BF70950724014805F015
:102C480049BD00BF7095072400B583B04FF0000E52
:102C58004FF0030C4274ADF80410BDF8043080F84E
:102C680010E0A0F802C0038003B05DF804FB00BFC9
:102C780000B583B0082AADF804104FF00301ADF891
:102C880000304180BDF800C0BDF81010BDF804E068
:102C9800A0F804C001811146BDF814C028BF08215E
:102CA800042A9DF81830A0F800E0A0F80CC00174C0
:102CB80008D8022A0ED801D10122C280437403B079
:102CC8005DF804FB01224374C2804281C28103B0D3
:102CD8005DF804FB01224374C280428103B05DF8B1
:102CE80004FB00BF2DE9F04FDFF81C8300258DB0F1
:102CF800C04C037008F140034260074601920E463B
:102D0800202229464046C4F86831C4F86481CDE9D8
:102D18000255CDE90455CDE90655CDE90855CDE96B
:102D28000A550FF097FE2022294604F5A170C4F831
:102D38003151C4F83551C4F83951C4F83D510FF038
:102D480089FE019B84F8485284F830317A68002A59
:102D58006AD02B4604F59871454606F1100A9E463E
:102D6800F01856F803B0E2180EF1010ED0F80CC0B6
:102D7800D0F80490D0F8088044F803B0C2F80CC02A
:102D88004FF0000CC2F80490C2F80880008A25F8B9
:102D980002CB10821AF8032001F8012F002A70D004
:102DA8007A684FF001001233724584F84802D7D888
:102DB8004FF4802290489DF8043008214FF0000815
:102DC8004FF00009C4F884310023C4E95B020122F2
:102DD800C4F8743184F88031C4E95E2194F848124B
:102DE800C4E96489A9B3C4F89821002284F8813120
:102DF80084F888313B78C4E96722002B38D0012257
:102E080000200121013B84F8A421C4E96C01082BAE
:102E180030D8DFE813F0BD00C200C700CC00D100F5
:102E2800D600DB00E100E8009DF804300121C4F879
:102E38007421C4F884314FF4802384F880216E4AC9
:102E4800C4E95B2308230022C4E95E130023C4E914
:102E580064230123002284F88131002384F8883117
:102E68000323C4F898313B78C4E96722002BC6D104
:102E780084F8A431614802F0ABFF034638B1FFBEC5
:102E8800FEE77A68123372453FF66AAF90E702A907
:102E98005A48029303F0FAF88246002876D10422B1
:102EA80040F2FF710A90CDE9081294F83021002A07
:102EB80000F0F3804FF006080AEBCA034FEACA098C
:102EC80004EB43035B7C072B07D8DFE803F0595C6E
:102ED8005653504D4A04072307930FFA8AF6D144F4
:102EE80006EBC60604EB490904EB460775003846AD
:102EF80000F0AEFC99F81030042B00F3AA80022BE6
:102F080000F3BD8000F0B98004EB0A03002283F8C7
:102F1800202114F81630002B78D0022B00F08A807C
:102F2800012B40F0B2807B78012B00F0B080002BA1
:102F3800334B18BF002305A93048CDE9053802F006
:102F480073FB002840F0AC800AF1010A94F8303194
:102F58005FFA8AFA534540F2A0802A4B53F82A8038
:102F6800AAE706230793B8E705230793B5E70423E1
:102F78000793B2E703230793AFE702230793ACE76E
:102F880000230793A9E701230793A6E7FFBEFEE7FF
:102F980003224023C4E96A236CE707226023C4E9BB
:102FA8006A2367E70F228023C4E96A2362E71F22A6
:102FB800A023C4E96A235DE73F22C023C4E96A234A
:102FC80058E77F22E023C4E96A2353E7FF224FF43E
:102FD8008073C4E96A234DE740F2FF124FF49073FF
:102FE800C4E96A2346E740F2FF324FF4A073C4E90C
:102FF8006A233FE720890724002002408C8A07249F
:103008000002B025C82A0108004000307B78062B52
:1030180037D0072B3DD0022B4AD0032B4AD0002BA8
:103028004CD0012B48D0042B4AD0052B254B18BF78
:10303800002380E77B78042B25D0052B2BD08BB37E
:10304800012B31D0022B31D0032B1F4B18BF00238B
:1030580071E70323043504EB0A0B4FF000092544FC
:103068008BF82031284609F1010900F0F1FB9BF8A3
:10307800203104354B45F5DC4BE70123EAE7022311
:10308800E8E7124B57E7124B55E7002353E7114B7C
:1030980051E7114B4FE7114B4DE70DB0BDE8F08FED
:1030A800FFBEFEE70E4B46E70E4B44E70E4B42E7EA
:1030B8000E4B40E70E4B3EE70E4B3CE70E4B3AE714
:1030C8000E4B38E70000B84F002090360800900CEF
:1030D8001000C0102000F0148000501D0001802155
:1030E8000004002A0008302E001060320040C03A68
:1030F8000080F03E00005247000021430000844B4E
:1031080038B5094C40F2FF724FF0011104F5B6755D
:10311800284602F069FF94F83021D4F86411284653
:10312800BDE8384002F0D4BC20890724064B0F299B
:10313800D3F8643198BF03EB41031B8800EE103AC3
:10314800BBEEC80A704700BF20890724064B0F2929
:10315800D3F8683198BF03EB011333F8123000EE4F
:10316800103ABBEEC80A704720890724214B026831
:103178009A4200D07047204A00232048D2F8D8103D
:1031880030B51F4C41F0200183B0C4F8D0010920AC
:1031980004F5E875C4E975034FF48060C2F8D810E7
:1031A800D2F8D8204FF40061C4E9773094F8480287
:1031B80002F02002C4F8E4114FF400519842019241
:1031C8002846C4F8E811C4E97C33019B14BF0023E6
:1031D8004FF48073C4F8EC3103F0AAFA08B1FFBECB
:1031E800FEE704F5B673C4F8B851C4F8083203B062
:1031F80030BD00BF00200240004402584000024099
:1032080020890724014803F00BBE00BFF08A072479
:1032180002682DE9F84F4B4B9A4201D0BDE8F88F70
:10322800494D95F84832002BF8D095F83031002BED
:1032380077D0002405F10C0905F5A17605F59877F6
:10324800A04613E003F0010117F811BCA9F108002A
:1032580000F0DAFBBBF1010F25D895F830310134C5
:1032680009F112090236A2B293422BD917F8012F9D
:10327800002AF4D0D5F864310021327833F81400EC
:10328800D5F8683103EB041323F8120033880133AF
:103298009BB233805FFA83FA3A789A42D2D88A4648
:1032A800A6F80080D0E7CAF34001A9F1040000F0B5
:1032B800ABFBBBF1020FCAF38001CED0484600F049
:1032C800A3FBCAE7002395F848022049092298423F
:1032D800C5F8D8314FF48060C5F8D011C5F8D421AD
:1032E8004FF400614FF40052C5F8DC3108BF4FF4C9
:1032F8008073C5F8E821C5E9780100221448C5E9BA
:103308007B32C5F8F42103F013FA08B1FFBEFEE7DB
:1033180095F83021D5F864110E48BDE8F84F02F051
:10332800D7BB0A4909224FF48060C5F8D831C5E9EE
:1033380074124FF400614FF40052C5E97730C5E9C3
:103348007912DAE700200240208907244000024071
:10335800F08A07248C8A0724704700BF4F4B026805
:103368009A4200D070474E4BD3F8E81030B541F080
:1033780000514C4C85B0D4F84821C3F8E810D3F874
:10338800E81001F0005101910199D3F8E01041F0E3
:103398000101C3F8E010D3F8E03003F00103029311
:1033A800029B32F002033DD0013A012A6BD9D4F8CE
:1033B8004C31012B0AD000223620114602F0DAFEE9
:1033C800362005B0BDE8304002F012BFD4F84831CD
:1033D80033F0020234D0013B012BECD844224023C5
:1033E8003149324DC4F88C1000212846C4F8B01079
:1033F800C4E9242300224FF48063C4E926234FF450
:1034080000624FF40053C4E928234FF480724FF44C
:103418008033C4E92A2303F08BF980B9E560C4F846
:10342800C440C8E74FF48062032303A8ADF80C201A
:103438008DF80E3000F00CFAD4F84821B4E7FEE716
:103448001B4BA2634322636140231A4DC4E9062340
:1034580000224FF480632846C4E908234FF4006231
:103468004FF40053C4E90A234FF480724FF48033B9
:10347800C4E90C2303F05CF920B9D4F84831A560FD
:10348800E464A8E7FEE74FF4A062032303A8ADF8BD
:103498000C208DF80E3000F0DBF988E7007400404E
:1034A80000440258708B072428040240FC8B072430
:1034B80010040240848B0724014803F0B1BC00BF0C
:1034C800848B0724014803F0ABBC00BFFC8B0724A6
:1034D80010B5054C204602F077FF04F58270BDE870
:1034E800104008F049BE00BF708B072430B58C46E9
:1034F8003A4C3B4D8DB0046004F5A27EBCE80F0049
:10350800AEE80F00DCF8003020462560CEF8003029
:1035180002F0FCFE0023D4F84C510393C5B11622E7
:10352800012D049217D00022D4F85411D4F8483150
:103538009142CDE9062218BF0222059233F0020219
:1035480035D0013B012B3CD9002528460DB030BDB4
:1035580002230493E7E7234A0093C4F80C31C4F824
:103568001431C4F80421C4F81C31CDE9013301F049
:103578004FFDD4F844314BF68032C4F80851002B83
:1035880008BF1346B0FBF3F304F58270C4F810319A
:1035980008F05CFC0028D8D120230290694604F585
:1035A8008270009308F0A0FE0028BCD0CDE703A9E4
:1035B8000A4802F03DFF78B9D4F84831013B012BA5
:1035C800C2D8102203A9054802F032FF051E18BF11
:1035D800012528460DB030BD0125B6E7708B0724BC
:1035E80000740040001000402DE9F0410668D6F84C
:1035F8004C5105BBD6F850310C461746002B0CBF72
:103608004FF008084FF0000831F0020305D0013CE4
:10361800012C14D92846BDE8F081134629464246B4
:103628003046013C02F0B6FE2946304602F084FEE0
:10363800012CEFD803E001252846BDE8F0813B4680
:1036480042461021304602F0A5FE1021304602F015
:1036580073FE2846BDE8F08110B592B0ADF80410AD
:103668000180C9B2149C0B29C460C0E901233FD072
:1036780090F801C0BCF10F0F3AD8022A3FD0032AB4
:1036880002D0012A00D000220E92012B02D0022B78
:1036980018BF0023022C0F932CD0032C2AD0012C06
:1036A80028D000230A29109327D85C4A02EB8122EC
:1036B80002610A2914D8DFE801F0A39587796B5DC8
:1036C8004F4133250600564BD3F8E01041F4806192
:1036D800C3F8E010D3F8E03003F480630C930C9B3C
:1036E80001230DA9104603FA0CF30D9303F0EAFE2B
:1036F80012B010BD0A291094D7D90022D8E7112298
:103708000E92C2E7464BD3F8E01041F40071C3F8BB
:10371800E010D3F8E03003F400730B930B9BDFE762
:103728003F4BD3F8E01041F48071C3F8E010D3F8B0
:10373800E03003F480730A930A9BD1E7384BD3F83F
:10374800E01041F08001C3F8E010D3F8E03003F056
:1037580080030993099BC3E7314BD3F8E01041F08C
:103768004001C3F8E010D3F8E03003F040030893B9
:10377800089BB5E72A4BD3F8E01041F02001C3F8C5
:10378800E010D3F8E03003F020030793079BA7E786
:10379800234BD3F8E01041F01001C3F8E010D3F840
:1037A800E03003F010030693069B99E71C4BD3F80F
:1037B800E01041F00801C3F8E010D3F8E03003F05E
:1037C80008030593059B8BE7154BD3F8E01041F0F0
:1037D8000401C3F8E010D3F8E03003F004030493C5
:1037E800049B7DE70E4BD3F8E01041F00201C3F8CB
:1037F800E010D3F8E03003F002030393039B6FE774
:10380800074BD3F8E01041F00101C3F8E010D3F8FA
:10381800E03003F001030293029B61E700000258C5
:103828000044025808B5012143780069994089B2DB
:1038380004F050F8003818BF012008BD01230A46DB
:103848004178006903FA01F189B204F049B800BF70
:103858008378022B30B504468FB037D0032B33D092
:10386800012B31D000230A93E378012B2AD0022BB5
:1038780028D000230B93002320460C9301F04EFD23
:103888000546204601F052FD23780990082B13D8ED
:10389800DFE803F01F3245586B7E91A40500594BB1
:1038A800D3F8E02042F48072C3F8E020D3F8E03087
:1038B80003F480730893089B09A9284603F002FEC5
:1038C8000FB030BD0B93D6E70A93CDE711230A93C7
:1038D800CAE74C4B09A92846D3F8E02042F0010278
:1038E800C3F8E020D3F8E03003F001030093009B15
:1038F80003F0E8FD0FB030BD424B09A92846D3F8C4
:10390800E02042F00202C3F8E020D3F8E03003F0F0
:1039180002030193019B03F0D5FD0FB030BD394B75
:1039280009A92846D3F8E02042F00402C3F8E020B1
:10393800D3F8E03003F004030293029B03F0C2FDC6
:103948000FB030BD2F4B09A92846D3F8E02042F02C
:103958000802C3F8E020D3F8E03003F0080303932B
:10396800039B03F0AFFD0FB030BD264B09A92846D5
:10397800D3F8E02042F01002C3F8E020D3F8E0309A
:1039880003F010030493049B03F09CFD0FB030BDBB
:103998001C4B09A92846D3F8E02042F02002C3F8BE
:1039A800E020D3F8E03003F020030593059B03F0F3
:1039B80089FD0FB030BD134B09A92846D3F8E02084
:1039C80042F04002C3F8E020D3F8E03003F04003AF
:1039D8000693069B03F076FD0FB030BD094B09A98D
:1039E8002846D3F8E02042F08002C3F8E020D3F85C
:1039F800E03003F080030793079B03F063FD0FB0EB
:103A080030BD00BF0044025870B506460D4601F0AF
:103A180085FC0446304601F089FC2A1E01462046F2
:103A280018BF0122BDE8704003F05ABF00231222DC
:103A380070B586B0CDE9022304930368032B01D83F
:103A480004230593061D841D304601F067FC0546D6
:103A5800304601F06BFC034601A92846019303F0A8
:103A680031FD204601F05AFC034620461C4601F071
:103A78005DFC01A903462046019303F023FD06B02F
:103A880070BD00BF634A0368934210B58CB028D05C
:103A9800614A934258D0614A934200F09480604A48
:103AA800934201D00CB010BD5E4C5F48D4F8E030B2
:103AB80043F00203C4F8E030D4F8E03003F0020326
:103AC8000A930A9BFFF7B2FFD4F8F43043F080035F
:103AD800C4F8F430D4F8F43003F080030B930B9B54
:103AE800E0E7504C5148D4F8E03043F00203C4F802
:103AF800E030D4F8E03003F002030193019BFFF7B4
:103B080095FFD4F8E83000221F2043F40013114633
:103B1800C4F8E830D4F8E83003F400130293029BA9
:103B2800D4F8D83043F00103C4F8D830D4F8D830EA
:103B380003F001030393039B02F01CFB1F200CB04E
:103B4800BDE8104002F054BB364C3948D4F8E03098
:103B580043F08003C4F8E030D4F8E03003F0800389
:103B68000493049BD4F8E03043F00203C4F8E03037
:103B7800D4F8E03003F002030593059BFFF756FFE6
:103B8800D4F8E8300022212043F480031146C4F819
:103B9800E830D4F8E83003F480030693069BD4F8A1
:103BA800D83043F00103C4F8D830D4F8D83003F043
:103BB80001030793079B02F0DDFA21200CB0BDE852
:103BC800104002F015BB1B48FFF730FF154B0022D1
:103BD8004820D3F8E840114644F40004C3F8E8400C
:103BE800D3F8E84004F400040894089CD3F8D840BB
:103BF80044F00104C3F8D840D3F8D83003F00103E7
:103C08000993099B02F0B6FA48200CB0BDE81040B1
:103C180002F0EEBA0054004000580040005C00403A
:103C2800001C005800440258648F0724DC8C0724C9
:103C3800B48D07248C8E07242DE9F0431A4B87B0E6
:103C480000254FF010099E46EC46184BFF22E0462F
:103C580067461A700EF118060EF13004CDE90055CA
:103C6800CDE90255ADF80090BCE80F00CDE9045548
:103C7800AEE80F009CE803000095ADF800908EE8D0
:103C88000300B8E80F000FC69CE803000095ADF8E4
:103C9800009086E803000FCF0FC49CE8030084E877
:103CA800030007B0BDE8F0830C000024D88C07247B
:103CB80010B5EFF3108472B6084B1A78120602D5C5
:103CC80004B962B610BD1B78D82205485BB202FB66
:103CD8000300143003F0A4F8F2E700BFD88C0724DF
:103CE800DC8C0724014804F093BC00BF688D0724CE
:103CF800014804F08DBC00BF408E0724014804F041
:103D080087BC00BF188F07242DE9F0430F68D8241B
:103D18003F4D85B007FB04F4032F05EB0403036054
:103D280040DCCB680E46012B3CD84DD04FF0D8086C
:103D3800B646DFF8FC9008FB0758BEE80F00C446FB
:103D4800ACE80F00DEF800300DF1100ECCF80030B2
:103D5800D8F808C099E80F000EE90F000EEB8703AA
:103D6800BCF1010F53F8103CC8F88C3031D0BCF1CD
:103D7800020F42D0BCF1000F35D0317C8C34D823EF
:103D8800002201202C4403FB07534900C3E9260203
:103D9800C3F894102046C3E92822C3E92A2204F074
:103DA80029FA18B1012005B0BDE8F0830146204684
:103DB80004F03AFC0028F5D10146204604F05EFCE8
:103DC800003818BF0120EEE70B7C103B672BADD9FC
:103DD800E8E701F01BF90F4B98420CBF0E4B0F4B55
:103DE800C8F89030C9E701F011F90A4B98420CBFA6
:103DF8000B4B0C4BC8F89030BFE701F007F9054BA7
:103E080098420CBF084B094BC8F89030B5E700BF83
:103E1800DC8C0724000E27072D0FB0303211D0207C
:103E28005F4390608A62E030200BA0101A0980106E
:103E38006C2A01082DE9F041D0F8008082B00D46C7
:103E480017461E4608F18C04204604F0E9FB20289A
:103E5800FAD1D8F80C3073B96D002046089C334667
:103E68003A46A9B2009404F01BFA003818BF0120A2
:103E780002B0BDE8F081089B32463946204604F07E
:103E8800E3FAF2E7044B10221A7483F8E82083F867
:103E9800C02183F898227047DC8C072430B50023B2
:103EA80095B04FF48071062204460B930692139343
:103EB800CDE90C13CDE90E33CDE9113301F0AAF8A1
:103EC80007282BD004F1100541F2883206A92846AC
:103ED80005F0E6F928B10123184684F85C3015B0DE
:103EE80030BD0222022306A92846CDE9002310226C
:103EF8000123CDE9022300224FF48003CDE90423F6
:103F080005224FF0807306926A460F9341F2883378
:103F180005F032FB0028DED115B030BD03230120A7
:103F280084F85C3015B030BD70B50023A4B04FF0F4
:103F380080724FF480750446ADF806300D93CDE9D4
:103F480010320122CDE90E53CDE91223CDE9143305
:103F5800002943D0F02300F1100508AEADF8063073
:103F6800C02341F2883231462846089305F098F973
:103F780028B10123184684F85C3024B070BD41F2A2
:103F880088320DF10601284605F0F4F903460028A9
:103F9800EFD105224FF480711E93284616924FF0F8
:103FA80080721B9321931F9202AA9FED1F7BCDE97C
:103FB8001C13CDE922338DED027B9FED1D7B41F271
:103FC800883316A98DED047B9FED1B7B8DED067B59
:103FD80005F0D2FA0028CCD124B070BD00F110054C
:103FE80008AE612341F2883231462846089305F02D
:103FF80057F90028BDD141F288320DF10601284653
:1040080005F036FA0028B4D1BDF80630204623F072
:10401800780343F04003ADF80630FFF73FFF002870
:104028009ED0A6E7AFF3008000000000010000006A
:104038001000000001000000000000000000400027
:104048002DE9F04F00234FF4807501264FF080785A
:1040580004462DED028BABB08DF8073013932193F6
:10406800299314950E96CDF85C80CDE91533CDE9EA
:104078001863CDE91A33CDE92253CDE92433CDE9CC
:10408800273306231C9300F0C5FF072808D004F146
:10409800100741F288321CA9384605F001F940B1F1
:1040A8000123184684F85C302BB0BDEC028BBDE8C8
:1040B800F08F4FF0020A4FF0020B4FF0050941F262
:1040C800883308AA1CA93846CDF89480CDF870909A
:1040D8009FED2D8BCDE908AB4FF0000A4FF4800B14
:1040E8008DED0A8BCDE90CAB05F046FA0028D7D147
:1040F80041F2883238460EA905F0D2F80028CFD10F
:10410800402341F288320DF1070138468DF8073017
:1041180005F030F90028C3D141F288330EA902AA6C
:104128003846CDF83890CDF85C809FED197B8DED41
:10413800048BCDE906AB8DED027B05F01DFA034635
:104148000028ADD1CDF870904FF00109CDF89480DA
:104158004FF00008219308AA29931CA938462295F4
:10416800CDE92333CDE9273341F288338DED0A8B2E
:10417800CDE90CABCDE9088905F0FEF9002893D00C
:10418800304684F85C608FE71000000001000000F2
:1041980040000000400000002DE9F043624CA3B04D
:1041A8000D46046000F036FF072800F0A980286853
:1041B80023466968AA6807C31E46AB8926F8043BEC
:1041C8003046257B677B05F04DF8E0B9574B012D4C
:1041D8004FF00108E061236114BF4FF480134FF4DE
:1041E8000003C4E9058893FAA3F3B3FA83F34FF401
:1041F8008079013BC4F82490C4E90B00304623625F
:1042080004F0C4FF38B10122134684F85C20184634
:1042180023B0BDE8F08366230B90139041F28832F7
:1042280006A90693CDE90C90CDE90E00CDE9110061
:10423800304605F035F80028E5D1992341F2883257
:1042480006A93046069305F02BF80028DBD1052394
:104258001C9019906A4614934FF08073219014A90A
:104268001D9341F288339FED2A7BCDE91A90CDE961
:104278001F008DED007B9FED287B30468DED027B86
:104288009FED277B8DED047B05F076F90028BAD1E8
:1042980029462046FFF748FE0028B4D12046FFF7FC
:1042A800CFFE03460028AED1002FB0D11893304678
:1042B8000027002606AA14A9CDF86890CDE91F3377
:1042C800EB2314934FF440631B934FF4005317935D
:1042D8004FF440431C93A0231693062319934FF0E1
:1042E800805321934FF04073CDE906671D9305F085
:1042F800BBF9034600288AD0434684F85C8086E7E9
:1043080001230322184684F85C2023B0BDE8F0831B
:104318000000000001000000100000000100000083
:1043280000000000000040003C90072400500052AC
:104338002DE9F04F8FB0414B0024026800AF9A423C
:104348007C63C7E90944C7E90B4403D03C37BD4641
:10435800BDE8F08F3A4B40F609213A48EB46D3F8CE
:10436800D42007F11C0607F1220A4FF0020942F493
:1043780080424FF00308C3F8D420D3F8D42002F4C5
:104388008042BA60BA68D3F8E02042F04002C3F82D
:10439800E020D3F8E02002F04002FA60FA68D3F88F
:1043A800E02042F02002C3F8E020D3F8E02002F039
:1043B80020023A613A69D3F8E02042F01002C3F8CB
:1043C800E020D3F8E02002F010027A617A69D3F88D
:1043D800E02042F00202C3F8E020D3F8E030F861B0
:1043E80003F002033984BB61174B7B60BB697B68B0
:1043F80053F8040F7B6000F091FF7B68054618684E
:1044080000F094FF16F8013B786207F12401284672
:10441800C7F830807B63C7E90A9403F053F8564520
:10442800E5D100225C20114601F0A4FE5C2001F0D9
:10443800DFFE3C37DD46BD46BDE8F08F0050005238
:10444800004402580A0A090998900724114B026887
:104458009A4200D07047104A70B5D2F8D4300F4C49
:1044680023F4804304F11806C2F8D43054F8040F3A
:1044780000F054FF0546206800F058FF0146284622
:1044880003F060F9B442F1D15C20BDE8704001F05E
:10449800BDBE00BF00500052004402589890072447
:1044A800014805F06DB900BF4C900724084B1A1D50
:1044B800981D03F1080110B49C1C9A6603F10A02C6
:1044C800C3E91834C3E91B015DF8044B5A67704708
:1044D8003C90072438B5036871B9026A00F12805D1
:1044E80000F5AC74012A0CBF002140218BBB1D4B89
:1044F8005722C0F858310DE0426A00F1C00500F5B6
:10450800E874012A0CBF00214021EBB1164B5A2256
:10451800C0F8D03100232046C4E901214FF480526D
:104528004FF48061636262614FF48042C4E90331F1
:104538004FF48073C4E906234FF40033236202F07A
:10454800F7F858B1FFBEFEE7084B5822C0F8D03143
:10455800E0E7074B5922C0F85831DBE7C5E92044AA
:10456800A56338BD100002407000024028000240D8
:10457800580002402DE9F043821D05468BB0031D0B
:1045880005F10A010830CDE9052305F10C02AB69F4
:10459800CDE907010992002B3DD0EB69B3FA83F806
:1045A8004FEA58180123022205AE0AAF4FF0060958
:1045B8000393CDE9012356F8044B2B7922789342D3
:1045C80016D02B68F3B1012B02D1F2B10A23049360
:1045D800204600F0ABFE03462046009300F09EFE06
:1045E800694602F06FFFBE42E5D10BB0BDE8F0832B
:1045F800697963789942E4D1B8F1000FF3D02B6858
:10460800002BE0D1CDF81090E2E76378022B14BFBD
:104618000A230823DBE74FF00108C3E7534A03687E
:10462800934230B505468BB055D02032934252D0D4
:104638004F4A934204D02032934201D00BB030BD90
:104648004C4C4D48D4F8E03043F00103C4F8E03056
:10465800D4F8E03003F001030593059BD4F8E0306B
:1046680043F00803C4F8E030D4F8E03003F008035E
:104678000693069BD4F8E03043F04003C4F8E030DA
:10468800D4F8E03003F040030793079BD4F8F030E8
:1046980043F40003C4F8F030D4F8F03003F4000316
:1046A8000893089BFFF766FFD4F8D830296843F0D1
:1046B80001032F4A3048C4F8D830891AD4F8D830C2
:1046C80018BF012103F001030993099B0BB0BDE852
:1046D8003040FFF7FFBE274C2848D4F8E03043F0BD
:1046E8000103C4F8E030D4F8E03003F0010300938C
:1046F800009BD4F8E03043F01003C4F8E030D4F85D
:10470800E03003F010030193019BD4F8E03043F04C
:104718004003C4F8E030D4F8E03003F040030293DB
:10472800029BD4F8F03043F48003C4F8F030D4F896
:10473800F03003F480030393039BFFF71BFFD4F8C7
:10474800D830296843F00103084A0C48C4F8D83027
:10475800891AD4F8D83018BF012103F00103049353
:10476800049B0BB0BDE83040FFF7B4BE04580140CD
:10477800045C01400044025810930724B4900724B5
:10478800014802F04DBB00BF0C920724014802F01B
:1047980047BB00BF84920724014802F041BB00BF19
:1047A80068940724014802F03BBB00BFE09407244B
:1047B8001A4A0368934210B40BD02032934208D0AF
:1047C800174A934216D02032934213D05DF8044B17
:1047D8007047144B0022D3F85442C3F85822002CD7
:1047E800F4D0D3F84802D3E9931223465DF8044B7A
:1047F800520818470B4B0022D3F8B044C3F8B4242E
:10480800002CE3D0D3F8AC24D3F8A814D3F8A4042C
:10481800520823465DF8044B184700BF045801406E
:10482800045C0140B4900724184A0368934210B40A
:104838000BD02032934208D0154A934217D0203229
:10484800934214D05DF8044B7047124BD3E994247B
:104858005208C3F85822002CF4D0D3E99201234619
:1048680001EB820100EB82005DF8044B1847094B0D
:10487800D3F8AC24D3F8B0445208C3F8B424002CBD
:10488800E0D0D3F8A814D3F8A404E8E7045801400A
:10489800045C0140B49007242DE9F04F0C684FF4F4
:1048A8001776754F87B004FB06F6012C07EB060A4E
:1048B800C0F800A000F3A0800D468E464FF0000817
:1048C800D44669A3D3E9002369A1D1E90001CDE960
:1048D800022306ABCAF8508203EB8403CDE9040136
:1048E80053F810BC53F8083CCAE992880193BEE813
:1048F8000F00ACE80F00BEE80F00ACE80F00019B0A
:104908009EE80300CAF828B0CAF8C0308CE8030053
:104918002B69042B0CD8DFE803F0737D8791030023
:104928004FF41773554A03FB04739A64C3F8E020E5
:10493800AA692B6A002A43D0002B4FF4177308BFCB
:10494800022203FB047318BF0322DA6201221A63EE
:10495800EA696B6A002A40D1191E4FF4177318BF11
:10496800012103FB0473C3E931126B69022B05D8DB
:10497800434A12F80380434A52F823904FF41773BE
:1049880006F128004246494603FB047400233844D4
:1049980063646363E365C4F8DC30C4F8CC30C4F8FE
:1049A800F430C4E90F33C4E91533C4E93533C4E935
:1049B8003B33022306F086FF002849D0FFBEFEE7FE
:1049C800191E4FF4177318BF012103FB0473C3E9C1
:1049D8000B12EA696B6A002ABED0002B4FF41773DA
:1049E80008BF022203FB047318BF0322C3F8C420C4
:1049F8000122C3F8C820B8E7012007B0BDE8F08F4E
:104A08004FF417734FF4FA5203FB04739A64C3F814
:104A1800E0208DE74FF417734FF47A5203FB0473C9
:104A28009A64C3F8E02083E74FF417734FF4FA420F
:104A380003FB04739A64C3F8E02079E74FF4177313
:104A48004BF6803203FB04739A64C3F8E0206FE7E7
:104A580006F1C000022342464946384406F032FFB8
:104A68000028CAD0FFBEFEE704580140045C01409C
:104A780024580140245C0140B490072400770100C9
:104A8800082B01080C2B01080068704770B50468F2
:104A980082B015460E46C4F85032C4E99212069AFE
:104AA800C4F85422A269012A26D0626A012A9AB25D
:104AB80011D0294604F1C000019206F0BFFF236A15
:104AC800019A012B10D0294604F1280006F0B6FF00
:104AD800002002B070BD04F1C000019207F040F858
:104AE800236A019A012BEED1314604F1280007F020
:104AF80037F8002002B070BD226A012A9AB211D09C
:104B0800294604F12800019206F098FF636A019A89
:104B1800012B10D0294604F1C00006F08FFF0020B9
:104B280002B070BD04F12800019207F019F8636A19
:104B3800019A012BEED1314604F1C00007F010F8BC
:104B4800002002B070BD00BF03681B69042B05D8A4
:104B5800044A02EB830393ED000A70479FED020AB3
:104B6800704700BF182B010800803B470368D3F843
:104B780058027047704700BF08B500F0DFFCBDE879
:104B8800084001F0BFBB00BF064808B503680BB179
:104B980002F0AAFE044803681BB1BDE8084003F010
:104BA80099BD08BD809D072478990724064808B553
:104BB80003680BB102F098FE044803681BB1BDE816
:104BC800084003F087BD08BD809D07247899072415
:104BD800064808B503680BB102F086FE044803686E
:104BE8001BB1BDE8084003F075BD08BD809D0724D2
:104BF80078990724364BDA6A520062D59A6A9A6A1B
:104C08009A6A9B6A180600D500BE314B9B6A9906C2
:104C180000D500BE2E4B9B6ADA0600D500BE2C4B91
:104C28009B6A1B0700D500BE294B9B6A980700D5D5
:104C380000BE274B9B6AD90700D500BE244B9B6A50
:104C48001A0400D500BE224B9B6A9B0400D500BE07
:104C58001F4B9B6AD80400D500BE1D4B9B6A1905E3
:104C680000D500BE1A4B9B6A5A0500D500BE184BEA
:104C78009B6A9B0500D500BE154B9B6AD80500D5DD
:104C880000BE134B9B6A990100D500BE104B9B6A6E
:104C9800DA0100D500BE0E4B9B6A1B0300D500BE8F
:104CA8000B4B9B6A580300D500BE094B9B6A9903BE
:104CB80000D500BE064B9B6ADA0306D400BE00BED0
:104CC800FEE7DB6A9B07FAD5F8E700BEF6E700BF08
:104CD80000ED00E000F03EBC00F042BC0A4B9B68CF
:104CE80003F17843B3F5003F0BD3084B986848B1FC
:104CF8009868012806D09868022803D09B6803208A
:104D080070470120704700BF00ED00E000008038C8
:104D18002DE9F041CEB004464C2200210AA80DF03E
:104D280099FE2022002102A80DF094FEBC22002149
:104D38001EA80DF08FFE022004F040F92368012B15
:104D48004FF0000354D0534A02250193C820D16A7A
:104D5800514B21F00101D162D26A02F001020192A5
:104D68009A6942F440429A619B6903F44043019373
:104D7800019B494A93699B04FCD5484902240022B7
:104D880001268B6A04274FF0080823F00303234306
:104D98008B62052316900AA818934FF48033109657
:104DA800179419941597CDF86880CDE91B22212214
:104DB800CDE91344CDE90A2304F0EAFD00B1FEE78A
:104DC8003F220323294602A8CDE902230022082313
:104DD800CDE9042340224023CDE9062340234FF4A4
:104DE8008062CDE9082305F001F90346B8B1FEE772
:104DF800294A04250093F0209169264B41F440414B
:104E08009161926902F440420092DA6A42F001022A
:104E1800DA62DB6A03F001030093009BA9E7202212
:104E28004FF4805125934FF440152B9280222D93F7
:104E38001EA83093269135914FF4807124923492B4
:104E48000C223394439140F2271120921022CDF87E
:104E580084802A971F96CDE92E34CDE93B334FF451
:104E68008033CDE922463193002446930623CDE9C9
:104E78003E4527934FF48063094C2C931E94CDE94B
:104E8800281205F00FFB00B1FEE704F0BDF84EB0A4
:104E9800BDE8F08100040058004802580044025858
:104EA8000F130F0370B584B0012401F0D9F94FF442
:104EB80080764FF04052194B68460025ADF8004007
:104EC8000396CDE9012301F0E9F919224FF0404397
:104ED80068468DF8082001938DF80F40ADF80D60F5
:104EE8008DF801408DF80A5001F0D8F902230B2201
:104EF80068468DF80F508DF801304FF062538DF8E9
:104F080008200193ADF80D408DF80A4001F0C6F96C
:104F1800042001F0B3F904B070BD00BF0E00010316
:104F280030B50D46044685B0D1E9000184E8030098
:104F380000F0D4FAAB79A3B30AF042FCFEF77CFE8A
:104F480009F0A8F80AF034F92B798BBB6B799BB17F
:104F5800BFF34F8FBFF36F8F2A4B0022C3F8502245
:104F6800BFF34F8FBFF36F8F5A6942F400325A6113
:104F7800BFF34F8FBFF36F8F4FF0FF320023002432
:104F880000256946204802928DF80C30CDE900458D
:104F980009F0A0FC1C4809F005FD08F0ABFC05B0C1
:104FA80030BD2046FFF7B4FE2046FFF77BFFC3E77E
:104FB800144C0023C4F88430BFF34F8FD4F880100A
:104FC80043F6E07EC1F34E3CC1F3C9014FEA4C1CE5
:104FD8000CEA0E000B4640EA8372013BC4F86022DB
:104FE8005A1CF8D1ACF1200C1CF1200FF0D1BFF302
:104FF8004F8F636943F480336361BFF34F8FBFF30F
:105008006F8FA3E700ED00E06C95072405F01EB94B
:1050180005F038B91C4B9B6803F17842B2F5003FA4
:1050280025D3B3F5803F20D303F16042B2F5003FAA
:105038001FD303F15C42B2F5002F1CD303F1704279
:10504800B2F5902F19D303F14842B2F5803F16D339
:1050580003F18042B2F1806F13D303F1E043B3F55B
:10506800000F2CBF08200720704701207047002040
:1050780070470220704703207047042070470520BE
:1050880070470620704700BF00ED00E0034800238A
:10509800034A044903600DF0D7B900BF6C95072493
:1050A800000000247D4B000810B4204C0022204B47
:1050B80083B0D4F888101F4841F47001C4F88810F0
:1050C80019681D4C41F0010119601A6119680840FE
:1050D8001A4918609A61DA611A629A62DA621A6386
:1050E8005A639A63DA631A645A64186820F4802051
:1050F80018601A66D3F8DC2042F06042C3F8DC205E
:10510800D3F8DC300193019B23681940B1F1005FAB
:1051180003D20B4B0122C3F80821044B4FF0006265
:105128009A6003B05DF8044B704700BF00ED00E0E3
:10513800004402587FEDF6EA0010005C0000FFFF13
:105148000080005100F57171D0F8040407F0BABF6F
:10515800C1EBC10300EB8303D0F80404D3F80822A1
:1051680007F0DEBFC1EBC10300EB8303D0F80404F2
:105178009A6C08F013B800BFD0F8040408F0B2B86D
:10518800C16810B5044619B1022900D0FEE7012113
:10519800D4F8040408F090F8D4F80404BDE81040EA
:1051A80008F062B810B50446D0F8040408F088F88E
:1051B8002268D2F8003E43F00103C2F8003E236A99
:1051C80023B1034A136943F00603136110BD00BFFE
:1051D80000ED00E0D0F8040408F07CB8D0F804042E
:1051E80008F090B8D0F8040408F08AB8D0F804049D
:1051F80008F08AB8D0F8040408F088B89446D0F8C3
:1052080098021A4608B5634603F0C8FD032802D879
:10521800024B185C08BD022008BD00BF3C2B0108EA
:10522800D0F8980208B503F047FE032802D8024BCD
:10523800185C08BD022008BD3C2B0108D0F8980274
:1052480008B503F07DFE032802D8024B185C08BDA0
:10525800022008BD3C2B01080A06D0F8983206D473
:10526800C1EBC10103EB810191F8FE01704701F028
:105278007F01C1EBC10103EB810191F83E0070474A
:10528800D0F8980208B503F073FD032802D8024B42
:10529800185C08BD022008BD3C2B0108D0F8980214
:1052A80008B503F0E1FD032802D8024B185C08BDDD
:1052B800022008BD3C2B0108D0F8980208B503F07D
:1052C800ABFD032802D8024B185C08BD022008BDBC
:1052D8003C2B0108D0F8C00208F0C6BAD0F8C002CA
:1052E80008F0DABAD0F8C00208F0E2BA704700BF96
:1052F800D0F8C00208F0C8BAD0F8C00208F0C8BA9E
:10530800D0F8D00308B502F0AFFE032802D8024B4C
:10531800185C08BD022008BD402B0108024B02782A
:1053280053F82200704700BF642B0108024B4278F3
:1053380033F81200704700BF442B01088CB00A28CC
:1053480014D8DFE800F01523313F4D5B697785936A
:1053580006004D4BD3F8E02042F48062C3F8E02009
:10536800D3F8E03003F480630B930B9B0CB07047C9
:10537800454BD3F8E02042F00102C3F8E020D3F80F
:10538800E03003F001030193019BEFE73E4BD3F8B4
:10539800E02042F00202C3F8E020D3F8E03003F046
:1053A80002030293029BE1E7374BD3F8E02042F077
:1053B8000402C3F8E020D3F8E03003F004030393B9
:1053C800039BD3E7304BD3F8E02042F00802C3F840
:1053D800E020D3F8E03003F008030493049BC5E70A
:1053E800294BD3F8E02042F01002C3F8E020D3F8AC
:1053F800E03003F010030593059BB7E7224BD3F881
:10540800E02042F02002C3F8E020D3F8E03003F0B7
:1054180020030693069BA9E71B4BD3F8E02042F034
:105428004002C3F8E020D3F8E03003F040030793CC
:10543800079B9BE7144BD3F8E02042F08002C3F8A7
:10544800E020D3F8E03003F080030893089B8DE751
:105458000D4BD3F8E02042F48072C3F8E020D3F873
:10546800E03003F480730993099B7FE7064BD3F878
:10547800E02042F40072C3F8E020D3F8E03003F4EF
:1054880000730A930A9B71E700440258704700BFF3
:105498000F4B1B780BB90120704710B504464FF429
:1054A8007A700C4AB0FBF3F31068B0FBF3F000F02D
:1054B800C1FE0F2C00D808B1012010BD00222146E2
:1054C8004FF0FF3000F056FE034B00201C6010BD6B
:1054D8005C000024540000246000002438B5032038
:1054E800124D00F035FE124C04F0E0FC114A12494E
:1054F8009369C3F30323CB5C03F01F0320FA03F380
:105508000E202B60926902F00F028A5C02F01F02E3
:10551800D3402360FFF7BCFF10B10124204638BDFB
:105528000446FFF7B3FF204638BD00BF54000024EF
:1055380058000024004402582C2B0108034A044B4D
:1055480011681B780B441360704700BF44A0072400
:105558005C000024014B1868704700BF44A0072472
:1055680038B50446FFF7F6FF0546631C02D0044B26
:105578001B781C44FFF7EEFF431BA342FAD338BD48
:105588005C000024014B1868000C70470010005C98
:10559800704700BF806B08B5FFF7FAFF08BD00BF72
:1055A800836B5A6D12F0500F5A6D10B51DD11968E2
:1055B80042F400725A650A6812F0080FCA681BD0D4
:1055C80012F4406F0DD1CA6894040AD45A6D22F4BB
:1055D80080725A655A6DD10403D45A6D42F00102A3
:1055E8005A651846FDF714FE10BDD2060AD4DB6CC6
:1055F800BDE81040DB6C18479007E7D01846FDF768
:1056080007FEF1E71846FDF7A7FE10BD806B08B549
:10561800436D43F040034365836D43F004038365A2
:10562800FDF79AFE08BD00BFF0B5002283B00192D5
:1056380090F85020012A00F01C81034601201A68C6
:1056480083F850009468640700F18A800C68C4F3FA
:105658001305002D40F08F80C4F38464A0404D688A
:105668004FF01F0ED6694FEA951C30430CF00C0C16
:10567800D06105F01F0002F1300584400EFA00FEEB
:105688005CF8050020EA0E0004434CF805409068D9
:1056980040076ED4956815F0080547D10C680720B7
:1056A80002F11406B94F4FEAD45CC4F304540CF069
:1056B800040C00FA04FE886800FA04F45CF806009A
:1056C80020EA0E0020434CF80600386800F07040CD
:1056D800B0F1805F00F0C580D068D668C70600F1D9
:1056E800E880C6F382064869760000FA06F60F6974
:1056F800042F00F0C18002F16004086854F827C044
:1057080000F0F8400CF0004C40EA0C00304344F83C
:105718002700487E0E69012854F8260008BF4FF07C
:10572800004520F00040054344F826509068C4071F
:1057380014D4CE68086806F01807954CD2F8C05003
:10574800FC40C0F31307044025EA07052C43C2F8C0
:10575800C040904CA64246D0002816DB002003E04B
:105768005A6D42F020025A65002283F8502003B097
:10577800F0BD9068DAE794FAA4F5B5FA85F5C4F3B4
:10578800846405F01F05A84069E783498A4200F050
:10579800B68001F580718A4200F0B1807F4D804C5F
:1057A800A968A46801F0E076E44304F00104002C41
:1057B80000F0B4807B4CA04200F0FC807A4CA04200
:1057C80000F01A81794CA042C8D14902C6D4744964
:1057D8008A42C3D1AA68002022F0E072324342F420
:1057E8008002AA60C0E7002F6AD090FAA0F4B4FA49
:1057F80084F4013404F01F04092C00F2A48090FA08
:10580800A0F4B4FA84F490FAA0F5B5FA85F5013459
:1058180001260135A40605F01F0504F0F84406FA30
:1058280005F52C4390FAA0F0B0FA80F0304400F06F
:105838001F0000EB400000052043C60D02F11405CF
:10584800C0F30450072406F0040604FA00F774595C
:1058580024EA07048F6807FA00F0204370510868AB
:105868007AE7D6684869C6F38206760000FA06F633
:105878003DE7022003B0F0BD106E0C6800F0F84060
:10588800A506B0EB846F30D0506E00F0F84085422A
:1058980026D0906E00F0F84085422BD0D06E00F0F4
:1058A800F84085427FF442AFD06E20F00040D066C9
:1058B8003CE77608486906F0080600FA06F616E797
:1058C800800E441C04F01F06092E2DD8A4060120C2
:1058D80004F0F844B040044306EB46000005ABE78B
:1058E800506E20F000405066D3E7106E20F0004064
:1058F8001066C9E7906E20F000409066CEE7264C0F
:105908002B4D04F58074A96854F8F86CA4683443E6
:1059180001F0E076E44304F0010448E75A6D012001
:1059280042F020025A651FE706EB4600A50601244F
:105938001E3805F0F84504FA06F60005354340F030
:105948000070284379E790FAA0F5B5FA85F590FA42
:10595800A0F4B4FA84F4013501260134AD0604F04C
:105968001F0405F0F84506FA04F4254390FAA0F45C
:10597800B4FA84F4344404F01F0404EB4404A4F19E
:105988001E00000540F00070DBE700BF0010005C5F
:10599800FFFF0F000000FF4700200240006302588D
:1059A80000600258000084CB000052C70000B8CF46
:1059B8000023024008023FF5D1AE17498A427FF41E
:1059C800CDAE164AA9681268154821F0E07192090F
:1059D8003143A0FB020241F400019209A960520080
:1059E8000192019A002A3FF4B9AE019A013A019254
:1059F800019A002AF9D1B1E611F080707FF4AEAEB9
:105A080005498A427FF4AAAEAA6822F0E0723243BE
:105A180042F08072AA60A7E6006002585400002491
:105A2800632D3E0503689A68D20701D500207047A8
:105A38009968214A114270B5044608D0636D012067
:105A480043F010036365A36D0343A36570BD9968B4
:105A58001A4A0A4042F001029A60FFF77BFD236868
:105A6800174A054693421ED002F5807293421AD017
:105A7800144A9268114E0AE09A68324042F00102D4
:105A88009A60FFF767FD401B0228D7D823681A6879
:105A9800D2070FD49A68D107EED5FFF75BFD401BFC
:105AA8000228F3D9CAE7084A9268D006E2D0074A22
:105AB8009342DFD1002070BD3F000080C0FFFF7F10
:105AC80000200240006302580023024000210240E7
